{
  "contractName": "AuditTrailAndDataAuditor",
  "abi": [
    {
      "anonymous": false,
      "inputs": [
        {
          "indexed": false,
          "internalType": "uint256",
          "name": "id",
          "type": "uint256"
        },
        {
          "indexed": false,
          "internalType": "uint256",
          "name": "recordId",
          "type": "uint256"
        },
        {
          "indexed": false,
          "internalType": "address",
          "name": "accessedBy",
          "type": "address"
        },
        {
          "indexed": false,
          "internalType": "uint256",
          "name": "timestamp",
          "type": "uint256"
        }
      ],
      "name": "AuditLogged",
      "type": "event"
    },
    {
      "inputs": [],
      "name": "auditLogCount",
      "outputs": [
        {
          "internalType": "uint256",
          "name": "",
          "type": "uint256"
        }
      ],
      "stateMutability": "view",
      "type": "function"
    },
    {
      "inputs": [
        {
          "internalType": "uint256",
          "name": "",
          "type": "uint256"
        },
        {
          "internalType": "uint256",
          "name": "",
          "type": "uint256"
        }
      ],
      "name": "auditLogs",
      "outputs": [
        {
          "internalType": "uint256",
          "name": "id",
          "type": "uint256"
        },
        {
          "internalType": "uint256",
          "name": "recordId",
          "type": "uint256"
        },
        {
          "internalType": "address",
          "name": "accessedBy",
          "type": "address"
        },
        {
          "internalType": "uint256",
          "name": "timestamp",
          "type": "uint256"
        }
      ],
      "stateMutability": "view",
      "type": "function"
    },
    {
      "inputs": [
        {
          "internalType": "uint256",
          "name": "_recordId",
          "type": "uint256"
        },
        {
          "internalType": "address",
          "name": "_accessedBy",
          "type": "address"
        }
      ],
      "name": "logAccess",
      "outputs": [],
      "stateMutability": "nonpayable",
      "type": "function"
    },
    {
      "inputs": [
        {
          "internalType": "uint256",
          "name": "_recordId",
          "type": "uint256"
        }
      ],
      "name": "getAuditLogs",
      "outputs": [
        {
          "components": [
            {
              "internalType": "uint256",
              "name": "id",
              "type": "uint256"
            },
            {
              "internalType": "uint256",
              "name": "recordId",
              "type": "uint256"
            },
            {
              "internalType": "address",
              "name": "accessedBy",
              "type": "address"
            },
            {
              "internalType": "uint256",
              "name": "timestamp",
              "type": "uint256"
            }
          ],
          "internalType": "struct AuditTrailAndDataAuditor.AuditLog[]",
          "name": "",
          "type": "tuple[]"
        }
      ],
      "stateMutability": "view",
      "type": "function"
    }
  ],
  "bytecode": "0x608060405234801561001057600080fd5b50610731806100206000396000f3fe608060405234801561001057600080fd5b506004361061004c5760003560e01c806301b1d32414610051578063704dca9714610081578063ac457e51146100b4578063ed08b4c4146100d2575b600080fd5b61006b600480360381019061006691906103b7565b6100ee565b6040516100789190610538565b60405180910390f35b61009b6004803603810190610096919061055a565b6101d3565b6040516100ab94939291906105b8565b60405180910390f35b6100bc610240565b6040516100c991906105fd565b60405180910390f35b6100ec60048036038101906100e79190610644565b610246565b005b6060600080838152602001908152602001600020805480602002602001604051908101604052809291908181526020016000905b828210156101c8578382906000526020600020906004020160405180608001604052908160008201548152602001600182015481526020016002820160009054906101000a900473ffffffffffffffffffffffffffffffffffffffff1673ffffffffffffffffffffffffffffffffffffffff1673ffffffffffffffffffffffffffffffffffffffff16815260200160038201548152505081526020019060010190610122565b505050509050919050565b600060205281600052604060002081815481106101ef57600080fd5b9060005260206000209060040201600091509150508060000154908060010154908060020160009054906101000a900473ffffffffffffffffffffffffffffffffffffffff16908060030154905084565b60015481565b60016000815480929190610259906106b3565b9190505550600080838152602001908152602001600020604051806080016040528060015481526020018481526020018373ffffffffffffffffffffffffffffffffffffffff168152602001428152509080600181540180825580915050600190039060005260206000209060040201600090919091909150600082015181600001556020820151816001015560408201518160020160006101000a81548173ffffffffffffffffffffffffffffffffffffffff021916908373ffffffffffffffffffffffffffffffffffffffff1602179055506060820151816003015550507f590d4376e7a23de614afef7d5b72c4c4ecddf3fc999b88627a9c1478e11e6d1d60015483834260405161037094939291906105b8565b60405180910390a15050565b600080fd5b6000819050919050565b61039481610381565b811461039f57600080fd5b50565b6000813590506103b18161038b565b92915050565b6000602082840312156103cd576103cc61037c565b5b60006103db848285016103a2565b91505092915050565b600081519050919050565b600082825260208201905092915050565b6000819050602082019050919050565b61041981610381565b82525050565b600073ffffffffffffffffffffffffffffffffffffffff82169050919050565b600061044a8261041f565b9050919050565b61045a8161043f565b82525050565b6080820160008201516104766000850182610410565b5060208201516104896020850182610410565b50604082015161049c6040850182610451565b5060608201516104af6060850182610410565b50505050565b60006104c18383610460565b60808301905092915050565b6000602082019050919050565b60006104e5826103e4565b6104ef81856103ef565b93506104fa83610400565b8060005b8381101561052b57815161051288826104b5565b975061051d836104cd565b9250506001810190506104fe565b5085935050505092915050565b6000602082019050818103600083015261055281846104da565b905092915050565b600080604083850312156105715761057061037c565b5b600061057f858286016103a2565b9250506020610590858286016103a2565b9150509250929050565b6105a381610381565b82525050565b6105b28161043f565b82525050565b60006080820190506105cd600083018761059a565b6105da602083018661059a565b6105e760408301856105a9565b6105f4606083018461059a565b95945050505050565b6000602082019050610612600083018461059a565b92915050565b6106218161043f565b811461062c57600080fd5b50565b60008135905061063e81610618565b92915050565b6000806040838503121561065b5761065a61037c565b5b6000610669858286016103a2565b925050602061067a8582860161062f565b9150509250929050565b7f4e487b7100000000000000000000000000000000000000000000000000000000600052601160045260246000fd5b60006106be82610381565b91507fffffffffffffffffffffffffffffffffffffffffffffffffffffffffffffffff82036106f0576106ef610684565b5b60018201905091905056fea26469706673582212202c6f8ff3ea080d967ce51bc6d55b1af4d2df85b9b8cf8a3f5151f99a5ed94bba64736f6c63430008110033",
  "immutableReferences": {},
  "source": "// SPDX-License-Identifier: MIT\r\npragma solidity ^0.8.0;\r\n\r\ncontract AuditTrailAndDataAuditor {\r\n    struct AuditLog {\r\n        uint256 id;\r\n        uint256 recordId;\r\n        address accessedBy;\r\n        uint256 timestamp;\r\n    }\r\n\r\n    mapping(uint256 => AuditLog[]) public auditLogs;\r\n    uint256 public auditLogCount;\r\n\r\n    event AuditLogged(uint256 id, uint256 recordId, address accessedBy, uint256 timestamp);\r\n\r\n    function logAccess(uint256 _recordId, address _accessedBy) public {\r\n        auditLogCount++;\r\n        auditLogs[_recordId].push(AuditLog(auditLogCount, _recordId, _accessedBy, block.timestamp));\r\n        emit AuditLogged(auditLogCount, _recordId, _accessedBy, block.timestamp);\r\n    }\r\n\r\n    function getAuditLogs(uint256 _recordId) public view returns (AuditLog[] memory) {\r\n        return auditLogs[_recordId];\r\n    }\r\n}\r\n",
  "sourcePath": "C:\\Users\\HP\\HospitalManagementBlockchain\\contracts\\AuditTrailAndDataAuditor.sol",
  "compiler": {
    "name": "solc",
    "version": "0.8.17+commit.8df45f5f.Emscripten.clang"
  },
  "schemaVersion": "3.4.16",
  "updatedAt": "2024-09-27T19:20:49.310Z",
  "networkType": "ethereum",
  "devdoc": {
    "kind": "dev",
    "methods": {},
    "version": 1
  },
  "userdoc": {
    "kind": "user",
    "methods": {},
    "version": 1
  }
}