{
  "contractName": "DataStandardizationAndInteroperabilityHub",
  "abi": [
    {
      "anonymous": false,
      "inputs": [
        {
          "indexed": false,
          "internalType": "uint256",
          "name": "id",
          "type": "uint256"
        },
        {
          "indexed": false,
          "internalType": "uint256",
          "name": "fromHospitalId",
          "type": "uint256"
        },
        {
          "indexed": false,
          "internalType": "uint256",
          "name": "toHospitalId",
          "type": "uint256"
        }
      ],
      "name": "DataShared",
      "type": "event"
    },
    {
      "anonymous": false,
      "inputs": [
        {
          "indexed": false,
          "internalType": "uint256",
          "name": "id",
          "type": "uint256"
        },
        {
          "indexed": false,
          "internalType": "uint256",
          "name": "hospitalId",
          "type": "uint256"
        },
        {
          "indexed": false,
          "internalType": "uint256",
          "name": "patientId",
          "type": "uint256"
        },
        {
          "indexed": false,
          "internalType": "string",
          "name": "standardizedTemplate",
          "type": "string"
        }
      ],
      "name": "DataStandardized",
      "type": "event"
    },
    {
      "inputs": [],
      "name": "dataCount",
      "outputs": [
        {
          "internalType": "uint256",
          "name": "",
          "type": "uint256"
        }
      ],
      "stateMutability": "view",
      "type": "function"
    },
    {
      "inputs": [
        {
          "internalType": "uint256",
          "name": "",
          "type": "uint256"
        }
      ],
      "name": "standardizedData",
      "outputs": [
        {
          "internalType": "uint256",
          "name": "id",
          "type": "uint256"
        },
        {
          "internalType": "uint256",
          "name": "hospitalId",
          "type": "uint256"
        },
        {
          "internalType": "uint256",
          "name": "patientId",
          "type": "uint256"
        },
        {
          "internalType": "string",
          "name": "standardizedTemplate",
          "type": "string"
        }
      ],
      "stateMutability": "view",
      "type": "function"
    },
    {
      "inputs": [
        {
          "internalType": "uint256",
          "name": "_hospitalId",
          "type": "uint256"
        },
        {
          "internalType": "uint256",
          "name": "_patientId",
          "type": "uint256"
        },
        {
          "internalType": "string",
          "name": "_template",
          "type": "string"
        }
      ],
      "name": "standardizeData",
      "outputs": [],
      "stateMutability": "nonpayable",
      "type": "function"
    },
    {
      "inputs": [
        {
          "internalType": "uint256",
          "name": "_dataId",
          "type": "uint256"
        },
        {
          "internalType": "uint256",
          "name": "_fromHospitalId",
          "type": "uint256"
        },
        {
          "internalType": "uint256",
          "name": "_toHospitalId",
          "type": "uint256"
        }
      ],
      "name": "shareData",
      "outputs": [],
      "stateMutability": "nonpayable",
      "type": "function"
    }
  ],
  "bytecode": "0x608060405234801561001057600080fd5b50610a9c806100206000396000f3fe608060405234801561001057600080fd5b506004361061004c5760003560e01c806314e6835d146100515780635da40c471461006d578063ae87d5071461008b578063cd92f5b8146100be575b600080fd5b61006b60048036038101906100669190610344565b6100da565b005b610075610172565b60405161008291906103a6565b60405180910390f35b6100a560048036038101906100a091906103c1565b610178565b6040516100b5949392919061047e565b60405180910390f35b6100d860048036038101906100d391906105ff565b610230565b005b60008060008581526020019081526020016000206000015403610132576040517f08c379a0000000000000000000000000000000000000000000000000000000008152600401610129906106ba565b60405180910390fd5b7ff825f8f3e5e6cefa0176fbc9977c1d31f43083a8d0e380a66c360eb9f54befaf838383604051610165939291906106da565b60405180910390a1505050565b60015481565b60006020528060005260406000206000915090508060000154908060010154908060020154908060030180546101ad90610740565b80601f01602080910402602001604051908101604052809291908181526020018280546101d990610740565b80156102265780601f106101fb57610100808354040283529160200191610226565b820191906000526020600020905b81548152906001019060200180831161020957829003601f168201915b5050505050905084565b60016000815480929190610243906107a0565b91905055506040518060800160405280600154815260200184815260200183815260200182815250600080600154815260200190815260200160002060008201518160000155602082015181600101556040820151816002015560608201518160030190816102b29190610994565b509050507fce2da4389d99de07fd288115f00dc7dc55dadb9e9bc1bab2081eacd1ee0ea3616001548484846040516102ed949392919061047e565b60405180910390a1505050565b6000604051905090565b600080fd5b600080fd5b6000819050919050565b6103218161030e565b811461032c57600080fd5b50565b60008135905061033e81610318565b92915050565b60008060006060848603121561035d5761035c610304565b5b600061036b8682870161032f565b935050602061037c8682870161032f565b925050604061038d8682870161032f565b9150509250925092565b6103a08161030e565b82525050565b60006020820190506103bb6000830184610397565b92915050565b6000602082840312156103d7576103d6610304565b5b60006103e58482850161032f565b91505092915050565b600081519050919050565b600082825260208201905092915050565b60005b8381101561042857808201518184015260208101905061040d565b60008484015250505050565b6000601f19601f8301169050919050565b6000610450826103ee565b61045a81856103f9565b935061046a81856020860161040a565b61047381610434565b840191505092915050565b60006080820190506104936000830187610397565b6104a06020830186610397565b6104ad6040830185610397565b81810360608301526104bf8184610445565b905095945050505050565b600080fd5b600080fd5b7f4e487b7100000000000000000000000000000000000000000000000000000000600052604160045260246000fd5b61050c82610434565b810181811067ffffffffffffffff8211171561052b5761052a6104d4565b5b80604052505050565b600061053e6102fa565b905061054a8282610503565b919050565b600067ffffffffffffffff82111561056a576105696104d4565b5b61057382610434565b9050602081019050919050565b82818337600083830152505050565b60006105a261059d8461054f565b610534565b9050828152602081018484840111156105be576105bd6104cf565b5b6105c9848285610580565b509392505050565b600082601f8301126105e6576105e56104ca565b5b81356105f684826020860161058f565b91505092915050565b60008060006060848603121561061857610617610304565b5b60006106268682870161032f565b93505060206106378682870161032f565b925050604084013567ffffffffffffffff81111561065857610657610309565b5b610664868287016105d1565b9150509250925092565b7f44617461206e6f7420666f756e642e0000000000000000000000000000000000600082015250565b60006106a4600f836103f9565b91506106af8261066e565b602082019050919050565b600060208201905081810360008301526106d381610697565b9050919050565b60006060820190506106ef6000830186610397565b6106fc6020830185610397565b6107096040830184610397565b949350505050565b7f4e487b7100000000000000000000000000000000000000000000000000000000600052602260045260246000fd5b6000600282049050600182168061075857607f821691505b60208210810361076b5761076a610711565b5b50919050565b7f4e487b7100000000000000000000000000000000000000000000000000000000600052601160045260246000fd5b60006107ab8261030e565b91507fffffffffffffffffffffffffffffffffffffffffffffffffffffffffffffffff82036107dd576107dc610771565b5b600182019050919050565b60008190508160005260206000209050919050565b60006020601f8301049050919050565b600082821b905092915050565b60006008830261084a7fffffffffffffffffffffffffffffffffffffffffffffffffffffffffffffffff8261080d565b610854868361080d565b95508019841693508086168417925050509392505050565b6000819050919050565b600061089161088c6108878461030e565b61086c565b61030e565b9050919050565b6000819050919050565b6108ab83610876565b6108bf6108b782610898565b84845461081a565b825550505050565b600090565b6108d46108c7565b6108df8184846108a2565b505050565b5b81811015610903576108f86000826108cc565b6001810190506108e5565b5050565b601f82111561094857610919816107e8565b610922846107fd565b81016020851015610931578190505b61094561093d856107fd565b8301826108e4565b50505b505050565b600082821c905092915050565b600061096b6000198460080261094d565b1980831691505092915050565b6000610984838361095a565b9150826002028217905092915050565b61099d826103ee565b67ffffffffffffffff8111156109b6576109b56104d4565b5b6109c08254610740565b6109cb828285610907565b600060209050601f8311600181146109fe57600084156109ec578287015190505b6109f68582610978565b865550610a5e565b601f198416610a0c866107e8565b60005b82811015610a3457848901518255600182019150602085019450602081019050610a0f565b86831015610a515784890151610a4d601f89168261095a565b8355505b6001600288020188555050505b50505050505056fea264697066735822122018e18d3185e0ef5c9b140f780664a6937d7d4e795521a65024d8e5da9ff5e00a64736f6c63430008110033",
  "immutableReferences": {},
  "source": "// SPDX-License-Identifier: MIT\r\npragma solidity ^0.8.0;\r\n\r\ncontract DataStandardizationAndInteroperabilityHub {\r\n    struct StandardizedData {\r\n        uint256 id;\r\n        uint256 hospitalId;\r\n        uint256 patientId;\r\n        string standardizedTemplate;\r\n    }\r\n\r\n    mapping(uint256 => StandardizedData) public standardizedData;\r\n    uint256 public dataCount;\r\n\r\n    event DataStandardized(uint256 id, uint256 hospitalId, uint256 patientId, string standardizedTemplate);\r\n    event DataShared(uint256 id, uint256 fromHospitalId, uint256 toHospitalId);\r\n\r\n    function standardizeData(\r\n        uint256 _hospitalId,\r\n        uint256 _patientId,\r\n        string memory _template\r\n    ) public {\r\n        dataCount++;\r\n        standardizedData[dataCount] = StandardizedData(dataCount, _hospitalId, _patientId, _template);\r\n        emit DataStandardized(dataCount, _hospitalId, _patientId, _template);\r\n    }\r\n\r\n    function shareData(\r\n        uint256 _dataId,\r\n        uint256 _fromHospitalId,\r\n        uint256 _toHospitalId\r\n    ) public {\r\n        require(standardizedData[_dataId].id != 0, \"Data not found.\");\r\n        emit DataShared(_dataId, _fromHospitalId, _toHospitalId);\r\n    }\r\n}\r\n",
  "sourcePath": "C:\\Users\\HP\\HospitalManagementBlockchain\\contracts\\DataStandardizationAndInteroperabilityHub.sol",
  "compiler": {
    "name": "solc",
    "version": "0.8.17+commit.8df45f5f.Emscripten.clang"
  },
  "schemaVersion": "3.4.16",
  "updatedAt": "2024-10-10T19:16:31.252Z",
  "devdoc": {
    "kind": "dev",
    "methods": {},
    "version": 1
  },
  "userdoc": {
    "kind": "user",
    "methods": {},
    "version": 1
  }
}