{
  "contractName": "DataStandardizationAndInteroperability",
  "abi": [
    {
      "anonymous": false,
      "inputs": [
        {
          "indexed": false,
          "internalType": "uint256",
          "name": "recordId",
          "type": "uint256"
        }
      ],
      "name": "StandardizedRecordCreated",
      "type": "event"
    },
    {
      "inputs": [],
      "name": "standardizedRecordCount",
      "outputs": [
        {
          "internalType": "uint256",
          "name": "",
          "type": "uint256"
        }
      ],
      "stateMutability": "view",
      "type": "function"
    },
    {
      "inputs": [
        {
          "internalType": "uint256",
          "name": "",
          "type": "uint256"
        }
      ],
      "name": "standardizedRecords",
      "outputs": [
        {
          "internalType": "uint256",
          "name": "recordId",
          "type": "uint256"
        },
        {
          "internalType": "string",
          "name": "majorDiagnosis",
          "type": "string"
        },
        {
          "internalType": "string",
          "name": "treatment",
          "type": "string"
        },
        {
          "internalType": "string",
          "name": "dateOfVisit",
          "type": "string"
        }
      ],
      "stateMutability": "view",
      "type": "function"
    },
    {
      "inputs": [
        {
          "internalType": "uint256",
          "name": "_patientId",
          "type": "uint256"
        },
        {
          "internalType": "string",
          "name": "_majorDiagnosis",
          "type": "string"
        },
        {
          "internalType": "string",
          "name": "_treatment",
          "type": "string"
        },
        {
          "internalType": "string",
          "name": "_dateOfVisit",
          "type": "string"
        },
        {
          "internalType": "string[]",
          "name": "_allergies",
          "type": "string[]"
        }
      ],
      "name": "createStandardizedTemplate",
      "outputs": [],
      "stateMutability": "nonpayable",
      "type": "function"
    },
    {
      "inputs": [
        {
          "internalType": "uint256",
          "name": "_recordId",
          "type": "uint256"
        }
      ],
      "name": "getStandardizedRecord",
      "outputs": [
        {
          "internalType": "uint256",
          "name": "",
          "type": "uint256"
        },
        {
          "internalType": "string",
          "name": "",
          "type": "string"
        },
        {
          "internalType": "string",
          "name": "",
          "type": "string"
        },
        {
          "internalType": "string[]",
          "name": "",
          "type": "string[]"
        }
      ],
      "stateMutability": "view",
      "type": "function"
    }
  ],
  "bytecode": "0x608060405234801561001057600080fd5b506111b4806100206000396000f3fe608060405234801561001057600080fd5b506004361061004c5760003560e01c80634c3eda72146100515780638351ef5514610084578063ac95955a146100a0578063f95774fb146100d3575b600080fd5b61006b60048036038101906100669190610810565b6100f1565b60405161007b94939291906108dc565b60405180910390f35b61009e60048036038101906100999190610b51565b6102b9565b005b6100ba60048036038101906100b59190610810565b6103ba565b6040516100ca9493929190610d48565b60405180910390f35b6100db6106e6565b6040516100e89190610da2565b60405180910390f35b600060205280600052604060002060009150905080600001549080600101805461011a90610dec565b80601f016020809104026020016040519081016040528092919081815260200182805461014690610dec565b80156101935780601f1061016857610100808354040283529160200191610193565b820191906000526020600020905b81548152906001019060200180831161017657829003601f168201915b5050505050908060020180546101a890610dec565b80601f01602080910402602001604051908101604052809291908181526020018280546101d490610dec565b80156102215780601f106101f657610100808354040283529160200191610221565b820191906000526020600020905b81548152906001019060200180831161020457829003601f168201915b50505050509080600301805461023690610dec565b80601f016020809104026020016040519081016040528092919081815260200182805461026290610dec565b80156102af5780601f10610284576101008083540402835291602001916102af565b820191906000526020600020905b81548152906001019060200180831161029257829003601f168201915b5050505050905084565b600160008154809291906102cc90610e4c565b91905055506040518060a00160405280600154815260200185815260200184815260200183815260200182815250600080600154815260200190815260200160002060008201518160000155602082015181600101908161032d9190611040565b5060408201518160020190816103439190611040565b5060608201518160030190816103599190611040565b5060808201518160040190805190602001906103769291906106ec565b509050507fcab7c2321b6de7ad9e7c592203cbcc624321ae8477a8ea2ce73ff31d9758bf096001546040516103ab9190610da2565b60405180910390a15050505050565b6000606080606060008060008781526020019081526020016000206040518060a0016040529081600082015481526020016001820180546103fa90610dec565b80601f016020809104026020016040519081016040528092919081815260200182805461042690610dec565b80156104735780601f1061044857610100808354040283529160200191610473565b820191906000526020600020905b81548152906001019060200180831161045657829003601f168201915b5050505050815260200160028201805461048c90610dec565b80601f01602080910402602001604051908101604052809291908181526020018280546104b890610dec565b80156105055780601f106104da57610100808354040283529160200191610505565b820191906000526020600020905b8154815290600101906020018083116104e857829003601f168201915b5050505050815260200160038201805461051e90610dec565b80601f016020809104026020016040519081016040528092919081815260200182805461054a90610dec565b80156105975780601f1061056c57610100808354040283529160200191610597565b820191906000526020600020905b81548152906001019060200180831161057a57829003601f168201915b5050505050815260200160048201805480602002602001604051908101604052809291908181526020016000905b828210156106715783829060005260206000200180546105e490610dec565b80601f016020809104026020016040519081016040528092919081815260200182805461061090610dec565b801561065d5780601f106106325761010080835404028352916020019161065d565b820191906000526020600020905b81548152906001019060200180831161064057829003601f168201915b5050505050815260200190600101906105c5565b5050505081525050905060008160000151036106c2576040517f08c379a00000000000000000000000000000000000000000000000000000000081526004016106b99061115e565b60405180910390fd5b80600001518160200151826040015183608001519450945094509450509193509193565b60015481565b828054828255906000526020600020908101928215610734579160200282015b828111156107335782518290816107239190611040565b509160200191906001019061070c565b5b5090506107419190610745565b5090565b5b80821115610765576000818161075c9190610769565b50600101610746565b5090565b50805461077590610dec565b6000825580601f1061078757506107a6565b601f0160209004906000526020600020908101906107a591906107a9565b5b50565b5b808211156107c25760008160009055506001016107aa565b5090565b6000604051905090565b600080fd5b600080fd5b6000819050919050565b6107ed816107da565b81146107f857600080fd5b50565b60008135905061080a816107e4565b92915050565b600060208284031215610826576108256107d0565b5b6000610834848285016107fb565b91505092915050565b610846816107da565b82525050565b600081519050919050565b600082825260208201905092915050565b60005b8381101561088657808201518184015260208101905061086b565b60008484015250505050565b6000601f19601f8301169050919050565b60006108ae8261084c565b6108b88185610857565b93506108c8818560208601610868565b6108d181610892565b840191505092915050565b60006080820190506108f1600083018761083d565b818103602083015261090381866108a3565b9050818103604083015261091781856108a3565b9050818103606083015261092b81846108a3565b905095945050505050565b600080fd5b600080fd5b7f4e487b7100000000000000000000000000000000000000000000000000000000600052604160045260246000fd5b61097882610892565b810181811067ffffffffffffffff8211171561099757610996610940565b5b80604052505050565b60006109aa6107c6565b90506109b6828261096f565b919050565b600067ffffffffffffffff8211156109d6576109d5610940565b5b6109df82610892565b9050602081019050919050565b82818337600083830152505050565b6000610a0e610a09846109bb565b6109a0565b905082815260208101848484011115610a2a57610a2961093b565b5b610a358482856109ec565b509392505050565b600082601f830112610a5257610a51610936565b5b8135610a628482602086016109fb565b91505092915050565b600067ffffffffffffffff821115610a8657610a85610940565b5b602082029050602081019050919050565b600080fd5b6000610aaf610aaa84610a6b565b6109a0565b90508083825260208201905060208402830185811115610ad257610ad1610a97565b5b835b81811015610b1957803567ffffffffffffffff811115610af757610af6610936565b5b808601610b048982610a3d565b85526020850194505050602081019050610ad4565b5050509392505050565b600082601f830112610b3857610b37610936565b5b8135610b48848260208601610a9c565b91505092915050565b600080600080600060a08688031215610b6d57610b6c6107d0565b5b6000610b7b888289016107fb565b955050602086013567ffffffffffffffff811115610b9c57610b9b6107d5565b5b610ba888828901610a3d565b945050604086013567ffffffffffffffff811115610bc957610bc86107d5565b5b610bd588828901610a3d565b935050606086013567ffffffffffffffff811115610bf657610bf56107d5565b5b610c0288828901610a3d565b925050608086013567ffffffffffffffff811115610c2357610c226107d5565b5b610c2f88828901610b23565b9150509295509295909350565b600081519050919050565b600082825260208201905092915050565b6000819050602082019050919050565b600082825260208201905092915050565b6000610c848261084c565b610c8e8185610c68565b9350610c9e818560208601610868565b610ca781610892565b840191505092915050565b6000610cbe8383610c79565b905092915050565b6000602082019050919050565b6000610cde82610c3c565b610ce88185610c47565b935083602082028501610cfa85610c58565b8060005b85811015610d365784840389528151610d178582610cb2565b9450610d2283610cc6565b925060208a01995050600181019050610cfe565b50829750879550505050505092915050565b6000608082019050610d5d600083018761083d565b8181036020830152610d6f81866108a3565b90508181036040830152610d8381856108a3565b90508181036060830152610d978184610cd3565b905095945050505050565b6000602082019050610db7600083018461083d565b92915050565b7f4e487b7100000000000000000000000000000000000000000000000000000000600052602260045260246000fd5b60006002820490506001821680610e0457607f821691505b602082108103610e1757610e16610dbd565b5b50919050565b7f4e487b7100000000000000000000000000000000000000000000000000000000600052601160045260246000fd5b6000610e57826107da565b91507fffffffffffffffffffffffffffffffffffffffffffffffffffffffffffffffff8203610e8957610e88610e1d565b5b600182019050919050565b60008190508160005260206000209050919050565b60006020601f8301049050919050565b600082821b905092915050565b600060088302610ef67fffffffffffffffffffffffffffffffffffffffffffffffffffffffffffffffff82610eb9565b610f008683610eb9565b95508019841693508086168417925050509392505050565b6000819050919050565b6000610f3d610f38610f33846107da565b610f18565b6107da565b9050919050565b6000819050919050565b610f5783610f22565b610f6b610f6382610f44565b848454610ec6565b825550505050565b600090565b610f80610f73565b610f8b818484610f4e565b505050565b5b81811015610faf57610fa4600082610f78565b600181019050610f91565b5050565b601f821115610ff457610fc581610e94565b610fce84610ea9565b81016020851015610fdd578190505b610ff1610fe985610ea9565b830182610f90565b50505b505050565b600082821c905092915050565b600061101760001984600802610ff9565b1980831691505092915050565b60006110308383611006565b9150826002028217905092915050565b6110498261084c565b67ffffffffffffffff81111561106257611061610940565b5b61106c8254610dec565b611077828285610fb3565b600060209050601f8311600181146110aa5760008415611098578287015190505b6110a28582611024565b86555061110a565b601f1984166110b886610e94565b60005b828110156110e0578489015182556001820191506020850194506020810190506110bb565b868310156110fd57848901516110f9601f891682611006565b8355505b6001600288020188555050505b505050505050565b7f5265636f726420646f6573206e6f742065786973742e00000000000000000000600082015250565b6000611148601683610857565b915061115382611112565b602082019050919050565b600060208201905081810360008301526111778161113b565b905091905056fea2646970667358221220467da9ed1930e36fce7ad2fb31c55183f343b6b28a542ad8d5d60baf0b9fb6f264736f6c63430008110033",
  "immutableReferences": {},
  "source": "// SPDX-License-Identifier: MIT\r\npragma solidity ^0.8.0;\r\n\r\ncontract DataStandardizationAndInteroperability {\r\n    struct StandardizedRecord {\r\n        uint256 recordId;               // ID of the standardized record\r\n        string majorDiagnosis;           // Major diagnosis\r\n        string treatment;                // Standardized treatment\r\n        string dateOfVisit;              // Date of the visit\r\n        string[] allergies;              // Standardized allergies\r\n    }\r\n\r\n    mapping(uint256 => StandardizedRecord) public standardizedRecords; // Mapping of standardized record ID to StandardizedRecord\r\n    uint256 public standardizedRecordCount;                            // Counter for standardized records\r\n\r\n    event StandardizedRecordCreated(uint256 recordId);\r\n\r\n    // Function to create a standardized template from the actual medical record\r\n    function createStandardizedTemplate(\r\n        uint256 _patientId,\r\n        string memory _majorDiagnosis,\r\n        string memory _treatment,\r\n        string memory _dateOfVisit,\r\n        string[] memory _allergies\r\n    ) public {\r\n        standardizedRecordCount++;\r\n        standardizedRecords[standardizedRecordCount] = StandardizedRecord(\r\n            standardizedRecordCount,\r\n            _majorDiagnosis,\r\n            _treatment,\r\n            _dateOfVisit,\r\n            _allergies\r\n        );\r\n\r\n        emit StandardizedRecordCreated(standardizedRecordCount);\r\n    }\r\n\r\n    // Function to retrieve a standardized record for sharing\r\n    function getStandardizedRecord(uint256 _recordId) public view returns (\r\n        uint256,\r\n        string memory,\r\n        string memory,\r\n        string[] memory\r\n    ) {\r\n        StandardizedRecord memory record = standardizedRecords[_recordId];\r\n        require(record.recordId != 0, \"Record does not exist.\");\r\n\r\n        return (\r\n            record.recordId,\r\n            record.majorDiagnosis,\r\n            record.treatment,\r\n            record.allergies\r\n        );\r\n    }\r\n}\r\n",
  "sourcePath": "C:\\Users\\HP\\project folders\\HospitalManagementBlockchain\\contracts\\DataStandardizationAndInteroperability.sol",
  "compiler": {
    "name": "solc",
    "version": "0.8.17+commit.8df45f5f.Emscripten.clang"
  },
  "schemaVersion": "3.4.16",
  "updatedAt": "2024-10-22T09:55:45.386Z",
  "devdoc": {
    "kind": "dev",
    "methods": {},
    "version": 1
  },
  "userdoc": {
    "kind": "user",
    "methods": {},
    "version": 1
  }
}