{
  "contractName": "DoctorRecordManagement",
  "abi": [
    {
      "inputs": [
        {
          "internalType": "address",
          "name": "_standardizationContractAddress",
          "type": "address"
        }
      ],
      "stateMutability": "nonpayable",
      "type": "constructor"
    },
    {
      "anonymous": false,
      "inputs": [
        {
          "indexed": false,
          "internalType": "uint256",
          "name": "requestId",
          "type": "uint256"
        }
      ],
      "name": "MedicalRecordAccepted",
      "type": "event"
    },
    {
      "anonymous": false,
      "inputs": [
        {
          "indexed": false,
          "internalType": "uint256",
          "name": "requestId",
          "type": "uint256"
        },
        {
          "indexed": false,
          "internalType": "uint256",
          "name": "patientId",
          "type": "uint256"
        },
        {
          "indexed": false,
          "internalType": "address",
          "name": "doctorAddress",
          "type": "address"
        }
      ],
      "name": "MedicalRecordRequested",
      "type": "event"
    },
    {
      "anonymous": false,
      "inputs": [
        {
          "indexed": false,
          "internalType": "uint256",
          "name": "requestId",
          "type": "uint256"
        }
      ],
      "name": "MedicalRecordRevoked",
      "type": "event"
    },
    {
      "anonymous": false,
      "inputs": [
        {
          "indexed": false,
          "internalType": "uint256",
          "name": "requestId",
          "type": "uint256"
        },
        {
          "indexed": false,
          "internalType": "address",
          "name": "recipient",
          "type": "address"
        }
      ],
      "name": "MedicalRecordShared",
      "type": "event"
    },
    {
      "inputs": [
        {
          "internalType": "uint256",
          "name": "",
          "type": "uint256"
        }
      ],
      "name": "medicalRecordRequests",
      "outputs": [
        {
          "internalType": "uint256",
          "name": "requestId",
          "type": "uint256"
        },
        {
          "internalType": "uint256",
          "name": "patientId",
          "type": "uint256"
        },
        {
          "internalType": "address",
          "name": "doctorAddress",
          "type": "address"
        },
        {
          "internalType": "string",
          "name": "diagnosis",
          "type": "string"
        },
        {
          "internalType": "string",
          "name": "treatment",
          "type": "string"
        },
        {
          "internalType": "string",
          "name": "prescription",
          "type": "string"
        },
        {
          "internalType": "string",
          "name": "notes",
          "type": "string"
        },
        {
          "internalType": "string",
          "name": "dateOfVisit",
          "type": "string"
        },
        {
          "internalType": "bool",
          "name": "approved",
          "type": "bool"
        }
      ],
      "stateMutability": "view",
      "type": "function"
    },
    {
      "inputs": [
        {
          "internalType": "uint256",
          "name": "",
          "type": "uint256"
        }
      ],
      "name": "medicalRecords",
      "outputs": [
        {
          "internalType": "uint256",
          "name": "id",
          "type": "uint256"
        },
        {
          "internalType": "uint256",
          "name": "patientId",
          "type": "uint256"
        },
        {
          "internalType": "address",
          "name": "doctorAddress",
          "type": "address"
        },
        {
          "internalType": "string",
          "name": "diagnosis",
          "type": "string"
        },
        {
          "internalType": "string",
          "name": "treatment",
          "type": "string"
        },
        {
          "internalType": "string",
          "name": "prescription",
          "type": "string"
        },
        {
          "internalType": "string",
          "name": "notes",
          "type": "string"
        },
        {
          "internalType": "string",
          "name": "dateOfVisit",
          "type": "string"
        },
        {
          "internalType": "bool",
          "name": "isApproved",
          "type": "bool"
        }
      ],
      "stateMutability": "view",
      "type": "function"
    },
    {
      "inputs": [],
      "name": "recordCount",
      "outputs": [
        {
          "internalType": "uint256",
          "name": "",
          "type": "uint256"
        }
      ],
      "stateMutability": "view",
      "type": "function"
    },
    {
      "inputs": [
        {
          "internalType": "uint256",
          "name": "",
          "type": "uint256"
        }
      ],
      "name": "recordOwners",
      "outputs": [
        {
          "internalType": "address",
          "name": "",
          "type": "address"
        }
      ],
      "stateMutability": "view",
      "type": "function"
    },
    {
      "inputs": [],
      "name": "requestCount",
      "outputs": [
        {
          "internalType": "uint256",
          "name": "",
          "type": "uint256"
        }
      ],
      "stateMutability": "view",
      "type": "function"
    },
    {
      "inputs": [],
      "name": "standardizationContract",
      "outputs": [
        {
          "internalType": "contract DataStandardizationAndInteroperability",
          "name": "",
          "type": "address"
        }
      ],
      "stateMutability": "view",
      "type": "function"
    },
    {
      "inputs": [
        {
          "internalType": "uint256",
          "name": "_patientId",
          "type": "uint256"
        },
        {
          "internalType": "address",
          "name": "_doctorAddress",
          "type": "address"
        },
        {
          "internalType": "string",
          "name": "_diagnosis",
          "type": "string"
        },
        {
          "internalType": "string",
          "name": "_treatment",
          "type": "string"
        },
        {
          "internalType": "string",
          "name": "_prescription",
          "type": "string"
        },
        {
          "internalType": "string",
          "name": "_notes",
          "type": "string"
        },
        {
          "internalType": "string",
          "name": "_dateOfVisit",
          "type": "string"
        },
        {
          "internalType": "string[]",
          "name": "_allergies",
          "type": "string[]"
        },
        {
          "internalType": "string[]",
          "name": "_medicalHistory",
          "type": "string[]"
        }
      ],
      "name": "storeMedicalRecord",
      "outputs": [],
      "stateMutability": "nonpayable",
      "type": "function"
    },
    {
      "inputs": [
        {
          "internalType": "uint256",
          "name": "_requestId",
          "type": "uint256"
        }
      ],
      "name": "acceptMedicalRecord",
      "outputs": [],
      "stateMutability": "nonpayable",
      "type": "function"
    },
    {
      "inputs": [
        {
          "internalType": "uint256",
          "name": "_requestId",
          "type": "uint256"
        },
        {
          "internalType": "address",
          "name": "_recipient",
          "type": "address"
        }
      ],
      "name": "shareRecord",
      "outputs": [],
      "stateMutability": "nonpayable",
      "type": "function"
    },
    {
      "inputs": [
        {
          "internalType": "uint256",
          "name": "_requestId",
          "type": "uint256"
        }
      ],
      "name": "revokeAccess",
      "outputs": [],
      "stateMutability": "nonpayable",
      "type": "function"
    },
    {
      "inputs": [
        {
          "internalType": "uint256",
          "name": "_recordId",
          "type": "uint256"
        }
      ],
      "name": "viewMedicalRecord",
      "outputs": [
        {
          "components": [
            {
              "internalType": "uint256",
              "name": "id",
              "type": "uint256"
            },
            {
              "internalType": "uint256",
              "name": "patientId",
              "type": "uint256"
            },
            {
              "internalType": "address",
              "name": "doctorAddress",
              "type": "address"
            },
            {
              "internalType": "string",
              "name": "diagnosis",
              "type": "string"
            },
            {
              "internalType": "string",
              "name": "treatment",
              "type": "string"
            },
            {
              "internalType": "string",
              "name": "prescription",
              "type": "string"
            },
            {
              "internalType": "string",
              "name": "notes",
              "type": "string"
            },
            {
              "internalType": "string",
              "name": "dateOfVisit",
              "type": "string"
            },
            {
              "internalType": "string[]",
              "name": "allergies",
              "type": "string[]"
            },
            {
              "internalType": "string[]",
              "name": "medicalHistory",
              "type": "string[]"
            },
            {
              "internalType": "bool",
              "name": "isApproved",
              "type": "bool"
            }
          ],
          "internalType": "struct DoctorRecordManagement.MedicalRecord",
          "name": "",
          "type": "tuple"
        }
      ],
      "stateMutability": "view",
      "type": "function"
    }
  ],
  "bytecode": "0x60806040523480156200001157600080fd5b50604051620031e7380380620031e78339818101604052810190620000379190620000e9565b80600560006101000a81548173ffffffffffffffffffffffffffffffffffffffff021916908373ffffffffffffffffffffffffffffffffffffffff160217905550506200011b565b600080fd5b600073ffffffffffffffffffffffffffffffffffffffff82169050919050565b6000620000b18262000084565b9050919050565b620000c381620000a4565b8114620000cf57600080fd5b50565b600081519050620000e381620000b8565b92915050565b6000602082840312156200010257620001016200007f565b5b60006200011284828501620000d2565b91505092915050565b6130bc806200012b6000396000f3fe608060405234801561001057600080fd5b50600436106100a95760003560e01c80637564a13c116100715780637564a13c146101525780637660f4cb1461018a578063900407bc146101c257806392a1ffb6146101e0578063d5736614146101fc578063e1b97d691461022c576100a9565b80630682858b146100ae57806319a712d9146100ca5780631caebd5a146100e85780632775ff05146101045780635badbe4c14610134575b600080fd5b6100c860048036038101906100c39190612026565b610248565b005b6100d261044c565b6040516100df9190612213565b60405180910390f35b61010260048036038101906100fd919061222e565b610472565b005b61011e6004803603810190610119919061226e565b6105ba565b60405161012b919061252e565b60405180910390f35b61013c610c06565b604051610149919061255f565b60405180910390f35b61016c6004803603810190610167919061226e565b610c0c565b604051610181999897969594939291906125e2565b60405180910390f35b6101a4600480360381019061019f919061226e565b610f2f565b6040516101b9999897969594939291906125e2565b60405180910390f35b6101ca611252565b6040516101d7919061255f565b60405180910390f35b6101fa60048036038101906101f5919061226e565b611258565b005b6102166004803603810190610211919061226e565b611a50565b6040516102239190612692565b60405180910390f35b6102466004803603810190610241919061226e565b611a83565b005b6003600081548092919061025b906126dc565b919050555060405180610160016040528060035481526020018a81526020018973ffffffffffffffffffffffffffffffffffffffff168152602001888152602001878152602001868152602001858152602001848152602001838152602001828152602001600015158152506000806003548152602001908152602001600020600082015181600001556020820151816001015560408201518160020160006101000a81548173ffffffffffffffffffffffffffffffffffffffff021916908373ffffffffffffffffffffffffffffffffffffffff160217905550606082015181600301908161034b9190612926565b5060808201518160040190816103619190612926565b5060a08201518160050190816103779190612926565b5060c082015181600601908161038d9190612926565b5060e08201518160070190816103a39190612926565b506101008201518160080190805190602001906103c1929190611be5565b506101208201518160090190805190602001906103df929190611be5565b5061014082015181600a0160006101000a81548160ff0219169083151502179055509050507f51b15dc88a4415226cb7ae0d2ca3d4296a938a039496ab94a4e6b522e18f84606003548a8a604051610439939291906129f8565b60405180910390a1505050505050505050565b600560009054906101000a900473ffffffffffffffffffffffffffffffffffffffff1681565b600080838152602001908152602001600020600a0160009054906101000a900460ff166104d4576040517f08c379a00000000000000000000000000000000000000000000000000000000081526004016104cb90612aa1565b60405180910390fd5b6000600560009054906101000a900473ffffffffffffffffffffffffffffffffffffffff1673ffffffffffffffffffffffffffffffffffffffff1663ac95955a846040518263ffffffff1660e01b8152600401610531919061255f565b600060405180830381865afa15801561054e573d6000803e3d6000fd5b505050506040513d6000823e3d601f19601f820116820180604052508101906105779190612bfb565b50505090507fdc2257cf9cd7585d8fb9e56c3636c8b3e964fb2556e739dbf2f0c54a5426472981836040516105ad929190612cb6565b60405180910390a1505050565b6105c2611c3e565b6002600083815260200190815260200160002060009054906101000a900473ffffffffffffffffffffffffffffffffffffffff1673ffffffffffffffffffffffffffffffffffffffff163373ffffffffffffffffffffffffffffffffffffffff16148061069057506001600083815260200190815260200160002060020160009054906101000a900473ffffffffffffffffffffffffffffffffffffffff1673ffffffffffffffffffffffffffffffffffffffff163373ffffffffffffffffffffffffffffffffffffffff16145b6106cf576040517f08c379a00000000000000000000000000000000000000000000000000000000081526004016106c690612d51565b60405180910390fd5b600160008381526020019081526020016000206040518061016001604052908160008201548152602001600182015481526020016002820160009054906101000a900473ffffffffffffffffffffffffffffffffffffffff1673ffffffffffffffffffffffffffffffffffffffff1673ffffffffffffffffffffffffffffffffffffffff16815260200160038201805461076890612753565b80601f016020809104026020016040519081016040528092919081815260200182805461079490612753565b80156107e15780601f106107b6576101008083540402835291602001916107e1565b820191906000526020600020905b8154815290600101906020018083116107c457829003601f168201915b505050505081526020016004820180546107fa90612753565b80601f016020809104026020016040519081016040528092919081815260200182805461082690612753565b80156108735780601f1061084857610100808354040283529160200191610873565b820191906000526020600020905b81548152906001019060200180831161085657829003601f168201915b5050505050815260200160058201805461088c90612753565b80601f01602080910402602001604051908101604052809291908181526020018280546108b890612753565b80156109055780601f106108da57610100808354040283529160200191610905565b820191906000526020600020905b8154815290600101906020018083116108e857829003601f168201915b5050505050815260200160068201805461091e90612753565b80601f016020809104026020016040519081016040528092919081815260200182805461094a90612753565b80156109975780601f1061096c57610100808354040283529160200191610997565b820191906000526020600020905b81548152906001019060200180831161097a57829003601f168201915b505050505081526020016007820180546109b090612753565b80601f01602080910402602001604051908101604052809291908181526020018280546109dc90612753565b8015610a295780601f106109fe57610100808354040283529160200191610a29565b820191906000526020600020905b815481529060010190602001808311610a0c57829003601f168201915b5050505050815260200160088201805480602002602001604051908101604052809291908181526020016000905b82821015610b03578382906000526020600020018054610a7690612753565b80601f0160208091040260200160405190810160405280929190818152602001828054610aa290612753565b8015610aef5780601f10610ac457610100808354040283529160200191610aef565b820191906000526020600020905b815481529060010190602001808311610ad257829003601f168201915b505050505081526020019060010190610a57565b50505050815260200160098201805480602002602001604051908101604052809291908181526020016000905b82821015610bdc578382906000526020600020018054610b4f90612753565b80601f0160208091040260200160405190810160405280929190818152602001828054610b7b90612753565b8015610bc85780601f10610b9d57610100808354040283529160200191610bc8565b820191906000526020600020905b815481529060010190602001808311610bab57829003601f168201915b505050505081526020019060010190610b30565b505050508152602001600a820160009054906101000a900460ff1615151515815250509050919050565b60035481565b60016020528060005260406000206000915090508060000154908060010154908060020160009054906101000a900473ffffffffffffffffffffffffffffffffffffffff1690806003018054610c6190612753565b80601f0160208091040260200160405190810160405280929190818152602001828054610c8d90612753565b8015610cda5780601f10610caf57610100808354040283529160200191610cda565b820191906000526020600020905b815481529060010190602001808311610cbd57829003601f168201915b505050505090806004018054610cef90612753565b80601f0160208091040260200160405190810160405280929190818152602001828054610d1b90612753565b8015610d685780601f10610d3d57610100808354040283529160200191610d68565b820191906000526020600020905b815481529060010190602001808311610d4b57829003601f168201915b505050505090806005018054610d7d90612753565b80601f0160208091040260200160405190810160405280929190818152602001828054610da990612753565b8015610df65780601f10610dcb57610100808354040283529160200191610df6565b820191906000526020600020905b815481529060010190602001808311610dd957829003601f168201915b505050505090806006018054610e0b90612753565b80601f0160208091040260200160405190810160405280929190818152602001828054610e3790612753565b8015610e845780601f10610e5957610100808354040283529160200191610e84565b820191906000526020600020905b815481529060010190602001808311610e6757829003601f168201915b505050505090806007018054610e9990612753565b80601f0160208091040260200160405190810160405280929190818152602001828054610ec590612753565b8015610f125780601f10610ee757610100808354040283529160200191610f12565b820191906000526020600020905b815481529060010190602001808311610ef557829003601f168201915b50505050509080600a0160009054906101000a900460ff16905089565b60006020528060005260406000206000915090508060000154908060010154908060020160009054906101000a900473ffffffffffffffffffffffffffffffffffffffff1690806003018054610f8490612753565b80601f0160208091040260200160405190810160405280929190818152602001828054610fb090612753565b8015610ffd5780601f10610fd257610100808354040283529160200191610ffd565b820191906000526020600020905b815481529060010190602001808311610fe057829003601f168201915b50505050509080600401805461101290612753565b80601f016020809104026020016040519081016040528092919081815260200182805461103e90612753565b801561108b5780601f106110605761010080835404028352916020019161108b565b820191906000526020600020905b81548152906001019060200180831161106e57829003601f168201915b5050505050908060050180546110a090612753565b80601f01602080910402602001604051908101604052809291908181526020018280546110cc90612753565b80156111195780601f106110ee57610100808354040283529160200191611119565b820191906000526020600020905b8154815290600101906020018083116110fc57829003601f168201915b50505050509080600601805461112e90612753565b80601f016020809104026020016040519081016040528092919081815260200182805461115a90612753565b80156111a75780601f1061117c576101008083540402835291602001916111a7565b820191906000526020600020905b81548152906001019060200180831161118a57829003601f168201915b5050505050908060070180546111bc90612753565b80601f01602080910402602001604051908101604052809291908181526020018280546111e890612753565b80156112355780601f1061120a57610100808354040283529160200191611235565b820191906000526020600020905b81548152906001019060200180831161121857829003601f168201915b50505050509080600a0160009054906101000a900460ff16905089565b60045481565b6000806000838152602001908152602001600020905060008160000154036112b5576040517f08c379a00000000000000000000000000000000000000000000000000000000081526004016112ac90612dbd565b60405180910390fd5b6000151581600a0160009054906101000a900460ff1615151461130d576040517f08c379a000000000000000000000000000000000000000000000000000000000815260040161130490612e29565b60405180910390fd5b600181600a0160006101000a81548160ff0219169083151502179055506004600081548092919061133d906126dc565b91905055506040518061016001604052806004548152602001826001015481526020018260020160009054906101000a900473ffffffffffffffffffffffffffffffffffffffff1673ffffffffffffffffffffffffffffffffffffffff1681526020018260030180546113af90612753565b80601f01602080910402602001604051908101604052809291908181526020018280546113db90612753565b80156114285780601f106113fd57610100808354040283529160200191611428565b820191906000526020600020905b81548152906001019060200180831161140b57829003601f168201915b5050505050815260200182600401805461144190612753565b80601f016020809104026020016040519081016040528092919081815260200182805461146d90612753565b80156114ba5780601f1061148f576101008083540402835291602001916114ba565b820191906000526020600020905b81548152906001019060200180831161149d57829003601f168201915b505050505081526020018260050180546114d390612753565b80601f01602080910402602001604051908101604052809291908181526020018280546114ff90612753565b801561154c5780601f106115215761010080835404028352916020019161154c565b820191906000526020600020905b81548152906001019060200180831161152f57829003601f168201915b5050505050815260200182600601805461156590612753565b80601f016020809104026020016040519081016040528092919081815260200182805461159190612753565b80156115de5780601f106115b3576101008083540402835291602001916115de565b820191906000526020600020905b8154815290600101906020018083116115c157829003601f168201915b505050505081526020018260070180546115f790612753565b80601f016020809104026020016040519081016040528092919081815260200182805461162390612753565b80156116705780601f1061164557610100808354040283529160200191611670565b820191906000526020600020905b81548152906001019060200180831161165357829003601f168201915b5050505050815260200182600801805480602002602001604051908101604052809291908181526020016000905b8282101561174a5783829060005260206000200180546116bd90612753565b80601f01602080910402602001604051908101604052809291908181526020018280546116e990612753565b80156117365780601f1061170b57610100808354040283529160200191611736565b820191906000526020600020905b81548152906001019060200180831161171957829003601f168201915b50505050508152602001906001019061169e565b50505050815260200182600901805480602002602001604051908101604052809291908181526020016000905b8282101561182357838290600052602060002001805461179690612753565b80601f01602080910402602001604051908101604052809291908181526020018280546117c290612753565b801561180f5780601f106117e45761010080835404028352916020019161180f565b820191906000526020600020905b8154815290600101906020018083116117f257829003601f168201915b505050505081526020019060010190611777565b50505050815260200160011515815250600160006004548152602001908152602001600020600082015181600001556020820151816001015560408201518160020160006101000a81548173ffffffffffffffffffffffffffffffffffffffff021916908373ffffffffffffffffffffffffffffffffffffffff16021790555060608201518160030190816118b89190612926565b5060808201518160040190816118ce9190612926565b5060a08201518160050190816118e49190612926565b5060c08201518160060190816118fa9190612926565b5060e08201518160070190816119109190612926565b5061010082015181600801908051906020019061192e929190611be5565b5061012082015181600901908051906020019061194c929190611be5565b5061014082015181600a0160006101000a81548160ff021916908315150217905550905050600560009054906101000a900473ffffffffffffffffffffffffffffffffffffffff1673ffffffffffffffffffffffffffffffffffffffff16638351ef558260010154836003018460040185600701866008016040518663ffffffff1660e01b81526004016119e4959493929190613017565b600060405180830381600087803b1580156119fe57600080fd5b505af1158015611a12573d6000803e3d6000fd5b505050507e5bbec22ff8c9e77007219ceeb079357aea8f776d3fb9e4f850004a5ce2433882604051611a44919061255f565b60405180910390a15050565b60026020528060005260406000206000915054906101000a900473ffffffffffffffffffffffffffffffffffffffff1681565b60008060008381526020019081526020016000206000015403611adb576040517f08c379a0000000000000000000000000000000000000000000000000000000008152600401611ad290612dbd565b60405180910390fd5b60008082815260200190815260200160002060008082016000905560018201600090556002820160006101000a81549073ffffffffffffffffffffffffffffffffffffffff0219169055600382016000611b359190611cb0565b600482016000611b459190611cb0565b600582016000611b559190611cb0565b600682016000611b659190611cb0565b600782016000611b759190611cb0565b600882016000611b859190611cf0565b600982016000611b959190611cf0565b600a820160006101000a81549060ff021916905550507f24043f68d6e889a807e1587797526fe9aa169a0b3f6bc4e68816dcffa764f60881604051611bda919061255f565b60405180910390a150565b828054828255906000526020600020908101928215611c2d579160200282015b82811115611c2c578251829081611c1c9190612926565b5091602001919060010190611c05565b5b509050611c3a9190611d11565b5090565b6040518061016001604052806000815260200160008152602001600073ffffffffffffffffffffffffffffffffffffffff168152602001606081526020016060815260200160608152602001606081526020016060815260200160608152602001606081526020016000151581525090565b508054611cbc90612753565b6000825580601f10611cce5750611ced565b601f016020900490600052602060002090810190611cec9190611d35565b5b50565b5080546000825590600052602060002090810190611d0e9190611d11565b50565b5b80821115611d315760008181611d289190611cb0565b50600101611d12565b5090565b5b80821115611d4e576000816000905550600101611d36565b5090565b6000604051905090565b600080fd5b600080fd5b6000819050919050565b611d7981611d66565b8114611d8457600080fd5b50565b600081359050611d9681611d70565b92915050565b600073ffffffffffffffffffffffffffffffffffffffff82169050919050565b6000611dc782611d9c565b9050919050565b611dd781611dbc565b8114611de257600080fd5b50565b600081359050611df481611dce565b92915050565b600080fd5b600080fd5b6000601f19601f8301169050919050565b7f4e487b7100000000000000000000000000000000000000000000000000000000600052604160045260246000fd5b611e4d82611e04565b810181811067ffffffffffffffff82111715611e6c57611e6b611e15565b5b80604052505050565b6000611e7f611d52565b9050611e8b8282611e44565b919050565b600067ffffffffffffffff821115611eab57611eaa611e15565b5b611eb482611e04565b9050602081019050919050565b82818337600083830152505050565b6000611ee3611ede84611e90565b611e75565b905082815260208101848484011115611eff57611efe611dff565b5b611f0a848285611ec1565b509392505050565b600082601f830112611f2757611f26611dfa565b5b8135611f37848260208601611ed0565b91505092915050565b600067ffffffffffffffff821115611f5b57611f5a611e15565b5b602082029050602081019050919050565b600080fd5b6000611f84611f7f84611f40565b611e75565b90508083825260208201905060208402830185811115611fa757611fa6611f6c565b5b835b81811015611fee57803567ffffffffffffffff811115611fcc57611fcb611dfa565b5b808601611fd98982611f12565b85526020850194505050602081019050611fa9565b5050509392505050565b600082601f83011261200d5761200c611dfa565b5b813561201d848260208601611f71565b91505092915050565b60008060008060008060008060006101208a8c03121561204957612048611d5c565b5b60006120578c828d01611d87565b99505060206120688c828d01611de5565b98505060408a013567ffffffffffffffff81111561208957612088611d61565b5b6120958c828d01611f12565b97505060608a013567ffffffffffffffff8111156120b6576120b5611d61565b5b6120c28c828d01611f12565b96505060808a013567ffffffffffffffff8111156120e3576120e2611d61565b5b6120ef8c828d01611f12565b95505060a08a013567ffffffffffffffff8111156121105761210f611d61565b5b61211c8c828d01611f12565b94505060c08a013567ffffffffffffffff81111561213d5761213c611d61565b5b6121498c828d01611f12565b93505060e08a013567ffffffffffffffff81111561216a57612169611d61565b5b6121768c828d01611ff8565b9250506101008a013567ffffffffffffffff81111561219857612197611d61565b5b6121a48c828d01611ff8565b9150509295985092959850929598565b6000819050919050565b60006121d96121d46121cf84611d9c565b6121b4565b611d9c565b9050919050565b60006121eb826121be565b9050919050565b60006121fd826121e0565b9050919050565b61220d816121f2565b82525050565b60006020820190506122286000830184612204565b92915050565b6000806040838503121561224557612244611d5c565b5b600061225385828601611d87565b925050602061226485828601611de5565b9150509250929050565b60006020828403121561228457612283611d5c565b5b600061229284828501611d87565b91505092915050565b6122a481611d66565b82525050565b6122b381611dbc565b82525050565b600081519050919050565b600082825260208201905092915050565b60005b838110156122f35780820151818401526020810190506122d8565b60008484015250505050565b600061230a826122b9565b61231481856122c4565b93506123248185602086016122d5565b61232d81611e04565b840191505092915050565b600081519050919050565b600082825260208201905092915050565b6000819050602082019050919050565b600061237083836122ff565b905092915050565b6000602082019050919050565b600061239082612338565b61239a8185612343565b9350836020820285016123ac85612354565b8060005b858110156123e857848403895281516123c98582612364565b94506123d483612378565b925060208a019950506001810190506123b0565b50829750879550505050505092915050565b60008115159050919050565b61240f816123fa565b82525050565b60006101608301600083015161242e600086018261229b565b506020830151612441602086018261229b565b50604083015161245460408601826122aa565b506060830151848203606086015261246c82826122ff565b9150506080830151848203608086015261248682826122ff565b91505060a083015184820360a08601526124a082826122ff565b91505060c083015184820360c08601526124ba82826122ff565b91505060e083015184820360e08601526124d482826122ff565b9150506101008301518482036101008601526124f08282612385565b91505061012083015184820361012086015261250c8282612385565b915050610140830151612523610140860182612406565b508091505092915050565b600060208201905081810360008301526125488184612415565b905092915050565b61255981611d66565b82525050565b60006020820190506125746000830184612550565b92915050565b61258381611dbc565b82525050565b600082825260208201905092915050565b60006125a5826122b9565b6125af8185612589565b93506125bf8185602086016122d5565b6125c881611e04565b840191505092915050565b6125dc816123fa565b82525050565b6000610120820190506125f8600083018c612550565b612605602083018b612550565b612612604083018a61257a565b8181036060830152612624818961259a565b90508181036080830152612638818861259a565b905081810360a083015261264c818761259a565b905081810360c0830152612660818661259a565b905081810360e0830152612674818561259a565b90506126846101008301846125d3565b9a9950505050505050505050565b60006020820190506126a7600083018461257a565b92915050565b7f4e487b7100000000000000000000000000000000000000000000000000000000600052601160045260246000fd5b60006126e782611d66565b91507fffffffffffffffffffffffffffffffffffffffffffffffffffffffffffffffff8203612719576127186126ad565b5b600182019050919050565b7f4e487b7100000000000000000000000000000000000000000000000000000000600052602260045260246000fd5b6000600282049050600182168061276b57607f821691505b60208210810361277e5761277d612724565b5b50919050565b60008190508160005260206000209050919050565b60006020601f8301049050919050565b600082821b905092915050565b6000600883026127e67fffffffffffffffffffffffffffffffffffffffffffffffffffffffffffffffff826127a9565b6127f086836127a9565b95508019841693508086168417925050509392505050565b600061282361281e61281984611d66565b6121b4565b611d66565b9050919050565b6000819050919050565b61283d83612808565b6128516128498261282a565b8484546127b6565b825550505050565b600090565b612866612859565b612871818484612834565b505050565b5b818110156128955761288a60008261285e565b600181019050612877565b5050565b601f8211156128da576128ab81612784565b6128b484612799565b810160208510156128c3578190505b6128d76128cf85612799565b830182612876565b50505b505050565b600082821c905092915050565b60006128fd600019846008026128df565b1980831691505092915050565b600061291683836128ec565b9150826002028217905092915050565b61292f826122b9565b67ffffffffffffffff81111561294857612947611e15565b5b6129528254612753565b61295d828285612899565b600060209050601f831160018114612990576000841561297e578287015190505b612988858261290a565b8655506129f0565b601f19841661299e86612784565b60005b828110156129c6578489015182556001820191506020850194506020810190506129a1565b868310156129e357848901516129df601f8916826128ec565b8355505b6001600288020188555050505b505050505050565b6000606082019050612a0d6000830186612550565b612a1a6020830185612550565b612a27604083018461257a565b949350505050565b7f5265636f7264206d75737420626520617070726f766564206265666f7265207360008201527f686172696e672e00000000000000000000000000000000000000000000000000602082015250565b6000612a8b602783612589565b9150612a9682612a2f565b604082019050919050565b60006020820190508181036000830152612aba81612a7e565b9050919050565b600081519050612ad081611d70565b92915050565b6000612ae9612ae484611e90565b611e75565b905082815260208101848484011115612b0557612b04611dff565b5b612b108482856122d5565b509392505050565b600082601f830112612b2d57612b2c611dfa565b5b8151612b3d848260208601612ad6565b91505092915050565b6000612b59612b5484611f40565b611e75565b90508083825260208201905060208402830185811115612b7c57612b7b611f6c565b5b835b81811015612bc357805167ffffffffffffffff811115612ba157612ba0611dfa565b5b808601612bae8982612b18565b85526020850194505050602081019050612b7e565b5050509392505050565b600082601f830112612be257612be1611dfa565b5b8151612bf2848260208601612b46565b91505092915050565b60008060008060808587031215612c1557612c14611d5c565b5b6000612c2387828801612ac1565b945050602085015167ffffffffffffffff811115612c4457612c43611d61565b5b612c5087828801612b18565b935050604085015167ffffffffffffffff811115612c7157612c70611d61565b5b612c7d87828801612b18565b925050606085015167ffffffffffffffff811115612c9e57612c9d611d61565b5b612caa87828801612bcd565b91505092959194509250565b6000604082019050612ccb6000830185612550565b612cd8602083018461257a565b9392505050565b7f4e6f7420617574686f72697a656420746f20766965772074686973207265636f60008201527f72642e0000000000000000000000000000000000000000000000000000000000602082015250565b6000612d3b602383612589565b9150612d4682612cdf565b604082019050919050565b60006020820190508181036000830152612d6a81612d2e565b9050919050565b7f5265717565737420646f6573206e6f742065786973742e000000000000000000600082015250565b6000612da7601783612589565b9150612db282612d71565b602082019050919050565b60006020820190508181036000830152612dd681612d9a565b9050919050565b7f5265717565737420616c72656164792061636365707465642e00000000000000600082015250565b6000612e13601983612589565b9150612e1e82612ddd565b602082019050919050565b60006020820190508181036000830152612e4281612e06565b9050919050565b60008154612e5681612753565b612e608186612589565b94506001821660008114612e7b5760018114612e9157612ec4565b60ff198316865281151560200286019350612ec4565b612e9a85612784565b60005b83811015612ebc57815481890152600182019150602081019050612e9d565b808801955050505b50505092915050565b600081549050919050565b600082825260208201905092915050565b60008190508160005260206000209050919050565b60008154612f0b81612753565b612f1581866122c4565b94506001821660008114612f305760018114612f4657612f79565b60ff198316865281151560200286019350612f79565b612f4f85612784565b60005b83811015612f7157815481890152600182019150602081019050612f52565b808801955050505b50505092915050565b6000612f8e8383612efe565b905092915050565b6000600182019050919050565b6000612fae82612ecd565b612fb88185612ed8565b935083602082028501612fca85612ee9565b8060005b8581101561300557848403895281612fe68582612f82565b9450612ff183612f96565b925060208a01995050600181019050612fce565b50829750879550505050505092915050565b600060a08201905061302c6000830188612550565b818103602083015261303e8187612e49565b905081810360408301526130528186612e49565b905081810360608301526130668185612e49565b9050818103608083015261307a8184612fa3565b9050969550505050505056fea26469706673582212201301765e6a7fb7a9b7053975a0876b0b9443c273656c369abf1144dcb07960b464736f6c63430008110033",
  "immutableReferences": {},
  "source": "// SPDX-License-Identifier: MIT\r\npragma solidity ^0.8.0;\r\n\r\nimport \"./DataStandardizationAndInteroperability.sol\"; // Import the standardization contract\r\n\r\ncontract DoctorRecordManagement {\r\n    struct MedicalRecord {\r\n        uint256 id;                       // Auto-generated ID for the record\r\n        uint256 patientId;                // ID of the patient associated with the record\r\n        address doctorAddress;             // Address of the doctor\r\n        string diagnosis;                 // Diagnosis details\r\n        string treatment;                 // Treatment details\r\n        string prescription;              // Prescribed medication\r\n        string notes;                     // Additional notes from the doctor\r\n        string dateOfVisit;               // Date of the visit\r\n        string[] allergies;               // List of allergies\r\n        string[] medicalHistory;          // Patient's medical history\r\n        bool isApproved;                  // Approval status from the patient\r\n    }\r\n\r\n    struct MedicalRecordRequest {\r\n        uint256 requestId;                // ID for the record request\r\n        uint256 patientId;                // ID of the patient for the request\r\n        address doctorAddress;             // Address of the doctor requesting the record\r\n        string diagnosis;                 // Diagnosis details\r\n        string treatment;                 // Treatment details\r\n        string prescription;              // Prescribed medication\r\n        string notes;                     // Additional notes\r\n        string dateOfVisit;               // Date of the visit\r\n        string[] allergies;               // List of allergies\r\n        string[] medicalHistory;          // Patient's medical history\r\n        bool approved;                    // Track if the patient has approved the request\r\n    }\r\n\r\n    mapping(uint256 => MedicalRecordRequest) public medicalRecordRequests; // Mapping of request ID to record requests\r\n    mapping(uint256 => MedicalRecord) public medicalRecords;               // Mapping from record ID to MedicalRecord struct\r\n    mapping(uint256 => address) public recordOwners;                       // Mapping of record ID to the patient's address\r\n    uint256 public requestCount;                                            // Counter for medical record requests\r\n    uint256 public recordCount;                                             // Counter for stored medical records\r\n\r\n    DataStandardizationAndInteroperability public standardizationContract; // Instance of the standardization contract\r\n\r\n    event MedicalRecordRequested(uint256 requestId, uint256 patientId, address doctorAddress);\r\n    event MedicalRecordAccepted(uint256 requestId);\r\n    event MedicalRecordRevoked(uint256 requestId);\r\n    event MedicalRecordShared(uint256 requestId, address recipient);\r\n\r\n    constructor(address _standardizationContractAddress) {\r\n        standardizationContract = DataStandardizationAndInteroperability(_standardizationContractAddress);\r\n    }\r\n\r\n    // Request to store a medical record for a patient\r\n    function storeMedicalRecord(\r\n        uint256 _patientId,\r\n        address _doctorAddress,\r\n        string memory _diagnosis,\r\n        string memory _treatment,\r\n        string memory _prescription,\r\n        string memory _notes,\r\n        string memory _dateOfVisit,\r\n        string[] memory _allergies,\r\n        string[] memory _medicalHistory\r\n    ) public {\r\n        requestCount++;\r\n        medicalRecordRequests[requestCount] = MedicalRecordRequest(\r\n            requestCount,\r\n            _patientId,\r\n            _doctorAddress,\r\n            _diagnosis,\r\n            _treatment,\r\n            _prescription,\r\n            _notes,\r\n            _dateOfVisit,\r\n            _allergies,\r\n            _medicalHistory,\r\n            false // Initially not approved\r\n        );\r\n\r\n        emit MedicalRecordRequested(requestCount, _patientId, _doctorAddress);\r\n    }\r\n\r\n    // Patient accepts the medical record request\r\n    function acceptMedicalRecord(uint256 _requestId) public {\r\n        MedicalRecordRequest storage request = medicalRecordRequests[_requestId];\r\n        require(request.requestId != 0, \"Request does not exist.\");\r\n        require(request.approved == false, \"Request already accepted.\");\r\n\r\n        request.approved = true; // Mark request as approved\r\n        recordCount++; // Increment record count\r\n        medicalRecords[recordCount] = MedicalRecord(\r\n            recordCount,\r\n            request.patientId,\r\n            request.doctorAddress, // Store the doctor's address\r\n            request.diagnosis,\r\n            request.treatment,\r\n            request.prescription,\r\n            request.notes,\r\n            request.dateOfVisit,\r\n            request.allergies,\r\n            request.medicalHistory,\r\n            true // Mark the record as approved\r\n        );\r\n\r\n        // Create a standardized template upon acceptance\r\n        standardizationContract.createStandardizedTemplate(\r\n            request.patientId,\r\n            request.diagnosis,\r\n            request.treatment,\r\n            request.dateOfVisit,\r\n            request.allergies\r\n        );\r\n\r\n        emit MedicalRecordAccepted(_requestId);\r\n    }\r\n\r\n    // Function to share a record with another address in standardized format\r\n    function shareRecord(uint256 _requestId, address _recipient) public {\r\n        require(medicalRecordRequests[_requestId].approved, \"Record must be approved before sharing.\");\r\n        \r\n        // Share the standardized format\r\n        (uint256 standardizedRecordId, , , ) = standardizationContract.getStandardizedRecord(_requestId);\r\n\r\n        emit MedicalRecordShared(standardizedRecordId, _recipient);\r\n        // Logic for sharing the record can be implemented here\r\n    }\r\n\r\n    // Function to revoke access of a medical record request\r\n    function revokeAccess(uint256 _requestId) public {\r\n        require(medicalRecordRequests[_requestId].requestId != 0, \"Request does not exist.\");\r\n        \r\n        delete medicalRecordRequests[_requestId]; // Remove the request from the mapping\r\n\r\n        emit MedicalRecordRevoked(_requestId);\r\n    }\r\n\r\n    // Function to view a full medical record (only for patient and doctor)\r\n    function viewMedicalRecord(uint256 _recordId) public view returns (MedicalRecord memory) {\r\n        require(msg.sender == recordOwners[_recordId] || msg.sender == medicalRecords[_recordId].doctorAddress, \"Not authorized to view this record.\");\r\n        \r\n        return medicalRecords[_recordId]; // Return the full record\r\n    }\r\n\r\n    // Additional functions to view requests or records can be added as needed\r\n}\r\n",
  "sourcePath": "C:\\Users\\HP\\project folders\\HospitalManagementBlockchain\\contracts\\DoctorRecordManagement.sol",
  "compiler": {
    "name": "solc",
    "version": "0.8.17+commit.8df45f5f.Emscripten.clang"
  },
  "schemaVersion": "3.4.16",
  "updatedAt": "2024-10-22T09:55:45.429Z",
  "devdoc": {
    "kind": "dev",
    "methods": {},
    "version": 1
  },
  "userdoc": {
    "kind": "user",
    "methods": {},
    "version": 1
  }
}