{
  "contractName": "HealthcareProfessionalManagement",
  "abi": [
    {
      "inputs": [
        {
          "internalType": "address",
          "name": "_hospitalContractAddress",
          "type": "address"
        }
      ],
      "stateMutability": "nonpayable",
      "type": "constructor"
    },
    {
      "anonymous": false,
      "inputs": [
        {
          "indexed": false,
          "internalType": "uint256",
          "name": "professionalId",
          "type": "uint256"
        },
        {
          "indexed": false,
          "internalType": "string",
          "name": "gocDoctorId",
          "type": "string"
        }
      ],
      "name": "LoginSuccess",
      "type": "event"
    },
    {
      "anonymous": false,
      "inputs": [
        {
          "indexed": false,
          "internalType": "uint256",
          "name": "professionalId",
          "type": "uint256"
        }
      ],
      "name": "ProfessionalApproved",
      "type": "event"
    },
    {
      "anonymous": false,
      "inputs": [
        {
          "indexed": false,
          "internalType": "uint256",
          "name": "professionalId",
          "type": "uint256"
        },
        {
          "indexed": false,
          "internalType": "string",
          "name": "name",
          "type": "string"
        },
        {
          "indexed": false,
          "internalType": "uint256",
          "name": "hospitalId",
          "type": "uint256"
        },
        {
          "indexed": false,
          "internalType": "string",
          "name": "gocDoctorId",
          "type": "string"
        }
      ],
      "name": "ProfessionalRegistered",
      "type": "event"
    },
    {
      "inputs": [
        {
          "internalType": "uint256",
          "name": "",
          "type": "uint256"
        }
      ],
      "name": "healthcareProfessionals",
      "outputs": [
        {
          "internalType": "uint256",
          "name": "professionalId",
          "type": "uint256"
        },
        {
          "internalType": "string",
          "name": "name",
          "type": "string"
        },
        {
          "internalType": "uint256",
          "name": "hospitalId",
          "type": "uint256"
        },
        {
          "internalType": "string",
          "name": "gocDoctorId",
          "type": "string"
        },
        {
          "internalType": "string",
          "name": "password",
          "type": "string"
        },
        {
          "internalType": "bool",
          "name": "isApproved",
          "type": "bool"
        }
      ],
      "stateMutability": "view",
      "type": "function"
    },
    {
      "inputs": [],
      "name": "hospitalManagement",
      "outputs": [
        {
          "internalType": "contract HospitalManagement",
          "name": "",
          "type": "address"
        }
      ],
      "stateMutability": "view",
      "type": "function"
    },
    {
      "inputs": [],
      "name": "professionalCount",
      "outputs": [
        {
          "internalType": "uint256",
          "name": "",
          "type": "uint256"
        }
      ],
      "stateMutability": "view",
      "type": "function"
    },
    {
      "inputs": [
        {
          "internalType": "string",
          "name": "_name",
          "type": "string"
        },
        {
          "internalType": "uint256",
          "name": "_hospitalId",
          "type": "uint256"
        },
        {
          "internalType": "string",
          "name": "_gocDoctorId",
          "type": "string"
        },
        {
          "internalType": "string",
          "name": "_password",
          "type": "string"
        }
      ],
      "name": "registerProfessional",
      "outputs": [],
      "stateMutability": "nonpayable",
      "type": "function"
    },
    {
      "inputs": [
        {
          "internalType": "uint256",
          "name": "_professionalId",
          "type": "uint256"
        }
      ],
      "name": "approveProfessional",
      "outputs": [],
      "stateMutability": "nonpayable",
      "type": "function"
    },
    {
      "inputs": [
        {
          "internalType": "uint256",
          "name": "_professionalId",
          "type": "uint256"
        }
      ],
      "name": "getProfessional",
      "outputs": [
        {
          "components": [
            {
              "internalType": "uint256",
              "name": "professionalId",
              "type": "uint256"
            },
            {
              "internalType": "string",
              "name": "name",
              "type": "string"
            },
            {
              "internalType": "uint256",
              "name": "hospitalId",
              "type": "uint256"
            },
            {
              "internalType": "string",
              "name": "gocDoctorId",
              "type": "string"
            },
            {
              "internalType": "string",
              "name": "password",
              "type": "string"
            },
            {
              "internalType": "bool",
              "name": "isApproved",
              "type": "bool"
            }
          ],
          "internalType": "struct HealthcareProfessionalManagement.HealthcareProfessional",
          "name": "",
          "type": "tuple"
        }
      ],
      "stateMutability": "view",
      "type": "function"
    },
    {
      "inputs": [
        {
          "internalType": "string",
          "name": "_gocDoctorId",
          "type": "string"
        },
        {
          "internalType": "string",
          "name": "_password",
          "type": "string"
        }
      ],
      "name": "loginProfessional",
      "outputs": [
        {
          "internalType": "uint256",
          "name": "",
          "type": "uint256"
        }
      ],
      "stateMutability": "nonpayable",
      "type": "function"
    }
  ],
  "bytecode": "0x60806040523480156200001157600080fd5b5060405162001b6d38038062001b6d8339818101604052810190620000379190620000f0565b806000806101000a81548173ffffffffffffffffffffffffffffffffffffffff021916908373ffffffffffffffffffffffffffffffffffffffff16021790555060006002819055505062000122565b600080fd5b600073ffffffffffffffffffffffffffffffffffffffff82169050919050565b6000620000b8826200008b565b9050919050565b620000ca81620000ab565b8114620000d657600080fd5b50565b600081519050620000ea81620000bf565b92915050565b60006020828403121562000109576200010862000086565b5b60006200011984828501620000d9565b91505092915050565b611a3b80620001326000396000f3fe608060405234801561001057600080fd5b506004361061007d5760003560e01c806398e2dd2d1161005b57806398e2dd2d146100ec578063b0fd743514610121578063e00be7ae1461013d578063f39266c61461015b5761007d565b80633c0a67631461008257806363ee480f146100b257806384790be0146100d0575b600080fd5b61009c60048036038101906100979190610bd5565b61018b565b6040516100a99190610d53565b60405180910390f35b6100ba6103f6565b6040516100c79190610df4565b60405180910390f35b6100ea60048036038101906100e59190610bd5565b61041a565b005b61010660048036038101906101019190610bd5565b6105c0565b60405161011896959493929190610e77565b60405180910390f35b61013b60048036038101906101369190611022565b6107a1565b005b6101456109a4565b60405161015291906110dd565b60405180910390f35b610175600480360381019061017091906110f8565b6109aa565b60405161018291906110dd565b60405180910390f35b610193610b53565b60006001600084815260200190815260200160002060000154036101ec576040517f08c379a00000000000000000000000000000000000000000000000000000000081526004016101e3906111e2565b60405180910390fd5b600160008381526020019081526020016000206040518060c00160405290816000820154815260200160018201805461022490611231565b80601f016020809104026020016040519081016040528092919081815260200182805461025090611231565b801561029d5780601f106102725761010080835404028352916020019161029d565b820191906000526020600020905b81548152906001019060200180831161028057829003601f168201915b50505050508152602001600282015481526020016003820180546102c090611231565b80601f01602080910402602001604051908101604052809291908181526020018280546102ec90611231565b80156103395780601f1061030e57610100808354040283529160200191610339565b820191906000526020600020905b81548152906001019060200180831161031c57829003601f168201915b5050505050815260200160048201805461035290611231565b80601f016020809104026020016040519081016040528092919081815260200182805461037e90611231565b80156103cb5780601f106103a0576101008083540402835291602001916103cb565b820191906000526020600020905b8154815290600101906020018083116103ae57829003601f168201915b505050505081526020016005820160009054906101000a900460ff1615151515815250509050919050565b60008054906101000a900473ffffffffffffffffffffffffffffffffffffffff1681565b60006001600083815260200190815260200160002090506000816000015403610478576040517f08c379a000000000000000000000000000000000000000000000000000000000815260040161046f906111e2565b60405180910390fd5b60008160020154905060008060009054906101000a900473ffffffffffffffffffffffffffffffffffffffff1673ffffffffffffffffffffffffffffffffffffffff1663a7470f9a836040518263ffffffff1660e01b81526004016104dd91906110dd565b600060405180830381865afa1580156104fa573d6000803e3d6000fd5b505050506040513d6000823e3d601f19601f82011682018060405250810190610523919061141d565b6000015103610567576040517f08c379a000000000000000000000000000000000000000000000000000000000815260040161055e906114b2565b60405180910390fd5b60018260050160006101000a81548160ff0219169083151502179055507ffcab3857e75544565c728e37264338f4c3db3e7b3d361e0eb2e6ee356649f5a8836040516105b391906110dd565b60405180910390a1505050565b60016020528060005260406000206000915090508060000154908060010180546105e990611231565b80601f016020809104026020016040519081016040528092919081815260200182805461061590611231565b80156106625780601f1061063757610100808354040283529160200191610662565b820191906000526020600020905b81548152906001019060200180831161064557829003601f168201915b50505050509080600201549080600301805461067d90611231565b80601f01602080910402602001604051908101604052809291908181526020018280546106a990611231565b80156106f65780601f106106cb576101008083540402835291602001916106f6565b820191906000526020600020905b8154815290600101906020018083116106d957829003601f168201915b50505050509080600401805461070b90611231565b80601f016020809104026020016040519081016040528092919081815260200182805461073790611231565b80156107845780601f1061075957610100808354040283529160200191610784565b820191906000526020600020905b81548152906001019060200180831161076757829003601f168201915b5050505050908060050160009054906101000a900460ff16905086565b60008060009054906101000a900473ffffffffffffffffffffffffffffffffffffffff1673ffffffffffffffffffffffffffffffffffffffff1663a7470f9a856040518263ffffffff1660e01b81526004016107fd91906110dd565b600060405180830381865afa15801561081a573d6000803e3d6000fd5b505050506040513d6000823e3d601f19601f82011682018060405250810190610843919061141d565b6000015103610887576040517f08c379a000000000000000000000000000000000000000000000000000000000815260040161087e9061151e565b60405180910390fd5b6002600081548092919061089a9061156d565b91905055506040518060c001604052806002548152602001858152602001848152602001838152602001828152602001600015158152506001600060025481526020019081526020016000206000820151816000015560208201518160010190816109059190611757565b506040820151816002015560608201518160030190816109259190611757565b50608082015181600401908161093b9190611757565b5060a08201518160050160006101000a81548160ff0219169083151502179055509050507f6d5918e7a9a942533b31a7e80487a5f309c5e74ba67821696ea7ee34e58f97026002548585856040516109969493929190611829565b60405180910390a150505050565b60025481565b600080600190505b6002548111610b1157836040516020016109cc91906118b8565b6040516020818303038152906040528051906020012060016000838152602001908152602001600020600301604051602001610a089190611952565b60405160208183030381529060405280519060200120148015610a8b575082604051602001610a3791906118b8565b6040516020818303038152906040528051906020012060016000838152602001908152602001600020600401604051602001610a739190611952565b60405160208183030381529060405280519060200120145b15610afe577fe2a54dc99a305ff4ff92d023a6c763fd34e60ff4e5a8ee0226481d25d49189d0600160008381526020019081526020016000206000015485604051610ad7929190611969565b60405180910390a16001600082815260200190815260200160002060000154915050610b4d565b8080610b099061156d565b9150506109b2565b506040517f08c379a0000000000000000000000000000000000000000000000000000000008152600401610b44906119e5565b60405180910390fd5b92915050565b6040518060c0016040528060008152602001606081526020016000815260200160608152602001606081526020016000151581525090565b6000604051905090565b600080fd5b600080fd5b6000819050919050565b610bb281610b9f565b8114610bbd57600080fd5b50565b600081359050610bcf81610ba9565b92915050565b600060208284031215610beb57610bea610b95565b5b6000610bf984828501610bc0565b91505092915050565b610c0b81610b9f565b82525050565b600081519050919050565b600082825260208201905092915050565b60005b83811015610c4b578082015181840152602081019050610c30565b60008484015250505050565b6000601f19601f8301169050919050565b6000610c7382610c11565b610c7d8185610c1c565b9350610c8d818560208601610c2d565b610c9681610c57565b840191505092915050565b60008115159050919050565b610cb681610ca1565b82525050565b600060c083016000830151610cd46000860182610c02565b5060208301518482036020860152610cec8282610c68565b9150506040830151610d016040860182610c02565b5060608301518482036060860152610d198282610c68565b91505060808301518482036080860152610d338282610c68565b91505060a0830151610d4860a0860182610cad565b508091505092915050565b60006020820190508181036000830152610d6d8184610cbc565b905092915050565b600073ffffffffffffffffffffffffffffffffffffffff82169050919050565b6000819050919050565b6000610dba610db5610db084610d75565b610d95565b610d75565b9050919050565b6000610dcc82610d9f565b9050919050565b6000610dde82610dc1565b9050919050565b610dee81610dd3565b82525050565b6000602082019050610e096000830184610de5565b92915050565b610e1881610b9f565b82525050565b600082825260208201905092915050565b6000610e3a82610c11565b610e448185610e1e565b9350610e54818560208601610c2d565b610e5d81610c57565b840191505092915050565b610e7181610ca1565b82525050565b600060c082019050610e8c6000830189610e0f565b8181036020830152610e9e8188610e2f565b9050610ead6040830187610e0f565b8181036060830152610ebf8186610e2f565b90508181036080830152610ed38185610e2f565b9050610ee260a0830184610e68565b979650505050505050565b600080fd5b600080fd5b7f4e487b7100000000000000000000000000000000000000000000000000000000600052604160045260246000fd5b610f2f82610c57565b810181811067ffffffffffffffff82111715610f4e57610f4d610ef7565b5b80604052505050565b6000610f61610b8b565b9050610f6d8282610f26565b919050565b600067ffffffffffffffff821115610f8d57610f8c610ef7565b5b610f9682610c57565b9050602081019050919050565b82818337600083830152505050565b6000610fc5610fc084610f72565b610f57565b905082815260208101848484011115610fe157610fe0610ef2565b5b610fec848285610fa3565b509392505050565b600082601f83011261100957611008610eed565b5b8135611019848260208601610fb2565b91505092915050565b6000806000806080858703121561103c5761103b610b95565b5b600085013567ffffffffffffffff81111561105a57611059610b9a565b5b61106687828801610ff4565b945050602061107787828801610bc0565b935050604085013567ffffffffffffffff81111561109857611097610b9a565b5b6110a487828801610ff4565b925050606085013567ffffffffffffffff8111156110c5576110c4610b9a565b5b6110d187828801610ff4565b91505092959194509250565b60006020820190506110f26000830184610e0f565b92915050565b6000806040838503121561110f5761110e610b95565b5b600083013567ffffffffffffffff81111561112d5761112c610b9a565b5b61113985828601610ff4565b925050602083013567ffffffffffffffff81111561115a57611159610b9a565b5b61116685828601610ff4565b9150509250929050565b7f4865616c7468636172652070726f66657373696f6e616c20646f6573206e6f7460008201527f2065786973742e00000000000000000000000000000000000000000000000000602082015250565b60006111cc602783610e1e565b91506111d782611170565b604082019050919050565b600060208201905081810360008301526111fb816111bf565b9050919050565b7f4e487b7100000000000000000000000000000000000000000000000000000000600052602260045260246000fd5b6000600282049050600182168061124957607f821691505b60208210810361125c5761125b611202565b5b50919050565b600080fd5b600080fd5b60008151905061127b81610ba9565b92915050565b600061129461128f84610f72565b610f57565b9050828152602081018484840111156112b0576112af610ef2565b5b6112bb848285610c2d565b509392505050565b600082601f8301126112d8576112d7610eed565b5b81516112e8848260208601611281565b91505092915050565b600060c0828403121561130757611306611262565b5b61131160c0610f57565b905060006113218482850161126c565b600083015250602082015167ffffffffffffffff81111561134557611344611267565b5b611351848285016112c3565b602083015250604082015167ffffffffffffffff81111561137557611374611267565b5b611381848285016112c3565b604083015250606082015167ffffffffffffffff8111156113a5576113a4611267565b5b6113b1848285016112c3565b606083015250608082015167ffffffffffffffff8111156113d5576113d4611267565b5b6113e1848285016112c3565b60808301525060a082015167ffffffffffffffff81111561140557611404611267565b5b611411848285016112c3565b60a08301525092915050565b60006020828403121561143357611432610b95565b5b600082015167ffffffffffffffff81111561145157611450610b9a565b5b61145d848285016112f1565b91505092915050565b7f496e76616c696420686f73706974616c2e000000000000000000000000000000600082015250565b600061149c601183610e1e565b91506114a782611466565b602082019050919050565b600060208201905081810360008301526114cb8161148f565b9050919050565b7f486f73706974616c20646f6573206e6f742065786973742e0000000000000000600082015250565b6000611508601883610e1e565b9150611513826114d2565b602082019050919050565b60006020820190508181036000830152611537816114fb565b9050919050565b7f4e487b7100000000000000000000000000000000000000000000000000000000600052601160045260246000fd5b600061157882610b9f565b91507fffffffffffffffffffffffffffffffffffffffffffffffffffffffffffffffff82036115aa576115a961153e565b5b600182019050919050565b60008190508160005260206000209050919050565b60006020601f8301049050919050565b600082821b905092915050565b6000600883026116177fffffffffffffffffffffffffffffffffffffffffffffffffffffffffffffffff826115da565b61162186836115da565b95508019841693508086168417925050509392505050565b600061165461164f61164a84610b9f565b610d95565b610b9f565b9050919050565b6000819050919050565b61166e83611639565b61168261167a8261165b565b8484546115e7565b825550505050565b600090565b61169761168a565b6116a2818484611665565b505050565b5b818110156116c6576116bb60008261168f565b6001810190506116a8565b5050565b601f82111561170b576116dc816115b5565b6116e5846115ca565b810160208510156116f4578190505b611708611700856115ca565b8301826116a7565b50505b505050565b600082821c905092915050565b600061172e60001984600802611710565b1980831691505092915050565b6000611747838361171d565b9150826002028217905092915050565b61176082610c11565b67ffffffffffffffff81111561177957611778610ef7565b5b6117838254611231565b61178e8282856116ca565b600060209050601f8311600181146117c157600084156117af578287015190505b6117b9858261173b565b865550611821565b601f1984166117cf866115b5565b60005b828110156117f7578489015182556001820191506020850194506020810190506117d2565b868310156118145784890151611810601f89168261171d565b8355505b6001600288020188555050505b505050505050565b600060808201905061183e6000830187610e0f565b81810360208301526118508186610e2f565b905061185f6040830185610e0f565b81810360608301526118718184610e2f565b905095945050505050565b600081905092915050565b600061189282610c11565b61189c818561187c565b93506118ac818560208601610c2d565b80840191505092915050565b60006118c48284611887565b915081905092915050565b600081546118dc81611231565b6118e6818661187c565b94506001821660008114611901576001811461191657611949565b60ff1983168652811515820286019350611949565b61191f856115b5565b60005b8381101561194157815481890152600182019150602081019050611922565b838801955050505b50505092915050565b600061195e82846118cf565b915081905092915050565b600060408201905061197e6000830185610e0f565b81810360208301526119908184610e2f565b90509392505050565b7f496e76616c69642063726564656e7469616c732e000000000000000000000000600082015250565b60006119cf601483610e1e565b91506119da82611999565b602082019050919050565b600060208201905081810360008301526119fe816119c2565b905091905056fea2646970667358221220076944945dbf44a971fce32858ec88fe1b8da838a4d5ee863d0875e4d617507664736f6c63430008110033",
  "immutableReferences": {},
  "source": "// SPDX-License-Identifier: MIT\r\npragma solidity ^0.8.0;\r\n\r\nimport \"./HospitalManagement.sol\";\r\n\r\ncontract HealthcareProfessionalManagement {\r\n    struct HealthcareProfessional {\r\n        uint256 professionalId;    // Auto-generated ID for the healthcare professional\r\n        string name;               // Name of the healthcare professional\r\n        uint256 hospitalId;        // References hospitalId from HospitalManagement contract\r\n        string gocDoctorId;        // The ID given by the government\r\n        string password;           // Password for the healthcare professional\r\n        bool isApproved;           // Tracks if the hospital has approved the registration\r\n    }\r\n\r\n    HospitalManagement public hospitalManagement; // Reference to the hospital management contract\r\n    mapping(uint256 => HealthcareProfessional) public healthcareProfessionals; // Mapping from professional ID to HealthcareProfessional\r\n    uint256 public professionalCount; // Counter for healthcare professionals\r\n\r\n    event ProfessionalRegistered(uint256 professionalId, string name, uint256 hospitalId, string gocDoctorId);\r\n    event ProfessionalApproved(uint256 professionalId);\r\n    event LoginSuccess(uint256 professionalId, string gocDoctorId); // Correctly declare event\r\n\r\n    constructor(address _hospitalContractAddress) {\r\n        hospitalManagement = HospitalManagement(_hospitalContractAddress); // Link to the hospital contract\r\n        professionalCount = 0; // Initialize count\r\n    }\r\n\r\n    // Function to register healthcare professional\r\n    function registerProfessional(\r\n        string memory _name,\r\n        uint256 _hospitalId,\r\n        string memory _gocDoctorId,\r\n        string memory _password // New parameter for password\r\n    ) public {\r\n        require(hospitalManagement.getHospital(_hospitalId).hospitalId != 0, \"Hospital does not exist.\"); // Ensure valid hospitalId\r\n        professionalCount++; // Increment the count for a new professional\r\n        healthcareProfessionals[professionalCount] = HealthcareProfessional(\r\n            professionalCount,\r\n            _name,\r\n            _hospitalId,\r\n            _gocDoctorId,\r\n            _password, // Store the password\r\n            false // Default to not approved\r\n        );\r\n        emit ProfessionalRegistered(professionalCount, _name, _hospitalId, _gocDoctorId); // Emit registration event\r\n    }\r\n\r\n    // Hospital approves the healthcare professional registration\r\n    function approveProfessional(uint256 _professionalId) public {\r\n        HealthcareProfessional storage professional = healthcareProfessionals[_professionalId];\r\n        require(professional.professionalId != 0, \"Healthcare professional does not exist.\"); // Ensure professional exists\r\n        uint256 hospitalId = professional.hospitalId;\r\n        require(hospitalManagement.getHospital(hospitalId).hospitalId != 0, \"Invalid hospital.\"); // Check if hospital exists\r\n        professional.isApproved = true; // Approve the professional\r\n        emit ProfessionalApproved(_professionalId); // Emit approval event\r\n    }\r\n\r\n    // Function to get professional details\r\n    function getProfessional(uint256 _professionalId) public view returns (HealthcareProfessional memory) {\r\n        require(healthcareProfessionals[_professionalId].professionalId != 0, \"Healthcare professional does not exist.\");\r\n        return healthcareProfessionals[_professionalId]; // Return the professional details\r\n    }\r\n\r\n    // Login function using gocDoctorId and password without view modifier\r\n    function loginProfessional(string memory _gocDoctorId, string memory _password) public returns (uint256) {\r\n        for (uint256 i = 1; i <= professionalCount; i++) {\r\n            if (\r\n                keccak256(abi.encodePacked(healthcareProfessionals[i].gocDoctorId)) == keccak256(abi.encodePacked(_gocDoctorId)) &&\r\n                keccak256(abi.encodePacked(healthcareProfessionals[i].password)) == keccak256(abi.encodePacked(_password))\r\n            ) {\r\n                // Emit successful login event\r\n                emit LoginSuccess(healthcareProfessionals[i].professionalId, _gocDoctorId);\r\n                return healthcareProfessionals[i].professionalId;\r\n            }\r\n        }\r\n        revert(\"Invalid credentials.\"); // Revert if login fails\r\n    }\r\n}\r\n",
  "sourcePath": "C:\\Users\\HP\\HospitalManagementBlockchain\\contracts\\HealthcareprofessionaManagement.sol",
  "compiler": {
    "name": "solc",
    "version": "0.8.17+commit.8df45f5f.Emscripten.clang"
  },
  "schemaVersion": "3.4.16",
  "updatedAt": "2024-10-10T19:16:31.258Z",
  "devdoc": {
    "kind": "dev",
    "methods": {},
    "version": 1
  },
  "userdoc": {
    "kind": "user",
    "methods": {},
    "version": 1
  }
}