{
  "contractName": "HospitalAndHealthcareProfessionalManagement",
  "abi": [
    {
      "inputs": [],
      "stateMutability": "nonpayable",
      "type": "constructor"
    },
    {
      "anonymous": false,
      "inputs": [
        {
          "indexed": false,
          "internalType": "uint256",
          "name": "id",
          "type": "uint256"
        },
        {
          "indexed": false,
          "internalType": "string",
          "name": "name",
          "type": "string"
        },
        {
          "indexed": false,
          "internalType": "string",
          "name": "specialty",
          "type": "string"
        },
        {
          "indexed": false,
          "internalType": "uint256",
          "name": "hospitalId",
          "type": "uint256"
        }
      ],
      "name": "HealthcareProfessionalRegistered",
      "type": "event"
    },
    {
      "anonymous": false,
      "inputs": [
        {
          "indexed": false,
          "internalType": "uint256",
          "name": "id",
          "type": "uint256"
        },
        {
          "indexed": false,
          "internalType": "string",
          "name": "name",
          "type": "string"
        },
        {
          "indexed": false,
          "internalType": "string",
          "name": "location",
          "type": "string"
        }
      ],
      "name": "HospitalRegistered",
      "type": "event"
    },
    {
      "inputs": [],
      "name": "healthcareProfessionalCount",
      "outputs": [
        {
          "internalType": "uint256",
          "name": "",
          "type": "uint256"
        }
      ],
      "stateMutability": "view",
      "type": "function"
    },
    {
      "inputs": [
        {
          "internalType": "uint256",
          "name": "",
          "type": "uint256"
        }
      ],
      "name": "healthcareProfessionals",
      "outputs": [
        {
          "internalType": "uint256",
          "name": "id",
          "type": "uint256"
        },
        {
          "internalType": "string",
          "name": "name",
          "type": "string"
        },
        {
          "internalType": "string",
          "name": "specialty",
          "type": "string"
        },
        {
          "internalType": "uint256",
          "name": "hospitalId",
          "type": "uint256"
        }
      ],
      "stateMutability": "view",
      "type": "function"
    },
    {
      "inputs": [],
      "name": "hospitalCount",
      "outputs": [
        {
          "internalType": "uint256",
          "name": "",
          "type": "uint256"
        }
      ],
      "stateMutability": "view",
      "type": "function"
    },
    {
      "inputs": [
        {
          "internalType": "uint256",
          "name": "",
          "type": "uint256"
        }
      ],
      "name": "hospitals",
      "outputs": [
        {
          "internalType": "uint256",
          "name": "id",
          "type": "uint256"
        },
        {
          "internalType": "string",
          "name": "name",
          "type": "string"
        },
        {
          "internalType": "string",
          "name": "location",
          "type": "string"
        }
      ],
      "stateMutability": "view",
      "type": "function"
    },
    {
      "inputs": [
        {
          "internalType": "string",
          "name": "_name",
          "type": "string"
        },
        {
          "internalType": "string",
          "name": "_location",
          "type": "string"
        }
      ],
      "name": "registerHospital",
      "outputs": [],
      "stateMutability": "nonpayable",
      "type": "function"
    },
    {
      "inputs": [
        {
          "internalType": "string",
          "name": "_name",
          "type": "string"
        },
        {
          "internalType": "string",
          "name": "_specialty",
          "type": "string"
        },
        {
          "internalType": "uint256",
          "name": "_hospitalId",
          "type": "uint256"
        }
      ],
      "name": "registerHealthcareProfessional",
      "outputs": [],
      "stateMutability": "nonpayable",
      "type": "function"
    },
    {
      "inputs": [
        {
          "internalType": "uint256",
          "name": "_hospitalId",
          "type": "uint256"
        }
      ],
      "name": "getHospital",
      "outputs": [
        {
          "components": [
            {
              "internalType": "uint256",
              "name": "id",
              "type": "uint256"
            },
            {
              "internalType": "string",
              "name": "name",
              "type": "string"
            },
            {
              "internalType": "string",
              "name": "location",
              "type": "string"
            }
          ],
          "internalType": "struct HospitalAndHealthcareProfessionalManagement.Hospital",
          "name": "",
          "type": "tuple"
        }
      ],
      "stateMutability": "view",
      "type": "function"
    },
    {
      "inputs": [
        {
          "internalType": "uint256",
          "name": "_professionalId",
          "type": "uint256"
        }
      ],
      "name": "getHealthcareProfessional",
      "outputs": [
        {
          "components": [
            {
              "internalType": "uint256",
              "name": "id",
              "type": "uint256"
            },
            {
              "internalType": "string",
              "name": "name",
              "type": "string"
            },
            {
              "internalType": "string",
              "name": "specialty",
              "type": "string"
            },
            {
              "internalType": "uint256",
              "name": "hospitalId",
              "type": "uint256"
            }
          ],
          "internalType": "struct HospitalAndHealthcareProfessionalManagement.HealthcareProfessional",
          "name": "",
          "type": "tuple"
        }
      ],
      "stateMutability": "view",
      "type": "function"
    }
  ],
  "bytecode": "0x608060405234801561001057600080fd5b5060006002819055506000600381905550611295806100306000396000f3fe608060405234801561001057600080fd5b50600436106100885760003560e01c806398e2dd2d1161005b57806398e2dd2d14610115578063a315ea2114610148578063a7470f9a14610178578063a7a1a998146101a857610088565b80632fdfdf791461008d578063350dadb7146100a957806381dc6fd2146100c75780638cfdbcea146100f9575b600080fd5b6100a760048036038101906100a29190610a99565b6101c6565b005b6100b1610289565b6040516100be9190610b2a565b60405180910390f35b6100e160048036038101906100dc9190610b71565b61028f565b6040516100f093929190610c1d565b60405180910390f35b610113600480360381019061010e9190610c62565b6103c9565b005b61012f600480360381019061012a9190610b71565b6104f1565b60405161013f9493929190610ced565b60405180910390f35b610162600480360381019061015d9190610b71565b610631565b60405161016f9190610e03565b60405180910390f35b610192600480360381019061018d9190610b71565b610796565b60405161019f9190610e7c565b60405180910390f35b6101b06108f0565b6040516101bd9190610b2a565b60405180910390f35b600260008154809291906101d990610ecd565b91905055506040518060600160405280600254815260200183815260200182815250600080600254815260200190815260200160002060008201518160000155602082015181600101908161022e9190611121565b5060408201518160020190816102449190611121565b509050507f5b679144d6f342f08afb79453d19ae27b403c250003ebbf5167ccbc889ac6e7f600254838360405161027d93929190610c1d565b60405180910390a15050565b60025481565b60006020528060005260406000206000915090508060000154908060010180546102b890610f44565b80601f01602080910402602001604051908101604052809291908181526020018280546102e490610f44565b80156103315780601f1061030657610100808354040283529160200191610331565b820191906000526020600020905b81548152906001019060200180831161031457829003601f168201915b50505050509080600201805461034690610f44565b80601f016020809104026020016040519081016040528092919081815260200182805461037290610f44565b80156103bf5780601f10610394576101008083540402835291602001916103bf565b820191906000526020600020905b8154815290600101906020018083116103a257829003601f168201915b5050505050905083565b6000811180156103db57506002548111155b61041a576040517f08c379a00000000000000000000000000000000000000000000000000000000081526004016104119061123f565b60405180910390fd5b6003600081548092919061042d90610ecd565b919050555060405180608001604052806003548152602001848152602001838152602001828152506001600060035481526020019081526020016000206000820151816000015560208201518160010190816104899190611121565b50604082015181600201908161049f9190611121565b50606082015181600301559050507f745b368de5e8be77f8a43a961b58d64c6e9e0c7298706825d56daab8d3b604a16003548484846040516104e49493929190610ced565b60405180910390a1505050565b600160205280600052604060002060009150905080600001549080600101805461051a90610f44565b80601f016020809104026020016040519081016040528092919081815260200182805461054690610f44565b80156105935780601f1061056857610100808354040283529160200191610593565b820191906000526020600020905b81548152906001019060200180831161057657829003601f168201915b5050505050908060020180546105a890610f44565b80601f01602080910402602001604051908101604052809291908181526020018280546105d490610f44565b80156106215780601f106105f657610100808354040283529160200191610621565b820191906000526020600020905b81548152906001019060200180831161060457829003601f168201915b5050505050908060030154905084565b6106396108f6565b600160008381526020019081526020016000206040518060800160405290816000820154815260200160018201805461067190610f44565b80601f016020809104026020016040519081016040528092919081815260200182805461069d90610f44565b80156106ea5780601f106106bf576101008083540402835291602001916106ea565b820191906000526020600020905b8154815290600101906020018083116106cd57829003601f168201915b5050505050815260200160028201805461070390610f44565b80601f016020809104026020016040519081016040528092919081815260200182805461072f90610f44565b801561077c5780601f106107515761010080835404028352916020019161077c565b820191906000526020600020905b81548152906001019060200180831161075f57829003601f168201915b505050505081526020016003820154815250509050919050565b61079e61091e565b600080838152602001908152602001600020604051806060016040529081600082015481526020016001820180546107d590610f44565b80601f016020809104026020016040519081016040528092919081815260200182805461080190610f44565b801561084e5780601f106108235761010080835404028352916020019161084e565b820191906000526020600020905b81548152906001019060200180831161083157829003601f168201915b5050505050815260200160028201805461086790610f44565b80601f016020809104026020016040519081016040528092919081815260200182805461089390610f44565b80156108e05780601f106108b5576101008083540402835291602001916108e0565b820191906000526020600020905b8154815290600101906020018083116108c357829003601f168201915b5050505050815250509050919050565b60035481565b6040518060800160405280600081526020016060815260200160608152602001600081525090565b60405180606001604052806000815260200160608152602001606081525090565b6000604051905090565b600080fd5b600080fd5b600080fd5b600080fd5b6000601f19601f8301169050919050565b7f4e487b7100000000000000000000000000000000000000000000000000000000600052604160045260246000fd5b6109a68261095d565b810181811067ffffffffffffffff821117156109c5576109c461096e565b5b80604052505050565b60006109d861093f565b90506109e4828261099d565b919050565b600067ffffffffffffffff821115610a0457610a0361096e565b5b610a0d8261095d565b9050602081019050919050565b82818337600083830152505050565b6000610a3c610a37846109e9565b6109ce565b905082815260208101848484011115610a5857610a57610958565b5b610a63848285610a1a565b509392505050565b600082601f830112610a8057610a7f610953565b5b8135610a90848260208601610a29565b91505092915050565b60008060408385031215610ab057610aaf610949565b5b600083013567ffffffffffffffff811115610ace57610acd61094e565b5b610ada85828601610a6b565b925050602083013567ffffffffffffffff811115610afb57610afa61094e565b5b610b0785828601610a6b565b9150509250929050565b6000819050919050565b610b2481610b11565b82525050565b6000602082019050610b3f6000830184610b1b565b92915050565b610b4e81610b11565b8114610b5957600080fd5b50565b600081359050610b6b81610b45565b92915050565b600060208284031215610b8757610b86610949565b5b6000610b9584828501610b5c565b91505092915050565b600081519050919050565b600082825260208201905092915050565b60005b83811015610bd8578082015181840152602081019050610bbd565b60008484015250505050565b6000610bef82610b9e565b610bf98185610ba9565b9350610c09818560208601610bba565b610c128161095d565b840191505092915050565b6000606082019050610c326000830186610b1b565b8181036020830152610c448185610be4565b90508181036040830152610c588184610be4565b9050949350505050565b600080600060608486031215610c7b57610c7a610949565b5b600084013567ffffffffffffffff811115610c9957610c9861094e565b5b610ca586828701610a6b565b935050602084013567ffffffffffffffff811115610cc657610cc561094e565b5b610cd286828701610a6b565b9250506040610ce386828701610b5c565b9150509250925092565b6000608082019050610d026000830187610b1b565b8181036020830152610d148186610be4565b90508181036040830152610d288185610be4565b9050610d376060830184610b1b565b95945050505050565b610d4981610b11565b82525050565b600082825260208201905092915050565b6000610d6b82610b9e565b610d758185610d4f565b9350610d85818560208601610bba565b610d8e8161095d565b840191505092915050565b6000608083016000830151610db16000860182610d40565b5060208301518482036020860152610dc98282610d60565b91505060408301518482036040860152610de38282610d60565b9150506060830151610df86060860182610d40565b508091505092915050565b60006020820190508181036000830152610e1d8184610d99565b905092915050565b6000606083016000830151610e3d6000860182610d40565b5060208301518482036020860152610e558282610d60565b91505060408301518482036040860152610e6f8282610d60565b9150508091505092915050565b60006020820190508181036000830152610e968184610e25565b905092915050565b7f4e487b7100000000000000000000000000000000000000000000000000000000600052601160045260246000fd5b6000610ed882610b11565b91507fffffffffffffffffffffffffffffffffffffffffffffffffffffffffffffffff8203610f0a57610f09610e9e565b5b600182019050919050565b7f4e487b7100000000000000000000000000000000000000000000000000000000600052602260045260246000fd5b60006002820490506001821680610f5c57607f821691505b602082108103610f6f57610f6e610f15565b5b50919050565b60008190508160005260206000209050919050565b60006020601f8301049050919050565b600082821b905092915050565b600060088302610fd77fffffffffffffffffffffffffffffffffffffffffffffffffffffffffffffffff82610f9a565b610fe18683610f9a565b95508019841693508086168417925050509392505050565b6000819050919050565b600061101e61101961101484610b11565b610ff9565b610b11565b9050919050565b6000819050919050565b61103883611003565b61104c61104482611025565b848454610fa7565b825550505050565b600090565b611061611054565b61106c81848461102f565b505050565b5b8181101561109057611085600082611059565b600181019050611072565b5050565b601f8211156110d5576110a681610f75565b6110af84610f8a565b810160208510156110be578190505b6110d26110ca85610f8a565b830182611071565b50505b505050565b600082821c905092915050565b60006110f8600019846008026110da565b1980831691505092915050565b600061111183836110e7565b9150826002028217905092915050565b61112a82610b9e565b67ffffffffffffffff8111156111435761114261096e565b5b61114d8254610f44565b611158828285611094565b600060209050601f83116001811461118b5760008415611179578287015190505b6111838582611105565b8655506111eb565b601f19841661119986610f75565b60005b828110156111c15784890151825560018201915060208501945060208101905061119c565b868310156111de57848901516111da601f8916826110e7565b8355505b6001600288020188555050505b505050505050565b7f486f73706974616c20646f6573206e6f742065786973742e0000000000000000600082015250565b6000611229601883610ba9565b9150611234826111f3565b602082019050919050565b600060208201905081810360008301526112588161121c565b905091905056fea264697066735822122036dc25398a23e7c1207bdaf4533165ab50064900f5e6eeefc5d821774ca2c08d64736f6c63430008110033",
  "immutableReferences": {},
  "source": "// SPDX-License-Identifier: MIT\r\npragma solidity ^0.8.0;\r\n\r\ncontract HospitalAndHealthcareProfessionalManagement {\r\n    \r\n    struct Hospital {\r\n        uint256 id;\r\n        string name;\r\n        string location;\r\n    }\r\n\r\n    struct HealthcareProfessional {\r\n        uint256 id;\r\n        string name;\r\n        string specialty;\r\n        uint256 hospitalId;\r\n    }\r\n\r\n    mapping(uint256 => Hospital) public hospitals;\r\n    mapping(uint256 => HealthcareProfessional) public healthcareProfessionals;\r\n    uint256 public hospitalCount;\r\n    uint256 public healthcareProfessionalCount;\r\n\r\n    event HospitalRegistered(uint256 id, string name, string location);\r\n    event HealthcareProfessionalRegistered(uint256 id, string name, string specialty, uint256 hospitalId);\r\n\r\n    // Constructor to initialize the contract state\r\n    constructor() {\r\n        // You can initialize any state variables here if needed.\r\n        hospitalCount = 0;\r\n        healthcareProfessionalCount = 0;\r\n    }\r\n\r\n    function registerHospital(string memory _name, string memory _location) public {\r\n        hospitalCount++;\r\n        hospitals[hospitalCount] = Hospital(hospitalCount, _name, _location);\r\n        emit HospitalRegistered(hospitalCount, _name, _location);\r\n    }\r\n\r\n    function registerHealthcareProfessional(\r\n        string memory _name,\r\n        string memory _specialty,\r\n        uint256 _hospitalId\r\n    ) public {\r\n        require(_hospitalId > 0 && _hospitalId <= hospitalCount, \"Hospital does not exist.\");\r\n        healthcareProfessionalCount++;\r\n        healthcareProfessionals[healthcareProfessionalCount] = HealthcareProfessional(\r\n            healthcareProfessionalCount,\r\n            _name,\r\n            _specialty,\r\n            _hospitalId\r\n        );\r\n        emit HealthcareProfessionalRegistered(healthcareProfessionalCount, _name, _specialty, _hospitalId);\r\n    }\r\n\r\n    function getHospital(uint256 _hospitalId) public view returns (Hospital memory) {\r\n        return hospitals[_hospitalId];\r\n    }\r\n\r\n    function getHealthcareProfessional(uint256 _professionalId) public view returns (HealthcareProfessional memory) {\r\n        return healthcareProfessionals[_professionalId];\r\n    }\r\n}\r\n",
  "sourcePath": "C:\\Users\\HP\\HospitalManagementBlockchain\\contracts\\HospitalAndHealthcareProfessionalManagement.sol",
  "compiler": {
    "name": "solc",
    "version": "0.8.17+commit.8df45f5f.Emscripten.clang"
  },
  "schemaVersion": "3.4.16",
  "updatedAt": "2024-10-10T19:14:16.692Z",
  "devdoc": {
    "kind": "dev",
    "methods": {},
    "version": 1
  },
  "userdoc": {
    "kind": "user",
    "methods": {},
    "version": 1
  }
}