{
  "contractName": "HospitalManagement",
  "abi": [
    {
      "inputs": [],
      "stateMutability": "nonpayable",
      "type": "constructor"
    },
    {
      "anonymous": false,
      "inputs": [
        {
          "indexed": false,
          "internalType": "uint256",
          "name": "hospitalId",
          "type": "uint256"
        },
        {
          "indexed": false,
          "internalType": "string",
          "name": "govHospitalId",
          "type": "string"
        },
        {
          "indexed": false,
          "internalType": "string",
          "name": "name",
          "type": "string"
        },
        {
          "indexed": false,
          "internalType": "string",
          "name": "addressInfo",
          "type": "string"
        },
        {
          "indexed": false,
          "internalType": "string",
          "name": "contact",
          "type": "string"
        }
      ],
      "name": "HospitalRegistered",
      "type": "event"
    },
    {
      "anonymous": false,
      "inputs": [
        {
          "indexed": false,
          "internalType": "uint256",
          "name": "hospitalId",
          "type": "uint256"
        },
        {
          "indexed": false,
          "internalType": "string",
          "name": "govHospitalId",
          "type": "string"
        }
      ],
      "name": "LoginSuccess",
      "type": "event"
    },
    {
      "inputs": [],
      "name": "hospitalCount",
      "outputs": [
        {
          "internalType": "uint256",
          "name": "",
          "type": "uint256"
        }
      ],
      "stateMutability": "view",
      "type": "function"
    },
    {
      "inputs": [
        {
          "internalType": "uint256",
          "name": "",
          "type": "uint256"
        }
      ],
      "name": "hospitals",
      "outputs": [
        {
          "internalType": "uint256",
          "name": "hospitalId",
          "type": "uint256"
        },
        {
          "internalType": "string",
          "name": "govHospitalId",
          "type": "string"
        },
        {
          "internalType": "string",
          "name": "name",
          "type": "string"
        },
        {
          "internalType": "string",
          "name": "addressInfo",
          "type": "string"
        },
        {
          "internalType": "string",
          "name": "contact",
          "type": "string"
        },
        {
          "internalType": "string",
          "name": "password",
          "type": "string"
        }
      ],
      "stateMutability": "view",
      "type": "function"
    },
    {
      "inputs": [
        {
          "internalType": "string",
          "name": "_govHospitalId",
          "type": "string"
        },
        {
          "internalType": "string",
          "name": "_name",
          "type": "string"
        },
        {
          "internalType": "string",
          "name": "_addressInfo",
          "type": "string"
        },
        {
          "internalType": "string",
          "name": "_contact",
          "type": "string"
        },
        {
          "internalType": "string",
          "name": "_password",
          "type": "string"
        }
      ],
      "name": "registerHospital",
      "outputs": [],
      "stateMutability": "nonpayable",
      "type": "function"
    },
    {
      "inputs": [
        {
          "internalType": "string",
          "name": "_govHospitalId",
          "type": "string"
        },
        {
          "internalType": "string",
          "name": "_password",
          "type": "string"
        }
      ],
      "name": "loginHospital",
      "outputs": [
        {
          "internalType": "bool",
          "name": "",
          "type": "bool"
        }
      ],
      "stateMutability": "nonpayable",
      "type": "function"
    },
    {
      "inputs": [
        {
          "internalType": "uint256",
          "name": "_hospitalId",
          "type": "uint256"
        }
      ],
      "name": "getHospital",
      "outputs": [
        {
          "components": [
            {
              "internalType": "uint256",
              "name": "hospitalId",
              "type": "uint256"
            },
            {
              "internalType": "string",
              "name": "govHospitalId",
              "type": "string"
            },
            {
              "internalType": "string",
              "name": "name",
              "type": "string"
            },
            {
              "internalType": "string",
              "name": "addressInfo",
              "type": "string"
            },
            {
              "internalType": "string",
              "name": "contact",
              "type": "string"
            },
            {
              "internalType": "string",
              "name": "password",
              "type": "string"
            }
          ],
          "internalType": "struct HospitalManagement.Hospital",
          "name": "",
          "type": "tuple"
        }
      ],
      "stateMutability": "view",
      "type": "function"
    }
  ],
  "bytecode": "0x608060405234801561001057600080fd5b50600060018190555061156e806100286000396000f3fe608060405234801561001057600080fd5b50600436106100575760003560e01c80631d0f81681461005c578063350dadb71461007857806381dc6fd214610096578063a7470f9a146100cb578063f2f8c316146100fb575b600080fd5b61007660048036038101906100719190610b86565b61012b565b005b610080610249565b60405161008d9190610ca6565b60405180910390f35b6100b060048036038101906100ab9190610ced565b61024f565b6040516100c296959493929190610d99565b60405180910390f35b6100e560048036038101906100e09190610ced565b610533565b6040516100f29190610f1b565b60405180910390f35b61011560048036038101906101109190610f3d565b61089b565b6040516101229190610fd0565b60405180910390f35b6001600081548092919061013e9061101a565b91905055506040518060c0016040528060015481526020018681526020018581526020018481526020018381526020018281525060008060015481526020019081526020016000206000820151816000015560208201518160010190816101a5919061126e565b5060408201518160020190816101bb919061126e565b5060608201518160030190816101d1919061126e565b5060808201518160040190816101e7919061126e565b5060a08201518160050190816101fd919061126e565b509050507f120f45a3cf49c87da90c4c015b4014f797c18b7665e553be7034de293388c8876001548686868660405161023a959493929190611340565b60405180910390a15050505050565b60015481565b600060205280600052604060002060009150905080600001549080600101805461027890611091565b80601f01602080910402602001604051908101604052809291908181526020018280546102a490611091565b80156102f15780601f106102c6576101008083540402835291602001916102f1565b820191906000526020600020905b8154815290600101906020018083116102d457829003601f168201915b50505050509080600201805461030690611091565b80601f016020809104026020016040519081016040528092919081815260200182805461033290611091565b801561037f5780601f106103545761010080835404028352916020019161037f565b820191906000526020600020905b81548152906001019060200180831161036257829003601f168201915b50505050509080600301805461039490611091565b80601f01602080910402602001604051908101604052809291908181526020018280546103c090611091565b801561040d5780601f106103e25761010080835404028352916020019161040d565b820191906000526020600020905b8154815290600101906020018083116103f057829003601f168201915b50505050509080600401805461042290611091565b80601f016020809104026020016040519081016040528092919081815260200182805461044e90611091565b801561049b5780601f106104705761010080835404028352916020019161049b565b820191906000526020600020905b81548152906001019060200180831161047e57829003601f168201915b5050505050908060050180546104b090611091565b80601f01602080910402602001604051908101604052809291908181526020018280546104dc90611091565b80156105295780601f106104fe57610100808354040283529160200191610529565b820191906000526020600020905b81548152906001019060200180831161050c57829003601f168201915b5050505050905086565b61053b6109f6565b60008060008481526020019081526020016000206000015403610593576040517f08c379a000000000000000000000000000000000000000000000000000000000815260040161058a906113fb565b60405180910390fd5b6000808381526020019081526020016000206040518060c0016040529081600082015481526020016001820180546105ca90611091565b80601f01602080910402602001604051908101604052809291908181526020018280546105f690611091565b80156106435780601f1061061857610100808354040283529160200191610643565b820191906000526020600020905b81548152906001019060200180831161062657829003601f168201915b5050505050815260200160028201805461065c90611091565b80601f016020809104026020016040519081016040528092919081815260200182805461068890611091565b80156106d55780601f106106aa576101008083540402835291602001916106d5565b820191906000526020600020905b8154815290600101906020018083116106b857829003601f168201915b505050505081526020016003820180546106ee90611091565b80601f016020809104026020016040519081016040528092919081815260200182805461071a90611091565b80156107675780601f1061073c57610100808354040283529160200191610767565b820191906000526020600020905b81548152906001019060200180831161074a57829003601f168201915b5050505050815260200160048201805461078090611091565b80601f01602080910402602001604051908101604052809291908181526020018280546107ac90611091565b80156107f95780601f106107ce576101008083540402835291602001916107f9565b820191906000526020600020905b8154815290600101906020018083116107dc57829003601f168201915b5050505050815260200160058201805461081290611091565b80601f016020809104026020016040519081016040528092919081815260200182805461083e90611091565b801561088b5780601f106108605761010080835404028352916020019161088b565b820191906000526020600020905b81548152906001019060200180831161086e57829003601f168201915b5050505050815250509050919050565b600080600190505b60015481116109ea57836040516020016108bd9190611457565b604051602081830303815290604052805190602001206000808381526020019081526020016000206001016040516020016108f891906114f1565b6040516020818303038152906040528051906020012014801561097a5750826040516020016109279190611457565b6040516020818303038152906040528051906020012060008083815260200190815260200160002060050160405160200161096291906114f1565b60405160208183030381529060405280519060200120145b156109d7577fe2a54dc99a305ff4ff92d023a6c763fd34e60ff4e5a8ee0226481d25d49189d060008083815260200190815260200160002060000154856040516109c5929190611508565b60405180910390a160019150506109f0565b80806109e29061101a565b9150506108a3565b50600090505b92915050565b6040518060c001604052806000815260200160608152602001606081526020016060815260200160608152602001606081525090565b6000604051905090565b600080fd5b600080fd5b600080fd5b600080fd5b6000601f19601f8301169050919050565b7f4e487b7100000000000000000000000000000000000000000000000000000000600052604160045260246000fd5b610a9382610a4a565b810181811067ffffffffffffffff82111715610ab257610ab1610a5b565b5b80604052505050565b6000610ac5610a2c565b9050610ad18282610a8a565b919050565b600067ffffffffffffffff821115610af157610af0610a5b565b5b610afa82610a4a565b9050602081019050919050565b82818337600083830152505050565b6000610b29610b2484610ad6565b610abb565b905082815260208101848484011115610b4557610b44610a45565b5b610b50848285610b07565b509392505050565b600082601f830112610b6d57610b6c610a40565b5b8135610b7d848260208601610b16565b91505092915050565b600080600080600060a08688031215610ba257610ba1610a36565b5b600086013567ffffffffffffffff811115610bc057610bbf610a3b565b5b610bcc88828901610b58565b955050602086013567ffffffffffffffff811115610bed57610bec610a3b565b5b610bf988828901610b58565b945050604086013567ffffffffffffffff811115610c1a57610c19610a3b565b5b610c2688828901610b58565b935050606086013567ffffffffffffffff811115610c4757610c46610a3b565b5b610c5388828901610b58565b925050608086013567ffffffffffffffff811115610c7457610c73610a3b565b5b610c8088828901610b58565b9150509295509295909350565b6000819050919050565b610ca081610c8d565b82525050565b6000602082019050610cbb6000830184610c97565b92915050565b610cca81610c8d565b8114610cd557600080fd5b50565b600081359050610ce781610cc1565b92915050565b600060208284031215610d0357610d02610a36565b5b6000610d1184828501610cd8565b91505092915050565b600081519050919050565b600082825260208201905092915050565b60005b83811015610d54578082015181840152602081019050610d39565b60008484015250505050565b6000610d6b82610d1a565b610d758185610d25565b9350610d85818560208601610d36565b610d8e81610a4a565b840191505092915050565b600060c082019050610dae6000830189610c97565b8181036020830152610dc08188610d60565b90508181036040830152610dd48187610d60565b90508181036060830152610de88186610d60565b90508181036080830152610dfc8185610d60565b905081810360a0830152610e108184610d60565b9050979650505050505050565b610e2681610c8d565b82525050565b600082825260208201905092915050565b6000610e4882610d1a565b610e528185610e2c565b9350610e62818560208601610d36565b610e6b81610a4a565b840191505092915050565b600060c083016000830151610e8e6000860182610e1d565b5060208301518482036020860152610ea68282610e3d565b91505060408301518482036040860152610ec08282610e3d565b91505060608301518482036060860152610eda8282610e3d565b91505060808301518482036080860152610ef48282610e3d565b91505060a083015184820360a0860152610f0e8282610e3d565b9150508091505092915050565b60006020820190508181036000830152610f358184610e76565b905092915050565b60008060408385031215610f5457610f53610a36565b5b600083013567ffffffffffffffff811115610f7257610f71610a3b565b5b610f7e85828601610b58565b925050602083013567ffffffffffffffff811115610f9f57610f9e610a3b565b5b610fab85828601610b58565b9150509250929050565b60008115159050919050565b610fca81610fb5565b82525050565b6000602082019050610fe56000830184610fc1565b92915050565b7f4e487b7100000000000000000000000000000000000000000000000000000000600052601160045260246000fd5b600061102582610c8d565b91507fffffffffffffffffffffffffffffffffffffffffffffffffffffffffffffffff820361105757611056610feb565b5b600182019050919050565b7f4e487b7100000000000000000000000000000000000000000000000000000000600052602260045260246000fd5b600060028204905060018216806110a957607f821691505b6020821081036110bc576110bb611062565b5b50919050565b60008190508160005260206000209050919050565b60006020601f8301049050919050565b600082821b905092915050565b6000600883026111247fffffffffffffffffffffffffffffffffffffffffffffffffffffffffffffffff826110e7565b61112e86836110e7565b95508019841693508086168417925050509392505050565b6000819050919050565b600061116b61116661116184610c8d565b611146565b610c8d565b9050919050565b6000819050919050565b61118583611150565b61119961119182611172565b8484546110f4565b825550505050565b600090565b6111ae6111a1565b6111b981848461117c565b505050565b5b818110156111dd576111d26000826111a6565b6001810190506111bf565b5050565b601f821115611222576111f3816110c2565b6111fc846110d7565b8101602085101561120b578190505b61121f611217856110d7565b8301826111be565b50505b505050565b600082821c905092915050565b600061124560001984600802611227565b1980831691505092915050565b600061125e8383611234565b9150826002028217905092915050565b61127782610d1a565b67ffffffffffffffff8111156112905761128f610a5b565b5b61129a8254611091565b6112a58282856111e1565b600060209050601f8311600181146112d857600084156112c6578287015190505b6112d08582611252565b865550611338565b601f1984166112e6866110c2565b60005b8281101561130e578489015182556001820191506020850194506020810190506112e9565b8683101561132b5784890151611327601f891682611234565b8355505b6001600288020188555050505b505050505050565b600060a0820190506113556000830188610c97565b81810360208301526113678187610d60565b9050818103604083015261137b8186610d60565b9050818103606083015261138f8185610d60565b905081810360808301526113a38184610d60565b90509695505050505050565b7f486f73706974616c20646f6573206e6f742065786973742e0000000000000000600082015250565b60006113e5601883610d25565b91506113f0826113af565b602082019050919050565b60006020820190508181036000830152611414816113d8565b9050919050565b600081905092915050565b600061143182610d1a565b61143b818561141b565b935061144b818560208601610d36565b80840191505092915050565b60006114638284611426565b915081905092915050565b6000815461147b81611091565b611485818661141b565b945060018216600081146114a057600181146114b5576114e8565b60ff19831686528115158202860193506114e8565b6114be856110c2565b60005b838110156114e0578154818901526001820191506020810190506114c1565b838801955050505b50505092915050565b60006114fd828461146e565b915081905092915050565b600060408201905061151d6000830185610c97565b818103602083015261152f8184610d60565b9050939250505056fea264697066735822122065fb1ca5ac91c662f006177ff441ffde9549a6f41d91791dfc0a06aa55f7746d64736f6c63430008110033",
  "immutableReferences": {},
  "source": "// SPDX-License-Identifier: MIT\r\npragma solidity ^0.8.0;\r\n\r\ncontract HospitalManagement {\r\n    struct Hospital {\r\n        uint256 hospitalId;     // Auto-generated hospital ID\r\n        string govHospitalId;   // Government-assigned hospital ID\r\n        string name;            // Name of the hospital\r\n        string addressInfo;     // Address of the hospital\r\n        string contact;         // Contact information of the hospital\r\n        string password;        // Password for login\r\n    }\r\n\r\n    mapping(uint256 => Hospital) public hospitals;\r\n    uint256 public hospitalCount;\r\n\r\n    event HospitalRegistered(uint256 hospitalId, string govHospitalId, string name, string addressInfo, string contact);\r\n    event LoginSuccess(uint256 hospitalId, string govHospitalId);   // Event for successful login\r\n\r\n    constructor() {\r\n        hospitalCount = 0; // Initialize count\r\n    }\r\n\r\n    // Function to register hospital, with plain-text password\r\n    function registerHospital(\r\n        string memory _govHospitalId,\r\n        string memory _name,\r\n        string memory _addressInfo,\r\n        string memory _contact,\r\n        string memory _password   // New password field\r\n    ) public {\r\n        hospitalCount++;\r\n        hospitals[hospitalCount] = Hospital(hospitalCount, _govHospitalId, _name, _addressInfo, _contact, _password);\r\n        emit HospitalRegistered(hospitalCount, _govHospitalId, _name, _addressInfo, _contact);\r\n    }\r\n\r\n    // Function to login hospital with govHospitalId and password\r\n    function loginHospital(string memory _govHospitalId, string memory _password) public returns (bool) {\r\n        for (uint256 i = 1; i <= hospitalCount; i++) {\r\n            if (\r\n                keccak256(abi.encodePacked(hospitals[i].govHospitalId)) == keccak256(abi.encodePacked(_govHospitalId)) &&\r\n                keccak256(abi.encodePacked(hospitals[i].password)) == keccak256(abi.encodePacked(_password))\r\n            ) {\r\n                // Emit the login success event with hospitalId and govHospitalId\r\n                emit LoginSuccess(hospitals[i].hospitalId, _govHospitalId);\r\n                return true;\r\n            }\r\n        }\r\n        return false; // Return false if login fails\r\n    }\r\n\r\n    // Function to get hospital details\r\n    function getHospital(uint256 _hospitalId) public view returns (Hospital memory) {\r\n        require(hospitals[_hospitalId].hospitalId != 0, \"Hospital does not exist.\");\r\n        return hospitals[_hospitalId];\r\n    }\r\n}\r\n",
  "sourcePath": "C:\\Users\\HP\\project folders\\HospitalManagementBlockchain\\contracts\\HospitalManagement.sol",
  "compiler": {
    "name": "solc",
    "version": "0.8.17+commit.8df45f5f.Emscripten.clang"
  },
  "schemaVersion": "3.4.16",
  "updatedAt": "2024-10-22T09:55:45.472Z",
  "devdoc": {
    "kind": "dev",
    "methods": {},
    "version": 1
  },
  "userdoc": {
    "kind": "user",
    "methods": {},
    "version": 1
  }
}