{
  "contractName": "MedicalRecordManagementAndSecurity",
  "abi": [
    {
      "inputs": [
        {
          "internalType": "address",
          "name": "_patientContractAddress",
          "type": "address"
        }
      ],
      "stateMutability": "nonpayable",
      "type": "constructor"
    },
    {
      "anonymous": false,
      "inputs": [
        {
          "indexed": false,
          "internalType": "uint256",
          "name": "recordId",
          "type": "uint256"
        },
        {
          "indexed": false,
          "internalType": "address",
          "name": "accessedBy",
          "type": "address"
        }
      ],
      "name": "MedicalRecordAccessed",
      "type": "event"
    },
    {
      "anonymous": false,
      "inputs": [
        {
          "indexed": false,
          "internalType": "uint256",
          "name": "id",
          "type": "uint256"
        },
        {
          "indexed": false,
          "internalType": "uint256",
          "name": "patientId",
          "type": "uint256"
        }
      ],
      "name": "MedicalRecordAdded",
      "type": "event"
    },
    {
      "inputs": [
        {
          "internalType": "uint256",
          "name": "",
          "type": "uint256"
        }
      ],
      "name": "medicalRecords",
      "outputs": [
        {
          "internalType": "uint256",
          "name": "id",
          "type": "uint256"
        },
        {
          "internalType": "uint256",
          "name": "patientId",
          "type": "uint256"
        },
        {
          "internalType": "string",
          "name": "medicalHistory",
          "type": "string"
        },
        {
          "internalType": "string",
          "name": "currentTreatment",
          "type": "string"
        },
        {
          "internalType": "bool",
          "name": "isShared",
          "type": "bool"
        }
      ],
      "stateMutability": "view",
      "type": "function"
    },
    {
      "inputs": [
        {
          "internalType": "uint256",
          "name": "",
          "type": "uint256"
        },
        {
          "internalType": "uint256",
          "name": "",
          "type": "uint256"
        }
      ],
      "name": "patientToRecords",
      "outputs": [
        {
          "internalType": "uint256",
          "name": "",
          "type": "uint256"
        }
      ],
      "stateMutability": "view",
      "type": "function"
    },
    {
      "inputs": [],
      "name": "recordCount",
      "outputs": [
        {
          "internalType": "uint256",
          "name": "",
          "type": "uint256"
        }
      ],
      "stateMutability": "view",
      "type": "function"
    },
    {
      "inputs": [
        {
          "internalType": "uint256",
          "name": "_patientId",
          "type": "uint256"
        },
        {
          "internalType": "string",
          "name": "_medicalHistory",
          "type": "string"
        },
        {
          "internalType": "string",
          "name": "_currentTreatment",
          "type": "string"
        }
      ],
      "name": "addMedicalRecord",
      "outputs": [],
      "stateMutability": "nonpayable",
      "type": "function"
    },
    {
      "inputs": [
        {
          "internalType": "uint256",
          "name": "_recordId",
          "type": "uint256"
        },
        {
          "internalType": "address",
          "name": "_nominee",
          "type": "address"
        }
      ],
      "name": "viewMedicalRecord",
      "outputs": [],
      "stateMutability": "nonpayable",
      "type": "function"
    },
    {
      "inputs": [
        {
          "internalType": "uint256",
          "name": "_recordId",
          "type": "uint256"
        }
      ],
      "name": "shareMedicalRecord",
      "outputs": [],
      "stateMutability": "nonpayable",
      "type": "function"
    },
    {
      "inputs": [
        {
          "internalType": "uint256",
          "name": "_recordId",
          "type": "uint256"
        }
      ],
      "name": "revokeSharedMedicalRecord",
      "outputs": [],
      "stateMutability": "nonpayable",
      "type": "function"
    }
  ],
  "bytecode": "0x60806040523480156200001157600080fd5b506040516200127a3803806200127a8339818101604052810190620000379190620000e8565b806000806101000a81548173ffffffffffffffffffffffffffffffffffffffff021916908373ffffffffffffffffffffffffffffffffffffffff160217905550506200011a565b600080fd5b600073ffffffffffffffffffffffffffffffffffffffff82169050919050565b6000620000b08262000083565b9050919050565b620000c281620000a3565b8114620000ce57600080fd5b50565b600081519050620000e281620000b7565b92915050565b6000602082840312156200010157620001006200007e565b5b60006200011184828501620000d1565b91505092915050565b611150806200012a6000396000f3fe608060405234801561001057600080fd5b506004361061007d5760003560e01c80639e3b65651161005b5780639e3b6565146100f0578063a18e32fb1461010c578063e2e9c2951461013c578063fd188899146101585761007d565b80630340020a146100825780637564a13c1461009e578063900407bc146100d2575b600080fd5b61009c60048036038101906100979190610738565b610174565b005b6100b860048036038101906100b39190610738565b6101ff565b6040516100c995949392919061081f565b60405180910390f35b6100da610352565b6040516100e79190610880565b60405180910390f35b61010a600480360381019061010591906109d0565b610358565b005b61012660048036038101906101219190610a5b565b610490565b6040516101339190610880565b60405180910390f35b61015660048036038101906101519190610738565b6104c1565b005b610172600480360381019061016d9190610af9565b61054b565b005b60006001600083815260200190815260200160002060000154036101cd576040517f08c379a00000000000000000000000000000000000000000000000000000000081526004016101c490610b85565b60405180910390fd5b60006001600083815260200190815260200160002060040160006101000a81548160ff02191690831515021790555050565b600160205280600052604060002060009150905080600001549080600101549080600201805461022e90610bd4565b80601f016020809104026020016040519081016040528092919081815260200182805461025a90610bd4565b80156102a75780601f1061027c576101008083540402835291602001916102a7565b820191906000526020600020905b81548152906001019060200180831161028a57829003601f168201915b5050505050908060030180546102bc90610bd4565b80601f01602080910402602001604051908101604052809291908181526020018280546102e890610bd4565b80156103355780601f1061030a57610100808354040283529160200191610335565b820191906000526020600020905b81548152906001019060200180831161031857829003601f168201915b5050505050908060040160009054906101000a900460ff16905085565b60035481565b6003600081548092919061036b90610c34565b91905055506040518060a00160405280600354815260200184815260200183815260200182815260200160001515815250600160006003548152602001908152602001600020600082015181600001556020820151816001015560408201518160020190816103da9190610e28565b5060608201518160030190816103f09190610e28565b5060808201518160040160006101000a81548160ff0219169083151502179055509050506002600084815260200190815260200160002060035490806001815401808255809150506001900390600052602060002001600090919091909150557f8bcb5b69557e09a9c40e3834e962fb82745736b89701b0e6dc294d37e55b038c60035484604051610483929190610efa565b60405180910390a1505050565b600260205281600052604060002081815481106104ac57600080fd5b90600052602060002001600091509150505481565b600060016000838152602001908152602001600020600001540361051a576040517f08c379a000000000000000000000000000000000000000000000000000000000815260040161051190610b85565b60405180910390fd5b600180600083815260200190815260200160002060040160006101000a81548160ff02191690831515021790555050565b60016000838152602001908152602001600020600101548160008060009054906101000a900473ffffffffffffffffffffffffffffffffffffffff1673ffffffffffffffffffffffffffffffffffffffff166393119a83846040518263ffffffff1660e01b81526004016105bf9190610880565b600060405180830381865afa1580156105dc573d6000803e3d6000fd5b505050506040513d6000823e3d601f19601f820116820180604052508101906106059190610ff3565b50925050508073ffffffffffffffffffffffffffffffffffffffff163373ffffffffffffffffffffffffffffffffffffffff16148061066f57508173ffffffffffffffffffffffffffffffffffffffff163373ffffffffffffffffffffffffffffffffffffffff16145b6106ae576040517f08c379a00000000000000000000000000000000000000000000000000000000081526004016106a5906110c2565b60405180910390fd5b7fa5ccb2d1e35ff206681866b710abfabb5d743b765128342d4a553288b44de41b85336040516106df9291906110f1565b60405180910390a15050505050565b6000604051905090565b600080fd5b600080fd5b6000819050919050565b61071581610702565b811461072057600080fd5b50565b6000813590506107328161070c565b92915050565b60006020828403121561074e5761074d6106f8565b5b600061075c84828501610723565b91505092915050565b61076e81610702565b82525050565b600081519050919050565b600082825260208201905092915050565b60005b838110156107ae578082015181840152602081019050610793565b60008484015250505050565b6000601f19601f8301169050919050565b60006107d682610774565b6107e0818561077f565b93506107f0818560208601610790565b6107f9816107ba565b840191505092915050565b60008115159050919050565b61081981610804565b82525050565b600060a0820190506108346000830188610765565b6108416020830187610765565b818103604083015261085381866107cb565b9050818103606083015261086781856107cb565b90506108766080830184610810565b9695505050505050565b60006020820190506108956000830184610765565b92915050565b600080fd5b600080fd5b7f4e487b7100000000000000000000000000000000000000000000000000000000600052604160045260246000fd5b6108dd826107ba565b810181811067ffffffffffffffff821117156108fc576108fb6108a5565b5b80604052505050565b600061090f6106ee565b905061091b82826108d4565b919050565b600067ffffffffffffffff82111561093b5761093a6108a5565b5b610944826107ba565b9050602081019050919050565b82818337600083830152505050565b600061097361096e84610920565b610905565b90508281526020810184848401111561098f5761098e6108a0565b5b61099a848285610951565b509392505050565b600082601f8301126109b7576109b661089b565b5b81356109c7848260208601610960565b91505092915050565b6000806000606084860312156109e9576109e86106f8565b5b60006109f786828701610723565b935050602084013567ffffffffffffffff811115610a1857610a176106fd565b5b610a24868287016109a2565b925050604084013567ffffffffffffffff811115610a4557610a446106fd565b5b610a51868287016109a2565b9150509250925092565b60008060408385031215610a7257610a716106f8565b5b6000610a8085828601610723565b9250506020610a9185828601610723565b9150509250929050565b600073ffffffffffffffffffffffffffffffffffffffff82169050919050565b6000610ac682610a9b565b9050919050565b610ad681610abb565b8114610ae157600080fd5b50565b600081359050610af381610acd565b92915050565b60008060408385031215610b1057610b0f6106f8565b5b6000610b1e85828601610723565b9250506020610b2f85828601610ae4565b9150509250929050565b7f4d65646963616c207265636f726420646f6573206e6f742065786973742e0000600082015250565b6000610b6f601e8361077f565b9150610b7a82610b39565b602082019050919050565b60006020820190508181036000830152610b9e81610b62565b9050919050565b7f4e487b7100000000000000000000000000000000000000000000000000000000600052602260045260246000fd5b60006002820490506001821680610bec57607f821691505b602082108103610bff57610bfe610ba5565b5b50919050565b7f4e487b7100000000000000000000000000000000000000000000000000000000600052601160045260246000fd5b6000610c3f82610702565b91507fffffffffffffffffffffffffffffffffffffffffffffffffffffffffffffffff8203610c7157610c70610c05565b5b600182019050919050565b60008190508160005260206000209050919050565b60006020601f8301049050919050565b600082821b905092915050565b600060088302610cde7fffffffffffffffffffffffffffffffffffffffffffffffffffffffffffffffff82610ca1565b610ce88683610ca1565b95508019841693508086168417925050509392505050565b6000819050919050565b6000610d25610d20610d1b84610702565b610d00565b610702565b9050919050565b6000819050919050565b610d3f83610d0a565b610d53610d4b82610d2c565b848454610cae565b825550505050565b600090565b610d68610d5b565b610d73818484610d36565b505050565b5b81811015610d9757610d8c600082610d60565b600181019050610d79565b5050565b601f821115610ddc57610dad81610c7c565b610db684610c91565b81016020851015610dc5578190505b610dd9610dd185610c91565b830182610d78565b50505b505050565b600082821c905092915050565b6000610dff60001984600802610de1565b1980831691505092915050565b6000610e188383610dee565b9150826002028217905092915050565b610e3182610774565b67ffffffffffffffff811115610e4a57610e496108a5565b5b610e548254610bd4565b610e5f828285610d9b565b600060209050601f831160018114610e925760008415610e80578287015190505b610e8a8582610e0c565b865550610ef2565b601f198416610ea086610c7c565b60005b82811015610ec857848901518255600182019150602085019450602081019050610ea3565b86831015610ee55784890151610ee1601f891682610dee565b8355505b6001600288020188555050505b505050505050565b6000604082019050610f0f6000830185610765565b610f1c6020830184610765565b9392505050565b600081519050610f328161070c565b92915050565b6000610f4b610f4684610920565b610905565b905082815260208101848484011115610f6757610f666108a0565b5b610f72848285610790565b509392505050565b600082601f830112610f8f57610f8e61089b565b5b8151610f9f848260208601610f38565b91505092915050565b600081519050610fb781610acd565b92915050565b6000819050919050565b610fd081610fbd565b8114610fdb57600080fd5b50565b600081519050610fed81610fc7565b92915050565b6000806000806080858703121561100d5761100c6106f8565b5b600061101b87828801610f23565b945050602085015167ffffffffffffffff81111561103c5761103b6106fd565b5b61104887828801610f7a565b935050604061105987828801610fa8565b925050606061106a87828801610fde565b91505092959194509250565b7f556e617574686f72697a6564206163636573732e000000000000000000000000600082015250565b60006110ac60148361077f565b91506110b782611076565b602082019050919050565b600060208201905081810360008301526110db8161109f565b9050919050565b6110eb81610abb565b82525050565b60006040820190506111066000830185610765565b61111360208301846110e2565b939250505056fea2646970667358221220e7696ee4b23d71a3ddccd53c3b4f204f2e63b583c6e6ad9fe3c98014a35c3f5864736f6c63430008110033",
  "immutableReferences": {},
  "source": "// SPDX-License-Identifier: MIT\r\npragma solidity ^0.8.0;\r\n\r\nimport \"./PatientManagementAndNominee.sol\";\r\n\r\ncontract MedicalRecordManagementAndSecurity {\r\n    struct MedicalRecord {\r\n        uint256 id;\r\n        uint256 patientId;\r\n        string medicalHistory;\r\n        string currentTreatment;\r\n        bool isShared;\r\n    }\r\n\r\n    PatientManagementAndNominee patientContract;\r\n    \r\n    mapping(uint256 => MedicalRecord) public medicalRecords;\r\n    mapping(uint256 => uint256[]) public patientToRecords;\r\n    uint256 public recordCount;\r\n\r\n    event MedicalRecordAdded(uint256 id, uint256 patientId);\r\n    event MedicalRecordAccessed(uint256 recordId, address accessedBy);\r\n\r\n    constructor(address _patientContractAddress) {\r\n        patientContract = PatientManagementAndNominee(_patientContractAddress);\r\n    }\r\n\r\n    modifier onlyPatientOrNominee(uint256 _patientId, address _nominee) {\r\n        (, , address nominee,) = patientContract.patients(_patientId);\r\n        require(msg.sender == nominee || msg.sender == _nominee, \"Unauthorized access.\");\r\n        _;\r\n    }\r\n\r\n    function addMedicalRecord(uint256 _patientId, string memory _medicalHistory, string memory _currentTreatment) public {\r\n        recordCount++;\r\n        medicalRecords[recordCount] = MedicalRecord(recordCount, _patientId, _medicalHistory, _currentTreatment, false);\r\n        patientToRecords[_patientId].push(recordCount);\r\n        emit MedicalRecordAdded(recordCount, _patientId);\r\n    }\r\n\r\n    function viewMedicalRecord(uint256 _recordId, address _nominee) public onlyPatientOrNominee(medicalRecords[_recordId].patientId, _nominee) {\r\n        emit MedicalRecordAccessed(_recordId, msg.sender);\r\n    }\r\n\r\n    function shareMedicalRecord(uint256 _recordId) public {\r\n        require(medicalRecords[_recordId].id != 0, \"Medical record does not exist.\");\r\n        medicalRecords[_recordId].isShared = true;\r\n    }\r\n\r\n    function revokeSharedMedicalRecord(uint256 _recordId) public {\r\n        require(medicalRecords[_recordId].id != 0, \"Medical record does not exist.\");\r\n        medicalRecords[_recordId].isShared = false;\r\n    }\r\n}\r\n",
  "sourcePath": "C:\\Users\\HP\\HospitalManagementBlockchain\\contracts\\MedicalRecordManagementAndSecurity.sol",
  "compiler": {
    "name": "solc",
    "version": "0.8.17+commit.8df45f5f.Emscripten.clang"
  },
  "schemaVersion": "3.4.16",
  "updatedAt": "2024-09-27T19:20:49.305Z",
  "networkType": "ethereum",
  "devdoc": {
    "kind": "dev",
    "methods": {},
    "version": 1
  },
  "userdoc": {
    "kind": "user",
    "methods": {},
    "version": 1
  }
}