{
  "contractName": "PatientManagementAndNominee",
  "abi": [
    {
      "anonymous": false,
      "inputs": [
        {
          "indexed": false,
          "internalType": "uint256",
          "name": "patientId",
          "type": "uint256"
        },
        {
          "indexed": false,
          "internalType": "bytes32",
          "name": "publicId",
          "type": "bytes32"
        }
      ],
      "name": "LoginSuccess",
      "type": "event"
    },
    {
      "anonymous": false,
      "inputs": [
        {
          "indexed": false,
          "internalType": "uint256",
          "name": "patientId",
          "type": "uint256"
        },
        {
          "indexed": false,
          "internalType": "address",
          "name": "nominee",
          "type": "address"
        }
      ],
      "name": "NomineeCanceled",
      "type": "event"
    },
    {
      "anonymous": false,
      "inputs": [
        {
          "indexed": false,
          "internalType": "uint256",
          "name": "patientId",
          "type": "uint256"
        },
        {
          "indexed": false,
          "internalType": "address",
          "name": "nominee",
          "type": "address"
        }
      ],
      "name": "NomineeRequestAccepted",
      "type": "event"
    },
    {
      "anonymous": false,
      "inputs": [
        {
          "indexed": false,
          "internalType": "uint256",
          "name": "patientId",
          "type": "uint256"
        },
        {
          "indexed": false,
          "internalType": "address",
          "name": "nominee",
          "type": "address"
        }
      ],
      "name": "NomineeRequestRejected",
      "type": "event"
    },
    {
      "anonymous": false,
      "inputs": [
        {
          "indexed": false,
          "internalType": "uint256",
          "name": "patientId",
          "type": "uint256"
        },
        {
          "indexed": false,
          "internalType": "address",
          "name": "nominee",
          "type": "address"
        }
      ],
      "name": "NomineeRequestSent",
      "type": "event"
    },
    {
      "anonymous": false,
      "inputs": [
        {
          "indexed": false,
          "internalType": "uint256",
          "name": "id",
          "type": "uint256"
        },
        {
          "indexed": false,
          "internalType": "string",
          "name": "name",
          "type": "string"
        },
        {
          "indexed": false,
          "internalType": "string",
          "name": "contact",
          "type": "string"
        },
        {
          "indexed": false,
          "internalType": "string",
          "name": "patientAddress",
          "type": "string"
        },
        {
          "indexed": false,
          "internalType": "address",
          "name": "nominee",
          "type": "address"
        },
        {
          "indexed": false,
          "internalType": "bytes32",
          "name": "publicId",
          "type": "bytes32"
        }
      ],
      "name": "PatientRegistered",
      "type": "event"
    },
    {
      "inputs": [
        {
          "internalType": "address",
          "name": "",
          "type": "address"
        }
      ],
      "name": "nomineeRequests",
      "outputs": [
        {
          "internalType": "uint256",
          "name": "patientId",
          "type": "uint256"
        },
        {
          "internalType": "address",
          "name": "nomineeAddress",
          "type": "address"
        },
        {
          "internalType": "bool",
          "name": "isPending",
          "type": "bool"
        }
      ],
      "stateMutability": "view",
      "type": "function"
    },
    {
      "inputs": [],
      "name": "patientCount",
      "outputs": [
        {
          "internalType": "uint256",
          "name": "",
          "type": "uint256"
        }
      ],
      "stateMutability": "view",
      "type": "function"
    },
    {
      "inputs": [
        {
          "internalType": "uint256",
          "name": "",
          "type": "uint256"
        },
        {
          "internalType": "uint256",
          "name": "",
          "type": "uint256"
        }
      ],
      "name": "patientNominees",
      "outputs": [
        {
          "internalType": "address",
          "name": "",
          "type": "address"
        }
      ],
      "stateMutability": "view",
      "type": "function"
    },
    {
      "inputs": [
        {
          "internalType": "uint256",
          "name": "",
          "type": "uint256"
        }
      ],
      "name": "patients",
      "outputs": [
        {
          "internalType": "uint256",
          "name": "id",
          "type": "uint256"
        },
        {
          "internalType": "string",
          "name": "name",
          "type": "string"
        },
        {
          "internalType": "string",
          "name": "contact",
          "type": "string"
        },
        {
          "internalType": "string",
          "name": "patientAddress",
          "type": "string"
        },
        {
          "internalType": "address",
          "name": "nominee",
          "type": "address"
        },
        {
          "internalType": "bytes32",
          "name": "publicId",
          "type": "bytes32"
        },
        {
          "internalType": "string",
          "name": "password",
          "type": "string"
        },
        {
          "internalType": "bool",
          "name": "nomineeConfirmed",
          "type": "bool"
        }
      ],
      "stateMutability": "view",
      "type": "function"
    },
    {
      "inputs": [
        {
          "internalType": "bytes32",
          "name": "",
          "type": "bytes32"
        }
      ],
      "name": "publicIdToPatientId",
      "outputs": [
        {
          "internalType": "uint256",
          "name": "",
          "type": "uint256"
        }
      ],
      "stateMutability": "view",
      "type": "function"
    },
    {
      "inputs": [
        {
          "internalType": "string",
          "name": "_name",
          "type": "string"
        },
        {
          "internalType": "string",
          "name": "_contact",
          "type": "string"
        },
        {
          "internalType": "string",
          "name": "_patientAddress",
          "type": "string"
        },
        {
          "internalType": "string",
          "name": "_password",
          "type": "string"
        },
        {
          "internalType": "bytes32[]",
          "name": "_securityQuestions",
          "type": "bytes32[]"
        },
        {
          "internalType": "bytes32[]",
          "name": "_securityAnswers",
          "type": "bytes32[]"
        }
      ],
      "name": "registerPatient",
      "outputs": [],
      "stateMutability": "nonpayable",
      "type": "function"
    },
    {
      "inputs": [
        {
          "internalType": "uint256",
          "name": "_patientId",
          "type": "uint256"
        },
        {
          "internalType": "address",
          "name": "_newNominee",
          "type": "address"
        }
      ],
      "name": "updateNominee",
      "outputs": [],
      "stateMutability": "nonpayable",
      "type": "function"
    },
    {
      "inputs": [
        {
          "internalType": "bytes32[]",
          "name": "_providedAnswers",
          "type": "bytes32[]"
        }
      ],
      "name": "acceptNomineeRequest",
      "outputs": [],
      "stateMutability": "nonpayable",
      "type": "function"
    },
    {
      "inputs": [],
      "name": "rejectNomineeRequest",
      "outputs": [],
      "stateMutability": "nonpayable",
      "type": "function"
    },
    {
      "inputs": [
        {
          "internalType": "uint256",
          "name": "_patientId",
          "type": "uint256"
        }
      ],
      "name": "cancelNominee",
      "outputs": [],
      "stateMutability": "nonpayable",
      "type": "function"
    },
    {
      "inputs": [
        {
          "internalType": "uint256",
          "name": "_patientId",
          "type": "uint256"
        }
      ],
      "name": "getNomineesCount",
      "outputs": [
        {
          "internalType": "uint256",
          "name": "",
          "type": "uint256"
        }
      ],
      "stateMutability": "view",
      "type": "function"
    },
    {
      "inputs": [
        {
          "internalType": "uint256",
          "name": "_patientId",
          "type": "uint256"
        },
        {
          "internalType": "uint256",
          "name": "index",
          "type": "uint256"
        }
      ],
      "name": "nominees",
      "outputs": [
        {
          "internalType": "address",
          "name": "",
          "type": "address"
        }
      ],
      "stateMutability": "view",
      "type": "function"
    },
    {
      "inputs": [
        {
          "internalType": "bytes32",
          "name": "_publicId",
          "type": "bytes32"
        },
        {
          "internalType": "string",
          "name": "_password",
          "type": "string"
        }
      ],
      "name": "loginPatient",
      "outputs": [
        {
          "internalType": "uint256",
          "name": "",
          "type": "uint256"
        }
      ],
      "stateMutability": "nonpayable",
      "type": "function"
    },
    {
      "inputs": [
        {
          "internalType": "uint256",
          "name": "_patientId",
          "type": "uint256"
        }
      ],
      "name": "verifyNominee",
      "outputs": [
        {
          "internalType": "address",
          "name": "",
          "type": "address"
        }
      ],
      "stateMutability": "view",
      "type": "function"
    },
    {
      "inputs": [
        {
          "internalType": "uint256",
          "name": "_patientId",
          "type": "uint256"
        },
        {
          "internalType": "bytes32[]",
          "name": "_providedAnswers",
          "type": "bytes32[]"
        }
      ],
      "name": "nomineeAccessData",
      "outputs": [
        {
          "internalType": "bool",
          "name": "",
          "type": "bool"
        }
      ],
      "stateMutability": "view",
      "type": "function"
    }
  ],
  "bytecode": "0x608060405234801561001057600080fd5b50612f20806100206000396000f3fe608060405234801561001057600080fd5b50600436106100f55760003560e01c8063904ec28411610097578063bdb0085211610066578063bdb00852146102b3578063bdcddca8146102e3578063c270a381146102ff578063d5d1ac571461032f576100f5565b8063904ec284146101fc5780639257e0df1461022c57806393119a831461025e578063a0303c4114610295576100f5565b8063313c390e116100d3578063313c390e14610176578063512d622d146101a65780636791244d146101c25780638f4fe09d146101f2576100f5565b80630bf0c817146100fa5780630c5d6c9d1461012a578063211d15d21461015a575b600080fd5b610114600480360381019061010f91906118b8565b61034b565b6040516101219190611939565b60405180910390f35b610144600480360381019061013f91906118b8565b610454565b6040516101519190611939565b60405180910390f35b610174600480360381019061016f9190611954565b6104a2565b005b610190600480360381019061018b9190611954565b610698565b60405161019d9190611990565b60405180910390f35b6101c060048036038101906101bb9190611b3a565b61070f565b005b6101dc60048036038101906101d79190611954565b610941565b6040516101e99190611939565b60405180910390f35b6101fa610a39565b005b61021660048036038101906102119190611b83565b610b2a565b6040516102239190611990565b60405180910390f35b61024660048036038101906102419190611bdc565b610b42565b60405161025593929190611c24565b60405180910390f35b61027860048036038101906102739190611954565b610b99565b60405161028c989796959493929190611ce9565b60405180910390f35b61029d610e2e565b6040516102aa9190611990565b60405180910390f35b6102cd60048036038101906102c89190611d83565b610e34565b6040516102da9190611ddf565b60405180910390f35b6102fd60048036038101906102f89190611eaf565b610f31565b005b61031960048036038101906103149190611fe4565b611355565b6040516103269190611990565b60405180910390f35b61034960048036038101906103449190612040565b61149c565b005b60008060008085815260200190815260200160002060000154036103a4576040517f08c379a000000000000000000000000000000000000000000000000000000000815260040161039b906120cc565b60405180910390fd5b600360008481526020019081526020016000208054905082106103fc576040517f08c379a00000000000000000000000000000000000000000000000000000000081526004016103f390612138565b60405180910390fd5b60036000848152602001908152602001600020828154811061042157610420612158565b5b9060005260206000200160009054906101000a900473ffffffffffffffffffffffffffffffffffffffff16905092915050565b6003602052816000526040600020818154811061047057600080fd5b906000526020600020016000915091509054906101000a900473ffffffffffffffffffffffffffffffffffffffff1681565b600080600083815260200190815260200160002060000154036104fa576040517f08c379a00000000000000000000000000000000000000000000000000000000081526004016104f1906120cc565b60405180910390fd5b600073ffffffffffffffffffffffffffffffffffffffff1660008083815260200190815260200160002060040160009054906101000a900473ffffffffffffffffffffffffffffffffffffffff1673ffffffffffffffffffffffffffffffffffffffff160361059e576040517f08c379a0000000000000000000000000000000000000000000000000000000008152600401610595906121d3565b60405180910390fd5b600080600083815260200190815260200160002060040160009054906101000a900473ffffffffffffffffffffffffffffffffffffffff169050600080600084815260200190815260200160002060040160006101000a81548173ffffffffffffffffffffffffffffffffffffffff021916908373ffffffffffffffffffffffffffffffffffffffff160217905550600080600084815260200190815260200160002060070160006101000a81548160ff0219169083151502179055507f8eddd36c4893c05de84fd7ba704ddacffc91a152a25aee8a8b0f1ab29ba46502828260405161068c9291906121f3565b60405180910390a15050565b60008060008084815260200190815260200160002060000154036106f1576040517f08c379a00000000000000000000000000000000000000000000000000000000081526004016106e8906120cc565b60405180910390fd5b60036000838152602001908152602001600020805490509050919050565b6000600260003373ffffffffffffffffffffffffffffffffffffffff1673ffffffffffffffffffffffffffffffffffffffff16815260200190815260200160002090508060010160149054906101000a900460ff166107a3576040517f08c379a000000000000000000000000000000000000000000000000000000000815260040161079a90612268565b60405180910390fd5b60008060008360000154815260200190815260200160002090506107cb81600001548461172b565b61080a576040517f08c379a0000000000000000000000000000000000000000000000000000000008152600401610801906122fa565b60405180910390fd5b338160040160006101000a81548173ffffffffffffffffffffffffffffffffffffffff021916908373ffffffffffffffffffffffffffffffffffffffff16021790555060018160070160006101000a81548160ff0219169083151502179055506003600083600001548152602001908152602001600020339080600181540180825580915050600190039060005260206000200160009091909190916101000a81548173ffffffffffffffffffffffffffffffffffffffff021916908373ffffffffffffffffffffffffffffffffffffffff16021790555060008260010160146101000a81548160ff0219169083151502179055507f75542d90a1e78bd829144fede12b2ce76dcecdb5ced07108140bff05ff38bd738260000154336040516109349291906121f3565b60405180910390a1505050565b600080600080848152602001908152602001600020600001540361099a576040517f08c379a0000000000000000000000000000000000000000000000000000000008152600401610991906120cc565b60405180910390fd5b60008083815260200190815260200160002060070160009054906101000a900460ff166109fc576040517f08c379a00000000000000000000000000000000000000000000000000000000081526004016109f390612366565b60405180910390fd5b60008083815260200190815260200160002060040160009054906101000a900473ffffffffffffffffffffffffffffffffffffffff169050919050565b6000600260003373ffffffffffffffffffffffffffffffffffffffff1673ffffffffffffffffffffffffffffffffffffffff16815260200190815260200160002090508060010160149054906101000a900460ff16610acd576040517f08c379a0000000000000000000000000000000000000000000000000000000008152600401610ac490612268565b60405180910390fd5b60008160010160146101000a81548160ff0219169083151502179055507f0bc73540d196f772b2be28c147346b626fda949d55cf8b34375744f4abff23b0816000015433604051610b1f9291906121f3565b60405180910390a150565b60016020528060005260406000206000915090505481565b60026020528060005260406000206000915090508060000154908060010160009054906101000a900473ffffffffffffffffffffffffffffffffffffffff16908060010160149054906101000a900460ff16905083565b6000602052806000526040600020600091509050806000015490806001018054610bc2906123b5565b80601f0160208091040260200160405190810160405280929190818152602001828054610bee906123b5565b8015610c3b5780601f10610c1057610100808354040283529160200191610c3b565b820191906000526020600020905b815481529060010190602001808311610c1e57829003601f168201915b505050505090806002018054610c50906123b5565b80601f0160208091040260200160405190810160405280929190818152602001828054610c7c906123b5565b8015610cc95780601f10610c9e57610100808354040283529160200191610cc9565b820191906000526020600020905b815481529060010190602001808311610cac57829003601f168201915b505050505090806003018054610cde906123b5565b80601f0160208091040260200160405190810160405280929190818152602001828054610d0a906123b5565b8015610d575780601f10610d2c57610100808354040283529160200191610d57565b820191906000526020600020905b815481529060010190602001808311610d3a57829003601f168201915b5050505050908060040160009054906101000a900473ffffffffffffffffffffffffffffffffffffffff1690806005015490806006018054610d98906123b5565b80601f0160208091040260200160405190810160405280929190818152602001828054610dc4906123b5565b8015610e115780601f10610de657610100808354040283529160200191610e11565b820191906000526020600020905b815481529060010190602001808311610df457829003601f168201915b5050505050908060070160009054906101000a900460ff16905088565b60045481565b60008060008085815260200190815260200160002090503373ffffffffffffffffffffffffffffffffffffffff168160040160009054906101000a900473ffffffffffffffffffffffffffffffffffffffff1673ffffffffffffffffffffffffffffffffffffffff1614610edd576040517f08c379a0000000000000000000000000000000000000000000000000000000008152600401610ed490612458565b60405180910390fd5b610ee7848461172b565b610f26576040517f08c379a0000000000000000000000000000000000000000000000000000000008152600401610f1d906122fa565b60405180910390fd5b600191505092915050565b6000865111610f75576040517f08c379a0000000000000000000000000000000000000000000000000000000008152600401610f6c906124c4565b60405180910390fd5b6000855111610fb9576040517f08c379a0000000000000000000000000000000000000000000000000000000008152600401610fb090612530565b60405180910390fd5b6000845111610ffd576040517f08c379a0000000000000000000000000000000000000000000000000000000008152600401610ff49061259c565b60405180910390fd5b6000835111611041576040517f08c379a000000000000000000000000000000000000000000000000000000000815260040161103890612608565b60405180910390fd5b6000825111611085576040517f08c379a000000000000000000000000000000000000000000000000000000000815260040161107c9061269a565b60405180910390fd5b80518251146110c9576040517f08c379a00000000000000000000000000000000000000000000000000000000081526004016110c09061272c565b60405180910390fd5b600460008154809291906110dc9061277b565b91905055506000866004546040516020016110f8929190612820565b6040516020818303038152906040528051906020012090506000600160008381526020019081526020016000205414611166576040517f08c379a000000000000000000000000000000000000000000000000000000000815260040161115d90612894565b60405180910390fd5b6040518061014001604052806004548152602001888152602001878152602001868152602001600073ffffffffffffffffffffffffffffffffffffffff1681526020018281526020018581526020016000151581526020018481526020018381525060008060045481526020019081526020016000206000820151816000015560208201518160010190816111fb9190612a60565b5060408201518160020190816112119190612a60565b5060608201518160030190816112279190612a60565b5060808201518160040160006101000a81548173ffffffffffffffffffffffffffffffffffffffff021916908373ffffffffffffffffffffffffffffffffffffffff16021790555060a0820151816005015560c082015181600601908161128e9190612a60565b5060e08201518160070160006101000a81548160ff0219169083151502179055506101008201518160080190805190602001906112cc929190611804565b506101208201518160090190805190602001906112ea929190611804565b5090505060045460016000838152602001908152602001600020819055507feb08cd196c7ecdad3dd8bc69658e66c9f94f55315e53b09c513e67e740aacf1b60045488888860008660405161134496959493929190612b32565b60405180910390a150505050505050565b60008060016000858152602001908152602001600020549050600081036113b1576040517f08c379a00000000000000000000000000000000000000000000000000000000081526004016113a890612bf4565b60405180910390fd5b60008060008381526020019081526020016000209050836040516020016113d89190612c14565b60405160208183030381529060405280519060200120816006016040516020016114029190612cae565b6040516020818303038152906040528051906020012014611458576040517f08c379a000000000000000000000000000000000000000000000000000000000815260040161144f90612d11565b60405180910390fd5b7ff6b63364237b32a08910c63719d557a9a5c898d6f11beda8b33fd04864d0ea6a8286604051611489929190612d31565b60405180910390a1819250505092915050565b600080600084815260200190815260200160002060000154036114f4576040517f08c379a00000000000000000000000000000000000000000000000000000000081526004016114eb906120cc565b60405180910390fd5b600073ffffffffffffffffffffffffffffffffffffffff168173ffffffffffffffffffffffffffffffffffffffff1603611563576040517f08c379a000000000000000000000000000000000000000000000000000000000815260040161155a90612da6565b60405180910390fd5b600073ffffffffffffffffffffffffffffffffffffffff1660008084815260200190815260200160002060040160009054906101000a900473ffffffffffffffffffffffffffffffffffffffff1673ffffffffffffffffffffffffffffffffffffffff1614611607576040517f08c379a00000000000000000000000000000000000000000000000000000000081526004016115fe90612e38565b60405180910390fd5b60405180606001604052808381526020018273ffffffffffffffffffffffffffffffffffffffff16815260200160011515815250600260008373ffffffffffffffffffffffffffffffffffffffff1673ffffffffffffffffffffffffffffffffffffffff1681526020019081526020016000206000820151816000015560208201518160010160006101000a81548173ffffffffffffffffffffffffffffffffffffffff021916908373ffffffffffffffffffffffffffffffffffffffff16021790555060408201518160010160146101000a81548160ff0219169083151502179055509050507fc4ba7cd236a1902107a52d42a25842cc3d6be617cd2f2d0de44d6de56fcff04a828260405161171f9291906121f3565b60405180910390a15050565b6000806000808581526020019081526020016000209050806008018054905083511461178c576040517f08c379a000000000000000000000000000000000000000000000000000000000815260040161178390612eca565b60405180910390fd5b60005b83518110156117f7578160090181815481106117ae576117ad612158565b5b90600052602060002001548482815181106117cc576117cb612158565b5b6020026020010151146117e4576000925050506117fe565b80806117ef9061277b565b91505061178f565b5060019150505b92915050565b828054828255906000526020600020908101928215611840579160200282015b8281111561183f578251825591602001919060010190611824565b5b50905061184d9190611851565b5090565b5b8082111561186a576000816000905550600101611852565b5090565b6000604051905090565b600080fd5b600080fd5b6000819050919050565b61189581611882565b81146118a057600080fd5b50565b6000813590506118b28161188c565b92915050565b600080604083850312156118cf576118ce611878565b5b60006118dd858286016118a3565b92505060206118ee858286016118a3565b9150509250929050565b600073ffffffffffffffffffffffffffffffffffffffff82169050919050565b6000611923826118f8565b9050919050565b61193381611918565b82525050565b600060208201905061194e600083018461192a565b92915050565b60006020828403121561196a57611969611878565b5b6000611978848285016118a3565b91505092915050565b61198a81611882565b82525050565b60006020820190506119a56000830184611981565b92915050565b600080fd5b6000601f19601f8301169050919050565b7f4e487b7100000000000000000000000000000000000000000000000000000000600052604160045260246000fd5b6119f9826119b0565b810181811067ffffffffffffffff82111715611a1857611a176119c1565b5b80604052505050565b6000611a2b61186e565b9050611a3782826119f0565b919050565b600067ffffffffffffffff821115611a5757611a566119c1565b5b602082029050602081019050919050565b600080fd5b6000819050919050565b611a8081611a6d565b8114611a8b57600080fd5b50565b600081359050611a9d81611a77565b92915050565b6000611ab6611ab184611a3c565b611a21565b90508083825260208201905060208402830185811115611ad957611ad8611a68565b5b835b81811015611b025780611aee8882611a8e565b845260208401935050602081019050611adb565b5050509392505050565b600082601f830112611b2157611b206119ab565b5b8135611b31848260208601611aa3565b91505092915050565b600060208284031215611b5057611b4f611878565b5b600082013567ffffffffffffffff811115611b6e57611b6d61187d565b5b611b7a84828501611b0c565b91505092915050565b600060208284031215611b9957611b98611878565b5b6000611ba784828501611a8e565b91505092915050565b611bb981611918565b8114611bc457600080fd5b50565b600081359050611bd681611bb0565b92915050565b600060208284031215611bf257611bf1611878565b5b6000611c0084828501611bc7565b91505092915050565b60008115159050919050565b611c1e81611c09565b82525050565b6000606082019050611c396000830186611981565b611c46602083018561192a565b611c536040830184611c15565b949350505050565b600081519050919050565b600082825260208201905092915050565b60005b83811015611c95578082015181840152602081019050611c7a565b60008484015250505050565b6000611cac82611c5b565b611cb68185611c66565b9350611cc6818560208601611c77565b611ccf816119b0565b840191505092915050565b611ce381611a6d565b82525050565b600061010082019050611cff600083018b611981565b8181036020830152611d11818a611ca1565b90508181036040830152611d258189611ca1565b90508181036060830152611d398188611ca1565b9050611d48608083018761192a565b611d5560a0830186611cda565b81810360c0830152611d678185611ca1565b9050611d7660e0830184611c15565b9998505050505050505050565b60008060408385031215611d9a57611d99611878565b5b6000611da8858286016118a3565b925050602083013567ffffffffffffffff811115611dc957611dc861187d565b5b611dd585828601611b0c565b9150509250929050565b6000602082019050611df46000830184611c15565b92915050565b600080fd5b600067ffffffffffffffff821115611e1a57611e196119c1565b5b611e23826119b0565b9050602081019050919050565b82818337600083830152505050565b6000611e52611e4d84611dff565b611a21565b905082815260208101848484011115611e6e57611e6d611dfa565b5b611e79848285611e30565b509392505050565b600082601f830112611e9657611e956119ab565b5b8135611ea6848260208601611e3f565b91505092915050565b60008060008060008060c08789031215611ecc57611ecb611878565b5b600087013567ffffffffffffffff811115611eea57611ee961187d565b5b611ef689828a01611e81565b965050602087013567ffffffffffffffff811115611f1757611f1661187d565b5b611f2389828a01611e81565b955050604087013567ffffffffffffffff811115611f4457611f4361187d565b5b611f5089828a01611e81565b945050606087013567ffffffffffffffff811115611f7157611f7061187d565b5b611f7d89828a01611e81565b935050608087013567ffffffffffffffff811115611f9e57611f9d61187d565b5b611faa89828a01611b0c565b92505060a087013567ffffffffffffffff811115611fcb57611fca61187d565b5b611fd789828a01611b0c565b9150509295509295509295565b60008060408385031215611ffb57611ffa611878565b5b600061200985828601611a8e565b925050602083013567ffffffffffffffff81111561202a5761202961187d565b5b61203685828601611e81565b9150509250929050565b6000806040838503121561205757612056611878565b5b6000612065858286016118a3565b925050602061207685828601611bc7565b9150509250929050565b7f50617469656e7420646f6573206e6f742065786973742e000000000000000000600082015250565b60006120b6601783611c66565b91506120c182612080565b602082019050919050565b600060208201905081810360008301526120e5816120a9565b9050919050565b7f496e646578206f7574206f6620626f756e64732e000000000000000000000000600082015250565b6000612122601483611c66565b915061212d826120ec565b602082019050919050565b6000602082019050818103600083015261215181612115565b9050919050565b7f4e487b7100000000000000000000000000000000000000000000000000000000600052603260045260246000fd5b7f4e6f206e6f6d696e65652061737369676e65642e000000000000000000000000600082015250565b60006121bd601483611c66565b91506121c882612187565b602082019050919050565b600060208201905081810360008301526121ec816121b0565b9050919050565b60006040820190506122086000830185611981565b612215602083018461192a565b9392505050565b7f4e6f2070656e64696e67206e6f6d696e656520726571756573742e0000000000600082015250565b6000612252601b83611c66565b915061225d8261221c565b602082019050919050565b6000602082019050818103600083015261228181612245565b9050919050565b7f5365637572697479207175657374696f6e7320766572696669636174696f6e2060008201527f6661696c65642e00000000000000000000000000000000000000000000000000602082015250565b60006122e4602783611c66565b91506122ef82612288565b604082019050919050565b60006020820190508181036000830152612313816122d7565b9050919050565b7f4e6f6d696e6565206e6f7420636f6e6669726d65642e00000000000000000000600082015250565b6000612350601683611c66565b915061235b8261231a565b602082019050919050565b6000602082019050818103600083015261237f81612343565b9050919050565b7f4e487b7100000000000000000000000000000000000000000000000000000000600052602260045260246000fd5b600060028204905060018216806123cd57607f821691505b6020821081036123e0576123df612386565b5b50919050565b7f4f6e6c7920746865206e6f6d696e65652063616e20616363657373207468652060008201527f646174612e000000000000000000000000000000000000000000000000000000602082015250565b6000612442602583611c66565b915061244d826123e6565b604082019050919050565b6000602082019050818103600083015261247181612435565b9050919050565b7f50617469656e74206e616d652063616e6e6f7420626520656d7074792e000000600082015250565b60006124ae601d83611c66565b91506124b982612478565b602082019050919050565b600060208201905081810360008301526124dd816124a1565b9050919050565b7f436f6e746163742063616e6e6f7420626520656d7074792e0000000000000000600082015250565b600061251a601883611c66565b9150612525826124e4565b602082019050919050565b600060208201905081810360008301526125498161250d565b9050919050565b7f416464726573732063616e6e6f7420626520656d7074792e0000000000000000600082015250565b6000612586601883611c66565b915061259182612550565b602082019050919050565b600060208201905081810360008301526125b581612579565b9050919050565b7f50617373776f72642063616e6e6f7420626520656d7074792e00000000000000600082015250565b60006125f2601983611c66565b91506125fd826125bc565b602082019050919050565b60006020820190508181036000830152612621816125e5565b9050919050565b7f4174206c65617374206f6e65207365637572697479207175657374696f6e206960008201527f732072657175697265642e000000000000000000000000000000000000000000602082015250565b6000612684602b83611c66565b915061268f82612628565b604082019050919050565b600060208201905081810360008301526126b381612677565b9050919050565b7f5365637572697479207175657374696f6e7320616e6420616e7377657273206d60008201527f757374206d6174636820696e206c656e6774682e000000000000000000000000602082015250565b6000612716603483611c66565b9150612721826126ba565b604082019050919050565b6000602082019050818103600083015261274581612709565b9050919050565b7f4e487b7100000000000000000000000000000000000000000000000000000000600052601160045260246000fd5b600061278682611882565b91507fffffffffffffffffffffffffffffffffffffffffffffffffffffffffffffffff82036127b8576127b761274c565b5b600182019050919050565b600081905092915050565b60006127d982611c5b565b6127e381856127c3565b93506127f3818560208601611c77565b80840191505092915050565b6000819050919050565b61281a61281582611882565b6127ff565b82525050565b600061282c82856127ce565b91506128388284612809565b6020820191508190509392505050565b7f5075626c696320494420616c7265616479206578697374732e00000000000000600082015250565b600061287e601983611c66565b915061288982612848565b602082019050919050565b600060208201905081810360008301526128ad81612871565b9050919050565b60008190508160005260206000209050919050565b60006020601f8301049050919050565b600082821b905092915050565b6000600883026129167fffffffffffffffffffffffffffffffffffffffffffffffffffffffffffffffff826128d9565b61292086836128d9565b95508019841693508086168417925050509392505050565b6000819050919050565b600061295d61295861295384611882565b612938565b611882565b9050919050565b6000819050919050565b61297783612942565b61298b61298382612964565b8484546128e6565b825550505050565b600090565b6129a0612993565b6129ab81848461296e565b505050565b5b818110156129cf576129c4600082612998565b6001810190506129b1565b5050565b601f821115612a14576129e5816128b4565b6129ee846128c9565b810160208510156129fd578190505b612a11612a09856128c9565b8301826129b0565b50505b505050565b600082821c905092915050565b6000612a3760001984600802612a19565b1980831691505092915050565b6000612a508383612a26565b9150826002028217905092915050565b612a6982611c5b565b67ffffffffffffffff811115612a8257612a816119c1565b5b612a8c82546123b5565b612a978282856129d3565b600060209050601f831160018114612aca5760008415612ab8578287015190505b612ac28582612a44565b865550612b2a565b601f198416612ad8866128b4565b60005b82811015612b0057848901518255600182019150602085019450602081019050612adb565b86831015612b1d5784890151612b19601f891682612a26565b8355505b6001600288020188555050505b505050505050565b600060c082019050612b476000830189611981565b8181036020830152612b598188611ca1565b90508181036040830152612b6d8187611ca1565b90508181036060830152612b818186611ca1565b9050612b90608083018561192a565b612b9d60a0830184611cda565b979650505050505050565b7f496e76616c6964207075626c69632049442e0000000000000000000000000000600082015250565b6000612bde601283611c66565b9150612be982612ba8565b602082019050919050565b60006020820190508181036000830152612c0d81612bd1565b9050919050565b6000612c2082846127ce565b915081905092915050565b60008154612c38816123b5565b612c4281866127c3565b94506001821660008114612c5d5760018114612c7257612ca5565b60ff1983168652811515820286019350612ca5565b612c7b856128b4565b60005b83811015612c9d57815481890152600182019150602081019050612c7e565b838801955050505b50505092915050565b6000612cba8284612c2b565b915081905092915050565b7f496e76616c69642070617373776f72642e000000000000000000000000000000600082015250565b6000612cfb601183611c66565b9150612d0682612cc5565b602082019050919050565b60006020820190508181036000830152612d2a81612cee565b9050919050565b6000604082019050612d466000830185611981565b612d536020830184611cda565b9392505050565b7f4e6f6d696e656520616464726573732063616e6e6f74206265207a65726f2e00600082015250565b6000612d90601f83611c66565b9150612d9b82612d5a565b602082019050919050565b60006020820190508181036000830152612dbf81612d83565b9050919050565b7f4e6f6d696e656520616c72656164792061737369676e65642e205265766f6b6560008201527f207468652063757272656e74206e6f6d696e65652066697273742e0000000000602082015250565b6000612e22603b83611c66565b9150612e2d82612dc6565b604082019050919050565b60006020820190508181036000830152612e5181612e15565b9050919050565b7f4d69736d6174636820696e206e756d626572206f66207365637572697479207160008201527f75657374696f6e732e0000000000000000000000000000000000000000000000602082015250565b6000612eb4602983611c66565b9150612ebf82612e58565b604082019050919050565b60006020820190508181036000830152612ee381612ea7565b905091905056fea264697066735822122012e790bfec1dfa55313804d9f9d339ca1b3b67a2bd3e640dd3372dc103cb7a5664736f6c63430008110033",
  "immutableReferences": {},
  "source": "// SPDX-License-Identifier: MIT\r\npragma solidity ^0.8.0;\r\n\r\ncontract PatientManagementAndNominee {\r\n    struct Patient {\r\n        uint256 id;               // Auto-generated ID for the patient\r\n        string name;              // Patient's name\r\n        string contact;           // Patient's contact number\r\n        string patientAddress;    // Patient's address\r\n        address nominee;          // Nominee's address (can be address(0) if not provided)\r\n        bytes32 publicId;         // Public ID for the patient\r\n        string password;          // Patient's password for login\r\n        bool nomineeConfirmed;    // Confirmation status of nominee\r\n        bytes32[] securityQuestions;  // Array of hashed security questions for nominee access\r\n        bytes32[] securityAnswers;    // Array of hashed security answers for nominee access\r\n    }\r\n\r\n    struct NomineeRequest {\r\n        uint256 patientId;\r\n        address nomineeAddress;\r\n        bool isPending;\r\n    }\r\n\r\n    mapping(uint256 => Patient) public patients;               // Mapping from patient ID to Patient struct\r\n    mapping(bytes32 => uint256) public publicIdToPatientId;    // Mapping from public ID to patient ID\r\n    mapping(address => NomineeRequest) public nomineeRequests; // Mapping from nominee address to their pending request\r\n    mapping(uint256 => address[]) public patientNominees;      // Mapping from patient ID to their nominees\r\n    uint256 public patientCount;                               // Counter for patients\r\n\r\n    event PatientRegistered(uint256 id, string name, string contact, string patientAddress, address nominee, bytes32 publicId);\r\n    event NomineeRequestSent(uint256 patientId, address nominee);\r\n    event NomineeRequestAccepted(uint256 patientId, address nominee);\r\n    event NomineeRequestRejected(uint256 patientId, address nominee);\r\n    event NomineeCanceled(uint256 patientId, address nominee);\r\n    event LoginSuccess(uint256 patientId, bytes32 publicId);\r\n\r\n    // Register patient with optional nominee and additional details\r\n    function registerPatient(\r\n        string memory _name,\r\n        string memory _contact,\r\n        string memory _patientAddress,\r\n        string memory _password,\r\n        bytes32[] memory _securityQuestions,\r\n        bytes32[] memory _securityAnswers\r\n    ) public {\r\n        require(bytes(_name).length > 0, \"Patient name cannot be empty.\");\r\n        require(bytes(_contact).length > 0, \"Contact cannot be empty.\");\r\n        require(bytes(_patientAddress).length > 0, \"Address cannot be empty.\");\r\n        require(bytes(_password).length > 0, \"Password cannot be empty.\");\r\n        require(_securityQuestions.length > 0, \"At least one security question is required.\");\r\n        require(_securityQuestions.length == _securityAnswers.length, \"Security questions and answers must match in length.\");\r\n        \r\n        patientCount++;\r\n        bytes32 publicId = keccak256(abi.encodePacked(_name, patientCount)); // Generate unique public ID\r\n\r\n        // Ensure public ID is unique\r\n        require(publicIdToPatientId[publicId] == 0, \"Public ID already exists.\");\r\n\r\n        // Create the patient with nominee set to address(0) initially (no nominee)\r\n        patients[patientCount] = Patient(\r\n            patientCount, \r\n            _name, \r\n            _contact, \r\n            _patientAddress, \r\n            address(0), \r\n            publicId, \r\n            _password, \r\n            false, \r\n            _securityQuestions, \r\n            _securityAnswers\r\n        );\r\n        publicIdToPatientId[publicId] = patientCount;\r\n        \r\n        emit PatientRegistered(patientCount, _name, _contact, _patientAddress, address(0), publicId);\r\n    }\r\n\r\n    // Send a nominee request (patient initiates the request)\r\n    function updateNominee(uint256 _patientId, address _newNominee) public {\r\n        require(patients[_patientId].id != 0, \"Patient does not exist.\");\r\n        require(_newNominee != address(0), \"Nominee address cannot be zero.\");\r\n        require(patients[_patientId].nominee == address(0), \"Nominee already assigned. Revoke the current nominee first.\");\r\n\r\n        // Create a pending nominee request\r\n        nomineeRequests[_newNominee] = NomineeRequest(_patientId, _newNominee, true);\r\n        emit NomineeRequestSent(_patientId, _newNominee);\r\n    }\r\n\r\n    // Nominee accepts the request\r\n    function acceptNomineeRequest(bytes32[] memory _providedAnswers) public {\r\n        NomineeRequest storage request = nomineeRequests[msg.sender];\r\n        require(request.isPending, \"No pending nominee request.\");\r\n\r\n        Patient storage patient = patients[request.patientId];\r\n        require(verifySecurityQuestions(patient.id, _providedAnswers), \"Security questions verification failed.\");\r\n\r\n        patient.nominee = msg.sender;\r\n        patient.nomineeConfirmed = true;\r\n\r\n        // Add nominee to patient's nominee list\r\n        patientNominees[request.patientId].push(msg.sender);\r\n\r\n        // Clear the pending request\r\n        request.isPending = false;\r\n\r\n        emit NomineeRequestAccepted(request.patientId, msg.sender);\r\n    }\r\n\r\n    // Nominee rejects the request\r\n    function rejectNomineeRequest() public {\r\n        NomineeRequest storage request = nomineeRequests[msg.sender];\r\n        require(request.isPending, \"No pending nominee request.\");\r\n\r\n        // Clear the pending request\r\n        request.isPending = false;\r\n\r\n        emit NomineeRequestRejected(request.patientId, msg.sender);\r\n    }\r\n\r\n    // Cancel nominee (done by the patient)\r\n    function cancelNominee(uint256 _patientId) public {\r\n        require(patients[_patientId].id != 0, \"Patient does not exist.\");\r\n        require(patients[_patientId].nominee != address(0), \"No nominee assigned.\");\r\n        \r\n        address oldNominee = patients[_patientId].nominee;\r\n        patients[_patientId].nominee = address(0);\r\n        patients[_patientId].nomineeConfirmed = false;\r\n\r\n        emit NomineeCanceled(_patientId, oldNominee);\r\n    }\r\n\r\n    // Get nominees for a patient\r\n    function getNomineesCount(uint256 _patientId) public view returns (uint256) {\r\n        require(patients[_patientId].id != 0, \"Patient does not exist.\");\r\n        return patientNominees[_patientId].length;\r\n    }\r\n\r\n    function nominees(uint256 _patientId, uint256 index) public view returns (address) {\r\n        require(patients[_patientId].id != 0, \"Patient does not exist.\");\r\n        require(index < patientNominees[_patientId].length, \"Index out of bounds.\");\r\n        return patientNominees[_patientId][index];\r\n    }\r\n\r\n    // Login function using public ID and password\r\n    function loginPatient(bytes32 _publicId, string memory _password) public returns (uint256) {\r\n        uint256 patientId = publicIdToPatientId[_publicId];\r\n        require(patientId != 0, \"Invalid public ID.\");\r\n        \r\n        Patient storage patient = patients[patientId];\r\n        require(\r\n            keccak256(abi.encodePacked(patient.password)) == keccak256(abi.encodePacked(_password)),\r\n            \"Invalid password.\"\r\n        );\r\n\r\n        emit LoginSuccess(patientId, _publicId);\r\n        return patientId;\r\n    }\r\n\r\n    // Verify nominee (to check the nominee for a patient)\r\n    function verifyNominee(uint256 _patientId) public view returns (address) {\r\n        require(patients[_patientId].id != 0, \"Patient does not exist.\");\r\n        require(patients[_patientId].nomineeConfirmed, \"Nominee not confirmed.\");\r\n        return patients[_patientId].nominee;\r\n    }\r\n\r\n    // Verify security questions (nominee answers for accessing the patient's data)\r\n    function verifySecurityQuestions(uint256 _patientId, bytes32[] memory _providedAnswers) internal view returns (bool) {\r\n        Patient storage patient = patients[_patientId];\r\n        require(_providedAnswers.length == patient.securityQuestions.length, \"Mismatch in number of security questions.\");\r\n\r\n        for (uint256 i = 0; i < _providedAnswers.length; i++) {\r\n            if (_providedAnswers[i] != patient.securityAnswers[i]) {\r\n                return false;\r\n            }\r\n        }\r\n        return true;\r\n    }\r\n\r\n    // Nominee can access patients data if they answer security questions correctly\r\n    function nomineeAccessData(uint256 _patientId, bytes32[] memory _providedAnswers) public view returns (bool) {\r\n        Patient storage patient = patients[_patientId];\r\n        require(patient.nominee == msg.sender, \"Only the nominee can access the data.\");\r\n        require(verifySecurityQuestions(_patientId, _providedAnswers), \"Security questions verification failed.\");\r\n        \r\n        // Nominee can now access the patients data (placeholder for data retrieval logic)\r\n        return true;\r\n    }\r\n}\r\n",
  "sourcePath": "C:\\Users\\HP\\project folders\\HospitalManagementBlockchain\\contracts\\PatientManagementAndNominee.sol",
  "compiler": {
    "name": "solc",
    "version": "0.8.17+commit.8df45f5f.Emscripten.clang"
  },
  "schemaVersion": "3.4.16",
  "updatedAt": "2024-10-22T09:55:45.497Z",
  "devdoc": {
    "kind": "dev",
    "methods": {},
    "version": 1
  },
  "userdoc": {
    "kind": "user",
    "methods": {},
    "version": 1
  }
}