{
  "contractName": "PatientManagementAndNominee",
  "abi": [
    {
      "anonymous": false,
      "inputs": [
        {
          "indexed": false,
          "internalType": "uint256",
          "name": "patientId",
          "type": "uint256"
        },
        {
          "indexed": false,
          "internalType": "bytes32",
          "name": "publicId",
          "type": "bytes32"
        }
      ],
      "name": "LoginSuccess",
      "type": "event"
    },
    {
      "anonymous": false,
      "inputs": [
        {
          "indexed": false,
          "internalType": "uint256",
          "name": "patientId",
          "type": "uint256"
        },
        {
          "indexed": false,
          "internalType": "address",
          "name": "newNominee",
          "type": "address"
        }
      ],
      "name": "NomineeUpdated",
      "type": "event"
    },
    {
      "anonymous": false,
      "inputs": [
        {
          "indexed": false,
          "internalType": "uint256",
          "name": "id",
          "type": "uint256"
        },
        {
          "indexed": false,
          "internalType": "string",
          "name": "name",
          "type": "string"
        },
        {
          "indexed": false,
          "internalType": "string",
          "name": "contact",
          "type": "string"
        },
        {
          "indexed": false,
          "internalType": "string",
          "name": "patientAddress",
          "type": "string"
        },
        {
          "indexed": false,
          "internalType": "address",
          "name": "nominee",
          "type": "address"
        },
        {
          "indexed": false,
          "internalType": "bytes32",
          "name": "publicId",
          "type": "bytes32"
        }
      ],
      "name": "PatientRegistered",
      "type": "event"
    },
    {
      "inputs": [],
      "name": "patientCount",
      "outputs": [
        {
          "internalType": "uint256",
          "name": "",
          "type": "uint256"
        }
      ],
      "stateMutability": "view",
      "type": "function"
    },
    {
      "inputs": [
        {
          "internalType": "uint256",
          "name": "",
          "type": "uint256"
        }
      ],
      "name": "patients",
      "outputs": [
        {
          "internalType": "uint256",
          "name": "id",
          "type": "uint256"
        },
        {
          "internalType": "string",
          "name": "name",
          "type": "string"
        },
        {
          "internalType": "string",
          "name": "contact",
          "type": "string"
        },
        {
          "internalType": "string",
          "name": "patientAddress",
          "type": "string"
        },
        {
          "internalType": "address",
          "name": "nominee",
          "type": "address"
        },
        {
          "internalType": "bytes32",
          "name": "publicId",
          "type": "bytes32"
        },
        {
          "internalType": "string",
          "name": "password",
          "type": "string"
        }
      ],
      "stateMutability": "view",
      "type": "function"
    },
    {
      "inputs": [
        {
          "internalType": "bytes32",
          "name": "",
          "type": "bytes32"
        }
      ],
      "name": "publicIdToPatientId",
      "outputs": [
        {
          "internalType": "uint256",
          "name": "",
          "type": "uint256"
        }
      ],
      "stateMutability": "view",
      "type": "function"
    },
    {
      "inputs": [
        {
          "internalType": "string",
          "name": "_name",
          "type": "string"
        },
        {
          "internalType": "string",
          "name": "_contact",
          "type": "string"
        },
        {
          "internalType": "string",
          "name": "_patientAddress",
          "type": "string"
        },
        {
          "internalType": "string",
          "name": "_password",
          "type": "string"
        }
      ],
      "name": "registerPatient",
      "outputs": [],
      "stateMutability": "nonpayable",
      "type": "function"
    },
    {
      "inputs": [
        {
          "internalType": "uint256",
          "name": "_patientId",
          "type": "uint256"
        },
        {
          "internalType": "address",
          "name": "_newNominee",
          "type": "address"
        }
      ],
      "name": "updateNominee",
      "outputs": [],
      "stateMutability": "nonpayable",
      "type": "function"
    },
    {
      "inputs": [
        {
          "internalType": "bytes32",
          "name": "_publicId",
          "type": "bytes32"
        },
        {
          "internalType": "string",
          "name": "_password",
          "type": "string"
        }
      ],
      "name": "loginPatient",
      "outputs": [
        {
          "internalType": "uint256",
          "name": "",
          "type": "uint256"
        }
      ],
      "stateMutability": "nonpayable",
      "type": "function"
    },
    {
      "inputs": [
        {
          "internalType": "uint256",
          "name": "_patientId",
          "type": "uint256"
        }
      ],
      "name": "verifyNominee",
      "outputs": [
        {
          "internalType": "address",
          "name": "",
          "type": "address"
        }
      ],
      "stateMutability": "nonpayable",
      "type": "function"
    }
  ],
  "bytecode": "0x608060405234801561001057600080fd5b50611873806100206000396000f3fe608060405234801561001057600080fd5b506004361061007d5760003560e01c806393119a831161005b57806393119a83146100fe578063a0303c4114610134578063c270a38114610152578063d5d1ac57146101825761007d565b80634ba0a020146100825780636791244d1461009e578063904ec284146100ce575b600080fd5b61009c60048036038101906100979190610b86565b61019e565b005b6100b860048036038101906100b39190610c93565b6104c6565b6040516100c59190610d01565b60405180910390f35b6100e860048036038101906100e39190610d52565b61055c565b6040516100f59190610d8e565b60405180910390f35b61011860048036038101906101139190610c93565b610574565b60405161012b9796959493929190610e37565b60405180910390f35b61013c6107f6565b6040516101499190610d8e565b60405180910390f35b61016c60048036038101906101679190610ec2565b6107fc565b6040516101799190610d8e565b60405180910390f35b61019c60048036038101906101979190610f4a565b610943565b005b60008451116101e2576040517f08c379a00000000000000000000000000000000000000000000000000000000081526004016101d990610fd6565b60405180910390fd5b6000835111610226576040517f08c379a000000000000000000000000000000000000000000000000000000000815260040161021d90611042565b60405180910390fd5b600082511161026a576040517f08c379a0000000000000000000000000000000000000000000000000000000008152600401610261906110ae565b60405180910390fd5b60008151116102ae576040517f08c379a00000000000000000000000000000000000000000000000000000000081526004016102a59061111a565b60405180910390fd5b600260008154809291906102c190611169565b91905055506000846002546040516020016102dd92919061120e565b604051602081830303815290604052805190602001209050600060016000838152602001908152602001600020541461034b576040517f08c379a000000000000000000000000000000000000000000000000000000000815260040161034290611282565b60405180910390fd5b6040518060e001604052806002548152602001868152602001858152602001848152602001600073ffffffffffffffffffffffffffffffffffffffff1681526020018281526020018381525060008060025481526020019081526020016000206000820151816000015560208201518160010190816103ca91906114ae565b5060408201518160020190816103e091906114ae565b5060608201518160030190816103f691906114ae565b5060808201518160040160006101000a81548173ffffffffffffffffffffffffffffffffffffffff021916908373ffffffffffffffffffffffffffffffffffffffff16021790555060a0820151816005015560c082015181600601908161045d91906114ae565b5090505060025460016000838152602001908152602001600020819055507feb08cd196c7ecdad3dd8bc69658e66c9f94f55315e53b09c513e67e740aacf1b6002548686866000866040516104b796959493929190611580565b60405180910390a15050505050565b600080600080848152602001908152602001600020600001540361051f576040517f08c379a000000000000000000000000000000000000000000000000000000000815260040161051690611642565b60405180910390fd5b60008083815260200190815260200160002060040160009054906101000a900473ffffffffffffffffffffffffffffffffffffffff169050919050565b60016020528060005260406000206000915090505481565b600060205280600052604060002060009150905080600001549080600101805461059d906112d1565b80601f01602080910402602001604051908101604052809291908181526020018280546105c9906112d1565b80156106165780601f106105eb57610100808354040283529160200191610616565b820191906000526020600020905b8154815290600101906020018083116105f957829003601f168201915b50505050509080600201805461062b906112d1565b80601f0160208091040260200160405190810160405280929190818152602001828054610657906112d1565b80156106a45780601f10610679576101008083540402835291602001916106a4565b820191906000526020600020905b81548152906001019060200180831161068757829003601f168201915b5050505050908060030180546106b9906112d1565b80601f01602080910402602001604051908101604052809291908181526020018280546106e5906112d1565b80156107325780601f1061070757610100808354040283529160200191610732565b820191906000526020600020905b81548152906001019060200180831161071557829003601f168201915b5050505050908060040160009054906101000a900473ffffffffffffffffffffffffffffffffffffffff1690806005015490806006018054610773906112d1565b80601f016020809104026020016040519081016040528092919081815260200182805461079f906112d1565b80156107ec5780601f106107c1576101008083540402835291602001916107ec565b820191906000526020600020905b8154815290600101906020018083116107cf57829003601f168201915b5050505050905087565b60025481565b6000806001600085815260200190815260200160002054905060008103610858576040517f08c379a000000000000000000000000000000000000000000000000000000000815260040161084f906116ae565b60405180910390fd5b600080600083815260200190815260200160002090508360405160200161087f91906116ce565b60405160208183030381529060405280519060200120816006016040516020016108a99190611768565b60405160208183030381529060405280519060200120146108ff576040517f08c379a00000000000000000000000000000000000000000000000000000000081526004016108f6906117cb565b60405180910390fd5b7ff6b63364237b32a08910c63719d557a9a5c898d6f11beda8b33fd04864d0ea6a82866040516109309291906117eb565b60405180910390a1819250505092915050565b6000806000848152602001908152602001600020600001540361099b576040517f08c379a000000000000000000000000000000000000000000000000000000000815260040161099290611642565b60405180910390fd5b8060008084815260200190815260200160002060040160006101000a81548173ffffffffffffffffffffffffffffffffffffffff021916908373ffffffffffffffffffffffffffffffffffffffff1602179055507fe1fdf46aa1c39bc8965612fa151c434fffa696c011a8eccc41fdd2aa1f46ef298282604051610a20929190611814565b60405180910390a15050565b6000604051905090565b600080fd5b600080fd5b600080fd5b600080fd5b6000601f19601f8301169050919050565b7f4e487b7100000000000000000000000000000000000000000000000000000000600052604160045260246000fd5b610a9382610a4a565b810181811067ffffffffffffffff82111715610ab257610ab1610a5b565b5b80604052505050565b6000610ac5610a2c565b9050610ad18282610a8a565b919050565b600067ffffffffffffffff821115610af157610af0610a5b565b5b610afa82610a4a565b9050602081019050919050565b82818337600083830152505050565b6000610b29610b2484610ad6565b610abb565b905082815260208101848484011115610b4557610b44610a45565b5b610b50848285610b07565b509392505050565b600082601f830112610b6d57610b6c610a40565b5b8135610b7d848260208601610b16565b91505092915050565b60008060008060808587031215610ba057610b9f610a36565b5b600085013567ffffffffffffffff811115610bbe57610bbd610a3b565b5b610bca87828801610b58565b945050602085013567ffffffffffffffff811115610beb57610bea610a3b565b5b610bf787828801610b58565b935050604085013567ffffffffffffffff811115610c1857610c17610a3b565b5b610c2487828801610b58565b925050606085013567ffffffffffffffff811115610c4557610c44610a3b565b5b610c5187828801610b58565b91505092959194509250565b6000819050919050565b610c7081610c5d565b8114610c7b57600080fd5b50565b600081359050610c8d81610c67565b92915050565b600060208284031215610ca957610ca8610a36565b5b6000610cb784828501610c7e565b91505092915050565b600073ffffffffffffffffffffffffffffffffffffffff82169050919050565b6000610ceb82610cc0565b9050919050565b610cfb81610ce0565b82525050565b6000602082019050610d166000830184610cf2565b92915050565b6000819050919050565b610d2f81610d1c565b8114610d3a57600080fd5b50565b600081359050610d4c81610d26565b92915050565b600060208284031215610d6857610d67610a36565b5b6000610d7684828501610d3d565b91505092915050565b610d8881610c5d565b82525050565b6000602082019050610da36000830184610d7f565b92915050565b600081519050919050565b600082825260208201905092915050565b60005b83811015610de3578082015181840152602081019050610dc8565b60008484015250505050565b6000610dfa82610da9565b610e048185610db4565b9350610e14818560208601610dc5565b610e1d81610a4a565b840191505092915050565b610e3181610d1c565b82525050565b600060e082019050610e4c600083018a610d7f565b8181036020830152610e5e8189610def565b90508181036040830152610e728188610def565b90508181036060830152610e868187610def565b9050610e956080830186610cf2565b610ea260a0830185610e28565b81810360c0830152610eb48184610def565b905098975050505050505050565b60008060408385031215610ed957610ed8610a36565b5b6000610ee785828601610d3d565b925050602083013567ffffffffffffffff811115610f0857610f07610a3b565b5b610f1485828601610b58565b9150509250929050565b610f2781610ce0565b8114610f3257600080fd5b50565b600081359050610f4481610f1e565b92915050565b60008060408385031215610f6157610f60610a36565b5b6000610f6f85828601610c7e565b9250506020610f8085828601610f35565b9150509250929050565b7f50617469656e74206e616d652063616e6e6f7420626520656d7074792e000000600082015250565b6000610fc0601d83610db4565b9150610fcb82610f8a565b602082019050919050565b60006020820190508181036000830152610fef81610fb3565b9050919050565b7f436f6e746163742063616e6e6f7420626520656d7074792e0000000000000000600082015250565b600061102c601883610db4565b915061103782610ff6565b602082019050919050565b6000602082019050818103600083015261105b8161101f565b9050919050565b7f416464726573732063616e6e6f7420626520656d7074792e0000000000000000600082015250565b6000611098601883610db4565b91506110a382611062565b602082019050919050565b600060208201905081810360008301526110c78161108b565b9050919050565b7f50617373776f72642063616e6e6f7420626520656d7074792e00000000000000600082015250565b6000611104601983610db4565b915061110f826110ce565b602082019050919050565b60006020820190508181036000830152611133816110f7565b9050919050565b7f4e487b7100000000000000000000000000000000000000000000000000000000600052601160045260246000fd5b600061117482610c5d565b91507fffffffffffffffffffffffffffffffffffffffffffffffffffffffffffffffff82036111a6576111a561113a565b5b600182019050919050565b600081905092915050565b60006111c782610da9565b6111d181856111b1565b93506111e1818560208601610dc5565b80840191505092915050565b6000819050919050565b61120861120382610c5d565b6111ed565b82525050565b600061121a82856111bc565b915061122682846111f7565b6020820191508190509392505050565b7f5075626c696320494420616c7265616479206578697374732e00000000000000600082015250565b600061126c601983610db4565b915061127782611236565b602082019050919050565b6000602082019050818103600083015261129b8161125f565b9050919050565b7f4e487b7100000000000000000000000000000000000000000000000000000000600052602260045260246000fd5b600060028204905060018216806112e957607f821691505b6020821081036112fc576112fb6112a2565b5b50919050565b60008190508160005260206000209050919050565b60006020601f8301049050919050565b600082821b905092915050565b6000600883026113647fffffffffffffffffffffffffffffffffffffffffffffffffffffffffffffffff82611327565b61136e8683611327565b95508019841693508086168417925050509392505050565b6000819050919050565b60006113ab6113a66113a184610c5d565b611386565b610c5d565b9050919050565b6000819050919050565b6113c583611390565b6113d96113d1826113b2565b848454611334565b825550505050565b600090565b6113ee6113e1565b6113f98184846113bc565b505050565b5b8181101561141d576114126000826113e6565b6001810190506113ff565b5050565b601f8211156114625761143381611302565b61143c84611317565b8101602085101561144b578190505b61145f61145785611317565b8301826113fe565b50505b505050565b600082821c905092915050565b600061148560001984600802611467565b1980831691505092915050565b600061149e8383611474565b9150826002028217905092915050565b6114b782610da9565b67ffffffffffffffff8111156114d0576114cf610a5b565b5b6114da82546112d1565b6114e5828285611421565b600060209050601f8311600181146115185760008415611506578287015190505b6115108582611492565b865550611578565b601f19841661152686611302565b60005b8281101561154e57848901518255600182019150602085019450602081019050611529565b8683101561156b5784890151611567601f891682611474565b8355505b6001600288020188555050505b505050505050565b600060c0820190506115956000830189610d7f565b81810360208301526115a78188610def565b905081810360408301526115bb8187610def565b905081810360608301526115cf8186610def565b90506115de6080830185610cf2565b6115eb60a0830184610e28565b979650505050505050565b7f50617469656e7420646f6573206e6f742065786973742e000000000000000000600082015250565b600061162c601783610db4565b9150611637826115f6565b602082019050919050565b6000602082019050818103600083015261165b8161161f565b9050919050565b7f496e76616c6964207075626c69632049442e0000000000000000000000000000600082015250565b6000611698601283610db4565b91506116a382611662565b602082019050919050565b600060208201905081810360008301526116c78161168b565b9050919050565b60006116da82846111bc565b915081905092915050565b600081546116f2816112d1565b6116fc81866111b1565b94506001821660008114611717576001811461172c5761175f565b60ff198316865281151582028601935061175f565b61173585611302565b60005b8381101561175757815481890152600182019150602081019050611738565b838801955050505b50505092915050565b600061177482846116e5565b915081905092915050565b7f496e76616c69642070617373776f72642e000000000000000000000000000000600082015250565b60006117b5601183610db4565b91506117c08261177f565b602082019050919050565b600060208201905081810360008301526117e4816117a8565b9050919050565b60006040820190506118006000830185610d7f565b61180d6020830184610e28565b9392505050565b60006040820190506118296000830185610d7f565b6118366020830184610cf2565b939250505056fea2646970667358221220473710b3a75892201650d8d8c79d92775ac600c6f8edb35adfc01dcf072976ee64736f6c63430008110033",
  "immutableReferences": {},
  "source": "// SPDX-License-Identifier: MIT\r\npragma solidity ^0.8.0;\r\n\r\ncontract PatientManagementAndNominee {\r\n    struct Patient {\r\n        uint256 id;               // Auto-generated ID for the patient\r\n        string name;              // Patient's name\r\n        string contact;           // Patient's contact number\r\n        string patientAddress;    // Patient's address\r\n        address nominee;          // Nominee's address (can be address(0) if not provided)\r\n        bytes32 publicId;         // Public ID for the patient\r\n        string password;          // Patient's password for login\r\n    }\r\n\r\n    mapping(uint256 => Patient) public patients;               // Mapping from patient ID to Patient struct\r\n    mapping(bytes32 => uint256) public publicIdToPatientId;    // Mapping from public ID to patient ID\r\n    uint256 public patientCount;                               // Counter for patients\r\n\r\n    event PatientRegistered(uint256 id, string name, string contact, string patientAddress, address nominee, bytes32 publicId);\r\n    event NomineeUpdated(uint256 patientId, address newNominee);\r\n    event LoginSuccess(uint256 patientId, bytes32 publicId);\r\n\r\n    // Register patient with optional nominee and additional details\r\n    function registerPatient(\r\n        string memory _name,\r\n        string memory _contact,\r\n        string memory _patientAddress,\r\n        string memory _password // New parameter for password\r\n    ) public {\r\n        require(bytes(_name).length > 0, \"Patient name cannot be empty.\");     // Ensure name is not empty\r\n        require(bytes(_contact).length > 0, \"Contact cannot be empty.\");       // Ensure contact is not empty\r\n        require(bytes(_patientAddress).length > 0, \"Address cannot be empty.\");  // Ensure address is not empty\r\n        require(bytes(_password).length > 0, \"Password cannot be empty.\");     // Ensure password is not empty\r\n        \r\n        patientCount++;\r\n        bytes32 publicId = keccak256(abi.encodePacked(_name, patientCount)); // Generate unique public ID\r\n\r\n        // Ensure public ID is unique\r\n        require(publicIdToPatientId[publicId] == 0, \"Public ID already exists.\");\r\n\r\n        // Create the patient; nominee can be address(0) initially (no nominee)\r\n        patients[patientCount] = Patient(patientCount, _name, _contact, _patientAddress, address(0), publicId, _password);\r\n        publicIdToPatientId[publicId] = patientCount;\r\n        \r\n        emit PatientRegistered(patientCount, _name, _contact, _patientAddress, address(0), publicId);\r\n    }\r\n\r\n    // Update the nominee for an existing patient\r\n    function updateNominee(uint256 _patientId, address _newNominee) public {\r\n        require(patients[_patientId].id != 0, \"Patient does not exist.\");\r\n        patients[_patientId].nominee = _newNominee;\r\n        emit NomineeUpdated(_patientId, _newNominee);\r\n    }\r\n\r\n    // Login function using public ID and password\r\n    function loginPatient(bytes32 _publicId, string memory _password) public returns (uint256) {\r\n        uint256 patientId = publicIdToPatientId[_publicId];\r\n        require(patientId != 0, \"Invalid public ID.\");\r\n        \r\n        Patient storage patient = patients[patientId];\r\n        require(\r\n            keccak256(abi.encodePacked(patient.password)) == keccak256(abi.encodePacked(_password)),\r\n            \"Invalid password.\"\r\n        );\r\n\r\n        emit LoginSuccess(patientId, _publicId); // Emit successful login event\r\n        return patientId;\r\n    }\r\n\r\n    // Function to verify nominee (could be called by the patient)\r\n    function verifyNominee(uint256 _patientId) public returns (address) {\r\n        require(patients[_patientId].id != 0, \"Patient does not exist.\");\r\n        return patients[_patientId].nominee;\r\n    }\r\n}\r\n",
  "sourcePath": "C:\\Users\\HP\\HospitalManagementBlockchain\\contracts\\PatientManagementAndNominee.sol",
  "compiler": {
    "name": "solc",
    "version": "0.8.17+commit.8df45f5f.Emscripten.clang"
  },
  "schemaVersion": "3.4.16",
  "updatedAt": "2024-10-10T19:16:31.273Z",
  "devdoc": {
    "kind": "dev",
    "methods": {},
    "version": 1
  },
  "userdoc": {
    "kind": "user",
    "methods": {},
    "version": 1
  }
}