{
  "contractName": "PatientManagementAndNominee",
  "abi": [
    {
      "anonymous": false,
      "inputs": [
        {
          "indexed": false,
          "internalType": "uint256",
          "name": "patientId",
          "type": "uint256"
        },
        {
          "indexed": false,
          "internalType": "address",
          "name": "newNominee",
          "type": "address"
        }
      ],
      "name": "NomineeUpdated",
      "type": "event"
    },
    {
      "anonymous": false,
      "inputs": [
        {
          "indexed": false,
          "internalType": "uint256",
          "name": "id",
          "type": "uint256"
        },
        {
          "indexed": false,
          "internalType": "string",
          "name": "name",
          "type": "string"
        },
        {
          "indexed": false,
          "internalType": "address",
          "name": "nominee",
          "type": "address"
        },
        {
          "indexed": false,
          "internalType": "bytes32",
          "name": "publicId",
          "type": "bytes32"
        }
      ],
      "name": "PatientRegistered",
      "type": "event"
    },
    {
      "inputs": [],
      "name": "patientCount",
      "outputs": [
        {
          "internalType": "uint256",
          "name": "",
          "type": "uint256"
        }
      ],
      "stateMutability": "view",
      "type": "function",
      "constant": true
    },
    {
      "inputs": [
        {
          "internalType": "uint256",
          "name": "",
          "type": "uint256"
        }
      ],
      "name": "patients",
      "outputs": [
        {
          "internalType": "uint256",
          "name": "id",
          "type": "uint256"
        },
        {
          "internalType": "string",
          "name": "name",
          "type": "string"
        },
        {
          "internalType": "address",
          "name": "nominee",
          "type": "address"
        },
        {
          "internalType": "bytes32",
          "name": "publicId",
          "type": "bytes32"
        }
      ],
      "stateMutability": "view",
      "type": "function",
      "constant": true
    },
    {
      "inputs": [
        {
          "internalType": "bytes32",
          "name": "",
          "type": "bytes32"
        }
      ],
      "name": "publicIdToPatientId",
      "outputs": [
        {
          "internalType": "uint256",
          "name": "",
          "type": "uint256"
        }
      ],
      "stateMutability": "view",
      "type": "function",
      "constant": true
    },
    {
      "inputs": [
        {
          "internalType": "string",
          "name": "_name",
          "type": "string"
        },
        {
          "internalType": "address",
          "name": "_nominee",
          "type": "address"
        }
      ],
      "name": "registerPatient",
      "outputs": [],
      "stateMutability": "nonpayable",
      "type": "function"
    },
    {
      "inputs": [
        {
          "internalType": "uint256",
          "name": "_patientId",
          "type": "uint256"
        },
        {
          "internalType": "address",
          "name": "_newNominee",
          "type": "address"
        }
      ],
      "name": "updateNominee",
      "outputs": [],
      "stateMutability": "nonpayable",
      "type": "function"
    },
    {
      "inputs": [
        {
          "internalType": "bytes32",
          "name": "_publicId",
          "type": "bytes32"
        }
      ],
      "name": "getPatientByPublicId",
      "outputs": [
        {
          "components": [
            {
              "internalType": "uint256",
              "name": "id",
              "type": "uint256"
            },
            {
              "internalType": "string",
              "name": "name",
              "type": "string"
            },
            {
              "internalType": "address",
              "name": "nominee",
              "type": "address"
            },
            {
              "internalType": "bytes32",
              "name": "publicId",
              "type": "bytes32"
            }
          ],
          "internalType": "struct PatientManagementAndNominee.Patient",
          "name": "",
          "type": "tuple"
        }
      ],
      "stateMutability": "view",
      "type": "function",
      "constant": true
    }
  ],
  "bytecode": "0x608060405234801561001057600080fd5b50611144806100206000396000f3fe608060405234801561001057600080fd5b50600436106100625760003560e01c80632512a365146100675780633830b1e314610083578063904ec284146100b357806393119a83146100e3578063a0303c4114610116578063d5d1ac5714610134575b600080fd5b610081600480360381019061007c9190610856565b610150565b005b61009d600480360381019061009891906108e8565b6102fa565b6040516100aa9190610a2e565b60405180910390f35b6100cd60048036038101906100c891906108e8565b61047e565b6040516100da9190610a5f565b60405180910390f35b6100fd60048036038101906100f89190610aa6565b610496565b60405161010d9493929190610b3b565b60405180910390f35b61011e61056e565b60405161012b9190610a5f565b60405180910390f35b61014e60048036038101906101499190610b87565b610574565b005b6000825111610194576040517f08c379a000000000000000000000000000000000000000000000000000000000815260040161018b90610c13565b60405180910390fd5b600260008154809291906101a790610c62565b91905055506000826002546040516020016101c3929190610d07565b604051602081830303815290604052805190602001209050604051806080016040528060025481526020018481526020018373ffffffffffffffffffffffffffffffffffffffff1681526020018281525060008060025481526020019081526020016000206000820151816000015560208201518160010190816102479190610f3b565b5060408201518160020160006101000a81548173ffffffffffffffffffffffffffffffffffffffff021916908373ffffffffffffffffffffffffffffffffffffffff1602179055506060820151816003015590505060025460016000838152602001908152602001600020819055507f33d14bd77c9600f070ea0ace7c25c70f053038cae854337329110737818faae06002548484846040516102ed9493929190610b3b565b60405180910390a1505050565b61030261065d565b6000600160008481526020019081526020016000205490506000810361035d576040517f08c379a000000000000000000000000000000000000000000000000000000000815260040161035490611059565b60405180910390fd5b6000808281526020019081526020016000206040518060800160405290816000820154815260200160018201805461039490610d5e565b80601f01602080910402602001604051908101604052809291908181526020018280546103c090610d5e565b801561040d5780601f106103e25761010080835404028352916020019161040d565b820191906000526020600020905b8154815290600101906020018083116103f057829003601f168201915b505050505081526020016002820160009054906101000a900473ffffffffffffffffffffffffffffffffffffffff1673ffffffffffffffffffffffffffffffffffffffff1673ffffffffffffffffffffffffffffffffffffffff168152602001600382015481525050915050919050565b60016020528060005260406000206000915090505481565b60006020528060005260406000206000915090508060000154908060010180546104bf90610d5e565b80601f01602080910402602001604051908101604052809291908181526020018280546104eb90610d5e565b80156105385780601f1061050d57610100808354040283529160200191610538565b820191906000526020600020905b81548152906001019060200180831161051b57829003601f168201915b5050505050908060020160009054906101000a900473ffffffffffffffffffffffffffffffffffffffff16908060030154905084565b60025481565b600080600084815260200190815260200160002060000154036105cc576040517f08c379a00000000000000000000000000000000000000000000000000000000081526004016105c3906110c5565b60405180910390fd5b8060008084815260200190815260200160002060020160006101000a81548173ffffffffffffffffffffffffffffffffffffffff021916908373ffffffffffffffffffffffffffffffffffffffff1602179055507fe1fdf46aa1c39bc8965612fa151c434fffa696c011a8eccc41fdd2aa1f46ef2982826040516106519291906110e5565b60405180910390a15050565b60405180608001604052806000815260200160608152602001600073ffffffffffffffffffffffffffffffffffffffff168152602001600080191681525090565b6000604051905090565b600080fd5b600080fd5b600080fd5b600080fd5b6000601f19601f8301169050919050565b7f4e487b7100000000000000000000000000000000000000000000000000000000600052604160045260246000fd5b610705826106bc565b810181811067ffffffffffffffff82111715610724576107236106cd565b5b80604052505050565b600061073761069e565b905061074382826106fc565b919050565b600067ffffffffffffffff821115610763576107626106cd565b5b61076c826106bc565b9050602081019050919050565b82818337600083830152505050565b600061079b61079684610748565b61072d565b9050828152602081018484840111156107b7576107b66106b7565b5b6107c2848285610779565b509392505050565b600082601f8301126107df576107de6106b2565b5b81356107ef848260208601610788565b91505092915050565b600073ffffffffffffffffffffffffffffffffffffffff82169050919050565b6000610823826107f8565b9050919050565b61083381610818565b811461083e57600080fd5b50565b6000813590506108508161082a565b92915050565b6000806040838503121561086d5761086c6106a8565b5b600083013567ffffffffffffffff81111561088b5761088a6106ad565b5b610897858286016107ca565b92505060206108a885828601610841565b9150509250929050565b6000819050919050565b6108c5816108b2565b81146108d057600080fd5b50565b6000813590506108e2816108bc565b92915050565b6000602082840312156108fe576108fd6106a8565b5b600061090c848285016108d3565b91505092915050565b6000819050919050565b61092881610915565b82525050565b600081519050919050565b600082825260208201905092915050565b60005b8381101561096857808201518184015260208101905061094d565b60008484015250505050565b600061097f8261092e565b6109898185610939565b935061099981856020860161094a565b6109a2816106bc565b840191505092915050565b6109b681610818565b82525050565b6109c5816108b2565b82525050565b60006080830160008301516109e3600086018261091f565b50602083015184820360208601526109fb8282610974565b9150506040830151610a1060408601826109ad565b506060830151610a2360608601826109bc565b508091505092915050565b60006020820190508181036000830152610a4881846109cb565b905092915050565b610a5981610915565b82525050565b6000602082019050610a746000830184610a50565b92915050565b610a8381610915565b8114610a8e57600080fd5b50565b600081359050610aa081610a7a565b92915050565b600060208284031215610abc57610abb6106a8565b5b6000610aca84828501610a91565b91505092915050565b600082825260208201905092915050565b6000610aef8261092e565b610af98185610ad3565b9350610b0981856020860161094a565b610b12816106bc565b840191505092915050565b610b2681610818565b82525050565b610b35816108b2565b82525050565b6000608082019050610b506000830187610a50565b8181036020830152610b628186610ae4565b9050610b716040830185610b1d565b610b7e6060830184610b2c565b95945050505050565b60008060408385031215610b9e57610b9d6106a8565b5b6000610bac85828601610a91565b9250506020610bbd85828601610841565b9150509250929050565b7f50617469656e74206e616d652063616e6e6f7420626520656d7074792e000000600082015250565b6000610bfd601d83610ad3565b9150610c0882610bc7565b602082019050919050565b60006020820190508181036000830152610c2c81610bf0565b9050919050565b7f4e487b7100000000000000000000000000000000000000000000000000000000600052601160045260246000fd5b6000610c6d82610915565b91507fffffffffffffffffffffffffffffffffffffffffffffffffffffffffffffffff8203610c9f57610c9e610c33565b5b600182019050919050565b600081905092915050565b6000610cc08261092e565b610cca8185610caa565b9350610cda81856020860161094a565b80840191505092915050565b6000819050919050565b610d01610cfc82610915565b610ce6565b82525050565b6000610d138285610cb5565b9150610d1f8284610cf0565b6020820191508190509392505050565b7f4e487b7100000000000000000000000000000000000000000000000000000000600052602260045260246000fd5b60006002820490506001821680610d7657607f821691505b602082108103610d8957610d88610d2f565b5b50919050565b60008190508160005260206000209050919050565b60006020601f8301049050919050565b600082821b905092915050565b600060088302610df17fffffffffffffffffffffffffffffffffffffffffffffffffffffffffffffffff82610db4565b610dfb8683610db4565b95508019841693508086168417925050509392505050565b6000819050919050565b6000610e38610e33610e2e84610915565b610e13565b610915565b9050919050565b6000819050919050565b610e5283610e1d565b610e66610e5e82610e3f565b848454610dc1565b825550505050565b600090565b610e7b610e6e565b610e86818484610e49565b505050565b5b81811015610eaa57610e9f600082610e73565b600181019050610e8c565b5050565b601f821115610eef57610ec081610d8f565b610ec984610da4565b81016020851015610ed8578190505b610eec610ee485610da4565b830182610e8b565b50505b505050565b600082821c905092915050565b6000610f1260001984600802610ef4565b1980831691505092915050565b6000610f2b8383610f01565b9150826002028217905092915050565b610f448261092e565b67ffffffffffffffff811115610f5d57610f5c6106cd565b5b610f678254610d5e565b610f72828285610eae565b600060209050601f831160018114610fa55760008415610f93578287015190505b610f9d8582610f1f565b865550611005565b601f198416610fb386610d8f565b60005b82811015610fdb57848901518255600182019150602085019450602081019050610fb6565b86831015610ff85784890151610ff4601f891682610f01565b8355505b6001600288020188555050505b505050505050565b7f50617469656e74206e6f7420666f756e642e0000000000000000000000000000600082015250565b6000611043601283610ad3565b915061104e8261100d565b602082019050919050565b6000602082019050818103600083015261107281611036565b9050919050565b7f50617469656e7420646f6573206e6f742065786973742e000000000000000000600082015250565b60006110af601783610ad3565b91506110ba82611079565b602082019050919050565b600060208201905081810360008301526110de816110a2565b9050919050565b60006040820190506110fa6000830185610a50565b6111076020830184610b1d565b939250505056fea264697066735822122064df3b4a1f5562390d1fb0ae1c8fa9dae714222f41603a0798e853f75b559df664736f6c63430008110033",
  "immutableReferences": {},
  "source": "// SPDX-License-Identifier: MIT\r\npragma solidity ^0.8.0;\r\n\r\ncontract PatientManagementAndNominee {\r\n    struct Patient {\r\n        uint256 id;\r\n        string name;\r\n        address nominee; // Nominee can be set to address(0) to indicate no nominee\r\n        bytes32 publicId;\r\n    }\r\n\r\n    mapping(uint256 => Patient) public patients;\r\n    mapping(bytes32 => uint256) public publicIdToPatientId;\r\n    uint256 public patientCount;\r\n\r\n    event PatientRegistered(uint256 id, string name, address nominee, bytes32 publicId);\r\n    event NomineeUpdated(uint256 patientId, address newNominee);\r\n\r\n    // Register patient with an optional nominee\r\n    function registerPatient(string memory _name, address _nominee) public {\r\n        require(bytes(_name).length > 0, \"Patient name cannot be empty.\"); // Ensure name is not empty\r\n        \r\n        patientCount++;\r\n        bytes32 publicId = keccak256(abi.encodePacked(_name, patientCount));\r\n        \r\n        // Create the patient, nominee can be address(0) if not provided\r\n        patients[patientCount] = Patient(patientCount, _name, _nominee, publicId);\r\n        publicIdToPatientId[publicId] = patientCount;\r\n        \r\n        emit PatientRegistered(patientCount, _name, _nominee, publicId);\r\n    }\r\n\r\n    // Update the nominee for an existing patient\r\n    function updateNominee(uint256 _patientId, address _newNominee) public {\r\n        require(patients[_patientId].id != 0, \"Patient does not exist.\");\r\n        patients[_patientId].nominee = _newNominee;\r\n        emit NomineeUpdated(_patientId, _newNominee);\r\n    }\r\n\r\n    // Get patient details by public ID\r\n    function getPatientByPublicId(bytes32 _publicId) public view returns (Patient memory) {\r\n        uint256 patientId = publicIdToPatientId[_publicId];\r\n        require(patientId != 0, \"Patient not found.\");\r\n        return patients[patientId];\r\n    }\r\n}\r\n",
  "sourcePath": "C:\\Users\\HP\\HospitalManagementBlockchain\\contracts\\PatientManagementAndNominee.sol",
  "compiler": {
    "name": "solc",
    "version": "0.8.17+commit.8df45f5f.Emscripten.clang"
  },
  "schemaVersion": "3.4.16",
  "updatedAt": "2024-09-27T18:18:42.611Z",
  "networkType": "ethereum",
  "devdoc": {
    "kind": "dev",
    "methods": {},
    "version": 1
  },
  "userdoc": {
    "kind": "user",
    "methods": {},
    "version": 1
  }
}